{
  "contractName": "ERC4907",
  "abi": [
    {
      "inputs": [
        {
          "internalType": "string",
          "name": "name_",
          "type": "string"
        },
        {
          "internalType": "string",
          "name": "symbol_",
          "type": "string"
        }
      ],
      "stateMutability": "nonpayable",
      "type": "constructor"
    },
    {
      "anonymous": false,
      "inputs": [
        {
          "indexed": true,
          "internalType": "address",
          "name": "owner",
          "type": "address"
        },
        {
          "indexed": true,
          "internalType": "address",
          "name": "approved",
          "type": "address"
        },
        {
          "indexed": true,
          "internalType": "uint256",
          "name": "tokenId",
          "type": "uint256"
        }
      ],
      "name": "Approval",
      "type": "event"
    },
    {
      "anonymous": false,
      "inputs": [
        {
          "indexed": true,
          "internalType": "address",
          "name": "owner",
          "type": "address"
        },
        {
          "indexed": true,
          "internalType": "address",
          "name": "operator",
          "type": "address"
        },
        {
          "indexed": false,
          "internalType": "bool",
          "name": "approved",
          "type": "bool"
        }
      ],
      "name": "ApprovalForAll",
      "type": "event"
    },
    {
      "anonymous": false,
      "inputs": [
        {
          "indexed": true,
          "internalType": "address",
          "name": "from",
          "type": "address"
        },
        {
          "indexed": true,
          "internalType": "address",
          "name": "to",
          "type": "address"
        },
        {
          "indexed": true,
          "internalType": "uint256",
          "name": "tokenId",
          "type": "uint256"
        }
      ],
      "name": "Transfer",
      "type": "event"
    },
    {
      "anonymous": false,
      "inputs": [
        {
          "indexed": true,
          "internalType": "uint256",
          "name": "tokenId",
          "type": "uint256"
        },
        {
          "indexed": true,
          "internalType": "address",
          "name": "user",
          "type": "address"
        },
        {
          "indexed": false,
          "internalType": "uint64",
          "name": "expires",
          "type": "uint64"
        }
      ],
      "name": "UpdateUser",
      "type": "event"
    },
    {
      "inputs": [
        {
          "internalType": "address",
          "name": "to",
          "type": "address"
        },
        {
          "internalType": "uint256",
          "name": "tokenId",
          "type": "uint256"
        }
      ],
      "name": "approve",
      "outputs": [],
      "stateMutability": "nonpayable",
      "type": "function"
    },
    {
      "inputs": [
        {
          "internalType": "address",
          "name": "owner",
          "type": "address"
        }
      ],
      "name": "balanceOf",
      "outputs": [
        {
          "internalType": "uint256",
          "name": "",
          "type": "uint256"
        }
      ],
      "stateMutability": "view",
      "type": "function"
    },
    {
      "inputs": [
        {
          "internalType": "uint256",
          "name": "tokenId",
          "type": "uint256"
        }
      ],
      "name": "getApproved",
      "outputs": [
        {
          "internalType": "address",
          "name": "",
          "type": "address"
        }
      ],
      "stateMutability": "view",
      "type": "function"
    },
    {
      "inputs": [
        {
          "internalType": "address",
          "name": "owner",
          "type": "address"
        },
        {
          "internalType": "address",
          "name": "operator",
          "type": "address"
        }
      ],
      "name": "isApprovedForAll",
      "outputs": [
        {
          "internalType": "bool",
          "name": "",
          "type": "bool"
        }
      ],
      "stateMutability": "view",
      "type": "function"
    },
    {
      "inputs": [],
      "name": "name",
      "outputs": [
        {
          "internalType": "string",
          "name": "",
          "type": "string"
        }
      ],
      "stateMutability": "view",
      "type": "function"
    },
    {
      "inputs": [
        {
          "internalType": "uint256",
          "name": "tokenId",
          "type": "uint256"
        }
      ],
      "name": "ownerOf",
      "outputs": [
        {
          "internalType": "address",
          "name": "",
          "type": "address"
        }
      ],
      "stateMutability": "view",
      "type": "function"
    },
    {
      "inputs": [
        {
          "internalType": "address",
          "name": "from",
          "type": "address"
        },
        {
          "internalType": "address",
          "name": "to",
          "type": "address"
        },
        {
          "internalType": "uint256",
          "name": "tokenId",
          "type": "uint256"
        }
      ],
      "name": "safeTransferFrom",
      "outputs": [],
      "stateMutability": "nonpayable",
      "type": "function"
    },
    {
      "inputs": [
        {
          "internalType": "address",
          "name": "from",
          "type": "address"
        },
        {
          "internalType": "address",
          "name": "to",
          "type": "address"
        },
        {
          "internalType": "uint256",
          "name": "tokenId",
          "type": "uint256"
        },
        {
          "internalType": "bytes",
          "name": "data",
          "type": "bytes"
        }
      ],
      "name": "safeTransferFrom",
      "outputs": [],
      "stateMutability": "nonpayable",
      "type": "function"
    },
    {
      "inputs": [
        {
          "internalType": "address",
          "name": "operator",
          "type": "address"
        },
        {
          "internalType": "bool",
          "name": "approved",
          "type": "bool"
        }
      ],
      "name": "setApprovalForAll",
      "outputs": [],
      "stateMutability": "nonpayable",
      "type": "function"
    },
    {
      "inputs": [],
      "name": "symbol",
      "outputs": [
        {
          "internalType": "string",
          "name": "",
          "type": "string"
        }
      ],
      "stateMutability": "view",
      "type": "function"
    },
    {
      "inputs": [
        {
          "internalType": "uint256",
          "name": "tokenId",
          "type": "uint256"
        }
      ],
      "name": "tokenURI",
      "outputs": [
        {
          "internalType": "string",
          "name": "",
          "type": "string"
        }
      ],
      "stateMutability": "view",
      "type": "function"
    },
    {
      "inputs": [
        {
          "internalType": "address",
          "name": "from",
          "type": "address"
        },
        {
          "internalType": "address",
          "name": "to",
          "type": "address"
        },
        {
          "internalType": "uint256",
          "name": "tokenId",
          "type": "uint256"
        }
      ],
      "name": "transferFrom",
      "outputs": [],
      "stateMutability": "nonpayable",
      "type": "function"
    },
    {
      "inputs": [
        {
          "internalType": "uint256",
          "name": "tokenId",
          "type": "uint256"
        },
        {
          "internalType": "address",
          "name": "user",
          "type": "address"
        },
        {
          "internalType": "uint64",
          "name": "expires",
          "type": "uint64"
        }
      ],
      "name": "setUser",
      "outputs": [],
      "stateMutability": "nonpayable",
      "type": "function"
    },
    {
      "inputs": [
        {
          "internalType": "uint256",
          "name": "tokenId",
          "type": "uint256"
        }
      ],
      "name": "userOf",
      "outputs": [
        {
          "internalType": "address",
          "name": "",
          "type": "address"
        }
      ],
      "stateMutability": "view",
      "type": "function"
    },
    {
      "inputs": [
        {
          "internalType": "uint256",
          "name": "tokenId",
          "type": "uint256"
        }
      ],
      "name": "userExpires",
      "outputs": [
        {
          "internalType": "uint256",
          "name": "",
          "type": "uint256"
        }
      ],
      "stateMutability": "view",
      "type": "function"
    },
    {
      "inputs": [
        {
          "internalType": "bytes4",
          "name": "interfaceId",
          "type": "bytes4"
        }
      ],
      "name": "supportsInterface",
      "outputs": [
        {
          "internalType": "bool",
          "name": "",
          "type": "bool"
        }
      ],
      "stateMutability": "view",
      "type": "function"
    }
  ],
  "bytecode": "0x60806040523480156200001157600080fd5b5060405162002c8238038062002c828339818101604052810190620000379190620001fa565b818181600090816200004a9190620004ca565b5080600190816200005c9190620004ca565b5050505050620005b1565b6000604051905090565b600080fd5b600080fd5b600080fd5b600080fd5b6000601f19601f8301169050919050565b7f4e487b7100000000000000000000000000000000000000000000000000000000600052604160045260246000fd5b620000d08262000085565b810181811067ffffffffffffffff82111715620000f257620000f162000096565b5b80604052505050565b60006200010762000067565b9050620001158282620000c5565b919050565b600067ffffffffffffffff82111562000138576200013762000096565b5b620001438262000085565b9050602081019050919050565b60005b838110156200017057808201518184015260208101905062000153565b60008484015250505050565b6000620001936200018d846200011a565b620000fb565b905082815260208101848484011115620001b257620001b162000080565b5b620001bf84828562000150565b509392505050565b600082601f830112620001df57620001de6200007b565b5b8151620001f18482602086016200017c565b91505092915050565b6000806040838503121562000214576200021362000071565b5b600083015167ffffffffffffffff81111562000235576200023462000076565b5b6200024385828601620001c7565b925050602083015167ffffffffffffffff81111562000267576200026662000076565b5b6200027585828601620001c7565b9150509250929050565b600081519050919050565b7f4e487b7100000000000000000000000000000000000000000000000000000000600052602260045260246000fd5b60006002820490506001821680620002d257607f821691505b602082108103620002e857620002e76200028a565b5b50919050565b60008190508160005260206000209050919050565b60006020601f8301049050919050565b600082821b905092915050565b600060088302620003527fffffffffffffffffffffffffffffffffffffffffffffffffffffffffffffffff8262000313565b6200035e868362000313565b95508019841693508086168417925050509392505050565b6000819050919050565b6000819050919050565b6000620003ab620003a56200039f8462000376565b62000380565b62000376565b9050919050565b6000819050919050565b620003c7836200038a565b620003df620003d682620003b2565b84845462000320565b825550505050565b600090565b620003f6620003e7565b62000403818484620003bc565b505050565b5b818110156200042b576200041f600082620003ec565b60018101905062000409565b5050565b601f8211156200047a576200044481620002ee565b6200044f8462000303565b810160208510156200045f578190505b620004776200046e8562000303565b83018262000408565b50505b505050565b600082821c905092915050565b60006200049f600019846008026200047f565b1980831691505092915050565b6000620004ba83836200048c565b9150826002028217905092915050565b620004d5826200027f565b67ffffffffffffffff811115620004f157620004f062000096565b5b620004fd8254620002b9565b6200050a8282856200042f565b600060209050601f8311600181146200054257600084156200052d578287015190505b620005398582620004ac565b865550620005a9565b601f1984166200055286620002ee565b60005b828110156200057c5784890151825560018201915060208501945060208101905062000555565b868310156200059c578489015162000598601f8916826200048c565b8355505b6001600288020188555050505b505050505050565b6126c180620005c16000396000f3fe608060405234801561001057600080fd5b50600436106101005760003560e01c80638fc88c4811610097578063c2f1f14a11610066578063c2f1f14a146102bd578063c87b56dd146102ed578063e030565e1461031d578063e985e9c51461033957610100565b80638fc88c481461023757806395d89b4114610267578063a22cb46514610285578063b88d4fde146102a157610100565b806323b872dd116100d357806323b872dd1461019f57806342842e0e146101bb5780636352211e146101d757806370a082311461020757610100565b806301ffc9a71461010557806306fdde0314610135578063081812fc14610153578063095ea7b314610183575b600080fd5b61011f600480360381019061011a91906117d6565b610369565b60405161012c919061181e565b60405180910390f35b61013d6103e3565b60405161014a91906118c9565b60405180910390f35b61016d60048036038101906101689190611921565b610475565b60405161017a919061198f565b60405180910390f35b61019d600480360381019061019891906119d6565b6104bb565b005b6101b960048036038101906101b49190611a16565b6105d2565b005b6101d560048036038101906101d09190611a16565b610632565b005b6101f160048036038101906101ec9190611921565b610652565b6040516101fe919061198f565b60405180910390f35b610221600480360381019061021c9190611a69565b610703565b60405161022e9190611aa5565b60405180910390f35b610251600480360381019061024c9190611921565b6107ba565b60405161025e9190611aa5565b60405180910390f35b61026f6107f8565b60405161027c91906118c9565b60405180910390f35b61029f600480360381019061029a9190611aec565b61088a565b005b6102bb60048036038101906102b69190611c61565b6108a0565b005b6102d760048036038101906102d29190611921565b610902565b6040516102e4919061198f565b60405180910390f35b61030760048036038101906103029190611921565b610987565b60405161031491906118c9565b60405180910390f35b61033760048036038101906103329190611d24565b610a99565b005b610353600480360381019061034e9190611d77565b610bbc565b604051610360919061181e565b60405180910390f35b60007fad092b5c000000000000000000000000000000000000000000000000000000007bffffffffffffffffffffffffffffffffffffffffffffffffffffffff1916827bffffffffffffffffffffffffffffffffffffffffffffffffffffffff191614806103dc57506103db82610c50565b5b9050919050565b6060600080546103f290611de6565b80601f016020809104026020016040519081016040528092919081815260200182805461041e90611de6565b801561046b5780601f106104405761010080835404028352916020019161046b565b820191906000526020600020905b81548152906001019060200180831161044e57829003601f168201915b5050505050905090565b600061048082610d32565b6004600083815260200190815260200160002060009054906101000a900473ffffffffffffffffffffffffffffffffffffffff169050919050565b60006104c682610652565b90508073ffffffffffffffffffffffffffffffffffffffff168373ffffffffffffffffffffffffffffffffffffffff1603610536576040517f08c379a000000000000000000000000000000000000000000000000000000000815260040161052d90611e89565b60405180910390fd5b8073ffffffffffffffffffffffffffffffffffffffff16610555610d7d565b73ffffffffffffffffffffffffffffffffffffffff16148061058457506105838161057e610d7d565b610bbc565b5b6105c3576040517f08c379a00000000000000000000000000000000000000000000000000000000081526004016105ba90611f1b565b60405180910390fd5b6105cd8383610d85565b505050565b6105e36105dd610d7d565b82610e3e565b610622576040517f08c379a000000000000000000000000000000000000000000000000000000000815260040161061990611fad565b60405180910390fd5b61062d838383610ed3565b505050565b61064d838383604051806020016040528060008152506108a0565b505050565b6000806002600084815260200190815260200160002060009054906101000a900473ffffffffffffffffffffffffffffffffffffffff169050600073ffffffffffffffffffffffffffffffffffffffff168173ffffffffffffffffffffffffffffffffffffffff16036106fa576040517f08c379a00000000000000000000000000000000000000000000000000000000081526004016106f190612019565b60405180910390fd5b80915050919050565b60008073ffffffffffffffffffffffffffffffffffffffff168273ffffffffffffffffffffffffffffffffffffffff1603610773576040517f08c379a000000000000000000000000000000000000000000000000000000000815260040161076a906120ab565b60405180910390fd5b600360008373ffffffffffffffffffffffffffffffffffffffff1673ffffffffffffffffffffffffffffffffffffffff168152602001908152602001600020549050919050565b60006007600083815260200190815260200160002060000160149054906101000a900467ffffffffffffffff1667ffffffffffffffff169050919050565b60606001805461080790611de6565b80601f016020809104026020016040519081016040528092919081815260200182805461083390611de6565b80156108805780601f1061085557610100808354040283529160200191610880565b820191906000526020600020905b81548152906001019060200180831161086357829003601f168201915b5050505050905090565b61089c610895610d7d565b8383611139565b5050565b6108b16108ab610d7d565b83610e3e565b6108f0576040517f08c379a00000000000000000000000000000000000000000000000000000000081526004016108e790611fad565b60405180910390fd5b6108fc848484846112a5565b50505050565b6000426007600084815260200190815260200160002060000160149054906101000a900467ffffffffffffffff1667ffffffffffffffff161061097d576007600083815260200190815260200160002060000160009054906101000a900473ffffffffffffffffffffffffffffffffffffffff169050610982565b600090505b919050565b606061099282610d32565b60006006600084815260200190815260200160002080546109b290611de6565b80601f01602080910402602001604051908101604052809291908181526020018280546109de90611de6565b8015610a2b5780601f10610a0057610100808354040283529160200191610a2b565b820191906000526020600020905b815481529060010190602001808311610a0e57829003601f168201915b505050505090506000610a3c611301565b90506000815103610a51578192505050610a94565b600082511115610a86578082604051602001610a6e929190612107565b60405160208183030381529060405292505050610a94565b610a8f84611318565b925050505b919050565b610aa33384610e3e565b610ae2576040517f08c379a0000000000000000000000000000000000000000000000000000000008152600401610ad99061219d565b60405180910390fd5b6000600760008581526020019081526020016000209050828160000160006101000a81548173ffffffffffffffffffffffffffffffffffffffff021916908373ffffffffffffffffffffffffffffffffffffffff160217905550818160000160146101000a81548167ffffffffffffffff021916908367ffffffffffffffff1602179055508273ffffffffffffffffffffffffffffffffffffffff16847f4e06b4e7000e659094299b3533b47b6aa8ad048e95e872d23d1f4ee55af89cfe84604051610bae91906121cc565b60405180910390a350505050565b6000600560008473ffffffffffffffffffffffffffffffffffffffff1673ffffffffffffffffffffffffffffffffffffffff16815260200190815260200160002060008373ffffffffffffffffffffffffffffffffffffffff1673ffffffffffffffffffffffffffffffffffffffff16815260200190815260200160002060009054906101000a900460ff16905092915050565b60007f80ac58cd000000000000000000000000000000000000000000000000000000007bffffffffffffffffffffffffffffffffffffffffffffffffffffffff1916827bffffffffffffffffffffffffffffffffffffffffffffffffffffffff19161480610d1b57507f5b5e139f000000000000000000000000000000000000000000000000000000007bffffffffffffffffffffffffffffffffffffffffffffffffffffffff1916827bffffffffffffffffffffffffffffffffffffffffffffffffffffffff1916145b80610d2b5750610d2a82611380565b5b9050919050565b610d3b816113ea565b610d7a576040517f08c379a0000000000000000000000000000000000000000000000000000000008152600401610d7190612019565b60405180910390fd5b50565b600033905090565b816004600083815260200190815260200160002060006101000a81548173ffffffffffffffffffffffffffffffffffffffff021916908373ffffffffffffffffffffffffffffffffffffffff160217905550808273ffffffffffffffffffffffffffffffffffffffff16610df883610652565b73ffffffffffffffffffffffffffffffffffffffff167f8c5be1e5ebec7d5bd14f71427d1e84f3dd0314c0f7b2291e5b200ac8c7c3b92560405160405180910390a45050565b600080610e4a83610652565b90508073ffffffffffffffffffffffffffffffffffffffff168473ffffffffffffffffffffffffffffffffffffffff161480610e8c5750610e8b8185610bbc565b5b80610eca57508373ffffffffffffffffffffffffffffffffffffffff16610eb284610475565b73ffffffffffffffffffffffffffffffffffffffff16145b91505092915050565b8273ffffffffffffffffffffffffffffffffffffffff16610ef382610652565b73ffffffffffffffffffffffffffffffffffffffff1614610f49576040517f08c379a0000000000000000000000000000000000000000000000000000000008152600401610f4090612259565b60405180910390fd5b600073ffffffffffffffffffffffffffffffffffffffff168273ffffffffffffffffffffffffffffffffffffffff1603610fb8576040517f08c379a0000000000000000000000000000000000000000000000000000000008152600401610faf906122eb565b60405180910390fd5b610fc3838383611456565b610fce600082610d85565b6001600360008573ffffffffffffffffffffffffffffffffffffffff1673ffffffffffffffffffffffffffffffffffffffff168152602001908152602001600020600082825461101e919061233a565b925050819055506001600360008473ffffffffffffffffffffffffffffffffffffffff1673ffffffffffffffffffffffffffffffffffffffff1681526020019081526020016000206000828254611075919061236e565b92505081905550816002600083815260200190815260200160002060006101000a81548173ffffffffffffffffffffffffffffffffffffffff021916908373ffffffffffffffffffffffffffffffffffffffff160217905550808273ffffffffffffffffffffffffffffffffffffffff168473ffffffffffffffffffffffffffffffffffffffff167fddf252ad1be2c89b69c2b068fc378daa952ba7f163c4a11628f55a4df523b3ef60405160405180910390a461113483838361145b565b505050565b8173ffffffffffffffffffffffffffffffffffffffff168373ffffffffffffffffffffffffffffffffffffffff16036111a7576040517f08c379a000000000000000000000000000000000000000000000000000000000815260040161119e906123ee565b60405180910390fd5b80600560008573ffffffffffffffffffffffffffffffffffffffff1673ffffffffffffffffffffffffffffffffffffffff16815260200190815260200160002060008473ffffffffffffffffffffffffffffffffffffffff1673ffffffffffffffffffffffffffffffffffffffff16815260200190815260200160002060006101000a81548160ff0219169083151502179055508173ffffffffffffffffffffffffffffffffffffffff168373ffffffffffffffffffffffffffffffffffffffff167f17307eab39ab6107e8899845ad3d59bd9653f200f220920489ca2b5937696c3183604051611298919061181e565b60405180910390a3505050565b6112b0848484610ed3565b6112bc84848484611460565b6112fb576040517f08c379a00000000000000000000000000000000000000000000000000000000081526004016112f290612480565b60405180910390fd5b50505050565b606060405180602001604052806000815250905090565b606061132382610d32565b600061132d611301565b9050600081511161134d5760405180602001604052806000815250611378565b80611357846115e7565b604051602001611368929190612107565b6040516020818303038152906040525b915050919050565b60007f01ffc9a7000000000000000000000000000000000000000000000000000000007bffffffffffffffffffffffffffffffffffffffffffffffffffffffff1916827bffffffffffffffffffffffffffffffffffffffffffffffffffffffff1916149050919050565b60008073ffffffffffffffffffffffffffffffffffffffff166002600084815260200190815260200160002060009054906101000a900473ffffffffffffffffffffffffffffffffffffffff1673ffffffffffffffffffffffffffffffffffffffff1614159050919050565b505050565b505050565b60006114818473ffffffffffffffffffffffffffffffffffffffff16611747565b156115da578373ffffffffffffffffffffffffffffffffffffffff1663150b7a026114aa610d7d565b8786866040518563ffffffff1660e01b81526004016114cc94939291906124f5565b6020604051808303816000875af192505050801561150857506040513d601f19601f820116820180604052508101906115059190612556565b60015b61158a573d8060008114611538576040519150601f19603f3d011682016040523d82523d6000602084013e61153d565b606091505b506000815103611582576040517f08c379a000000000000000000000000000000000000000000000000000000000815260040161157990612480565b60405180910390fd5b805181602001fd5b63150b7a0260e01b7bffffffffffffffffffffffffffffffffffffffffffffffffffffffff1916817bffffffffffffffffffffffffffffffffffffffffffffffffffffffff1916149150506115df565b600190505b949350505050565b60606000820361162e576040518060400160405280600181526020017f30000000000000000000000000000000000000000000000000000000000000008152509050611742565b600082905060005b6000821461166057808061164990612583565b915050600a8261165991906125fa565b9150611636565b60008167ffffffffffffffff81111561167c5761167b611b36565b5b6040519080825280601f01601f1916602001820160405280156116ae5781602001600182028036833780820191505090505b5090505b6000851461173b576001826116c7919061233a565b9150600a856116d6919061262b565b60306116e2919061236e565b60f81b8183815181106116f8576116f761265c565b5b60200101907effffffffffffffffffffffffffffffffffffffffffffffffffffffffffffff1916908160001a905350600a8561173491906125fa565b94506116b2565b8093505050505b919050565b6000808273ffffffffffffffffffffffffffffffffffffffff163b119050919050565b6000604051905090565b600080fd5b600080fd5b60007fffffffff0000000000000000000000000000000000000000000000000000000082169050919050565b6117b38161177e565b81146117be57600080fd5b50565b6000813590506117d0816117aa565b92915050565b6000602082840312156117ec576117eb611774565b5b60006117fa848285016117c1565b91505092915050565b60008115159050919050565b61181881611803565b82525050565b6000602082019050611833600083018461180f565b92915050565b600081519050919050565b600082825260208201905092915050565b60005b83811015611873578082015181840152602081019050611858565b60008484015250505050565b6000601f19601f8301169050919050565b600061189b82611839565b6118a58185611844565b93506118b5818560208601611855565b6118be8161187f565b840191505092915050565b600060208201905081810360008301526118e38184611890565b905092915050565b6000819050919050565b6118fe816118eb565b811461190957600080fd5b50565b60008135905061191b816118f5565b92915050565b60006020828403121561193757611936611774565b5b60006119458482850161190c565b91505092915050565b600073ffffffffffffffffffffffffffffffffffffffff82169050919050565b60006119798261194e565b9050919050565b6119898161196e565b82525050565b60006020820190506119a46000830184611980565b92915050565b6119b38161196e565b81146119be57600080fd5b50565b6000813590506119d0816119aa565b92915050565b600080604083850312156119ed576119ec611774565b5b60006119fb858286016119c1565b9250506020611a0c8582860161190c565b9150509250929050565b600080600060608486031215611a2f57611a2e611774565b5b6000611a3d868287016119c1565b9350506020611a4e868287016119c1565b9250506040611a5f8682870161190c565b9150509250925092565b600060208284031215611a7f57611a7e611774565b5b6000611a8d848285016119c1565b91505092915050565b611a9f816118eb565b82525050565b6000602082019050611aba6000830184611a96565b92915050565b611ac981611803565b8114611ad457600080fd5b50565b600081359050611ae681611ac0565b92915050565b60008060408385031215611b0357611b02611774565b5b6000611b11858286016119c1565b9250506020611b2285828601611ad7565b9150509250929050565b600080fd5b600080fd5b7f4e487b7100000000000000000000000000000000000000000000000000000000600052604160045260246000fd5b611b6e8261187f565b810181811067ffffffffffffffff82111715611b8d57611b8c611b36565b5b80604052505050565b6000611ba061176a565b9050611bac8282611b65565b919050565b600067ffffffffffffffff821115611bcc57611bcb611b36565b5b611bd58261187f565b9050602081019050919050565b82818337600083830152505050565b6000611c04611bff84611bb1565b611b96565b905082815260208101848484011115611c2057611c1f611b31565b5b611c2b848285611be2565b509392505050565b600082601f830112611c4857611c47611b2c565b5b8135611c58848260208601611bf1565b91505092915050565b60008060008060808587031215611c7b57611c7a611774565b5b6000611c89878288016119c1565b9450506020611c9a878288016119c1565b9350506040611cab8782880161190c565b925050606085013567ffffffffffffffff811115611ccc57611ccb611779565b5b611cd887828801611c33565b91505092959194509250565b600067ffffffffffffffff82169050919050565b611d0181611ce4565b8114611d0c57600080fd5b50565b600081359050611d1e81611cf8565b92915050565b600080600060608486031215611d3d57611d3c611774565b5b6000611d4b8682870161190c565b9350506020611d5c868287016119c1565b9250506040611d6d86828701611d0f565b9150509250925092565b60008060408385031215611d8e57611d8d611774565b5b6000611d9c858286016119c1565b9250506020611dad858286016119c1565b9150509250929050565b7f4e487b7100000000000000000000000000000000000000000000000000000000600052602260045260246000fd5b60006002820490506001821680611dfe57607f821691505b602082108103611e1157611e10611db7565b5b50919050565b7f4552433732313a20617070726f76616c20746f2063757272656e74206f776e6560008201527f7200000000000000000000000000000000000000000000000000000000000000602082015250565b6000611e73602183611844565b9150611e7e82611e17565b604082019050919050565b60006020820190508181036000830152611ea281611e66565b9050919050565b7f4552433732313a20617070726f76652063616c6c6572206973206e6f7420746f60008201527f6b656e206f776e6572206e6f7220617070726f76656420666f7220616c6c0000602082015250565b6000611f05603e83611844565b9150611f1082611ea9565b604082019050919050565b60006020820190508181036000830152611f3481611ef8565b9050919050565b7f4552433732313a2063616c6c6572206973206e6f7420746f6b656e206f776e6560008201527f72206e6f7220617070726f766564000000000000000000000000000000000000602082015250565b6000611f97602e83611844565b9150611fa282611f3b565b604082019050919050565b60006020820190508181036000830152611fc681611f8a565b9050919050565b7f4552433732313a20696e76616c696420746f6b656e2049440000000000000000600082015250565b6000612003601883611844565b915061200e82611fcd565b602082019050919050565b6000602082019050818103600083015261203281611ff6565b9050919050565b7f4552433732313a2061646472657373207a65726f206973206e6f74206120766160008201527f6c6964206f776e65720000000000000000000000000000000000000000000000602082015250565b6000612095602983611844565b91506120a082612039565b604082019050919050565b600060208201905081810360008301526120c481612088565b9050919050565b600081905092915050565b60006120e182611839565b6120eb81856120cb565b93506120fb818560208601611855565b80840191505092915050565b600061211382856120d6565b915061211f82846120d6565b91508190509392505050565b7f4552433732313a207472616e736665722063616c6c6572206973206e6f74206f60008201527f776e6572206e6f7220617070726f766564000000000000000000000000000000602082015250565b6000612187603183611844565b91506121928261212b565b604082019050919050565b600060208201905081810360008301526121b68161217a565b9050919050565b6121c681611ce4565b82525050565b60006020820190506121e160008301846121bd565b92915050565b7f4552433732313a207472616e736665722066726f6d20696e636f72726563742060008201527f6f776e6572000000000000000000000000000000000000000000000000000000602082015250565b6000612243602583611844565b915061224e826121e7565b604082019050919050565b6000602082019050818103600083015261227281612236565b9050919050565b7f4552433732313a207472616e7366657220746f20746865207a65726f2061646460008201527f7265737300000000000000000000000000000000000000000000000000000000602082015250565b60006122d5602483611844565b91506122e082612279565b604082019050919050565b60006020820190508181036000830152612304816122c8565b9050919050565b7f4e487b7100000000000000000000000000000000000000000000000000000000600052601160045260246000fd5b6000612345826118eb565b9150612350836118eb565b92508282039050818111156123685761236761230b565b5b92915050565b6000612379826118eb565b9150612384836118eb565b925082820190508082111561239c5761239b61230b565b5b92915050565b7f4552433732313a20617070726f766520746f2063616c6c657200000000000000600082015250565b60006123d8601983611844565b91506123e3826123a2565b602082019050919050565b60006020820190508181036000830152612407816123cb565b9050919050565b7f4552433732313a207472616e7366657220746f206e6f6e20455243373231526560008201527f63656976657220696d706c656d656e7465720000000000000000000000000000602082015250565b600061246a603283611844565b91506124758261240e565b604082019050919050565b600060208201905081810360008301526124998161245d565b9050919050565b600081519050919050565b600082825260208201905092915050565b60006124c7826124a0565b6124d181856124ab565b93506124e1818560208601611855565b6124ea8161187f565b840191505092915050565b600060808201905061250a6000830187611980565b6125176020830186611980565b6125246040830185611a96565b818103606083015261253681846124bc565b905095945050505050565b600081519050612550816117aa565b92915050565b60006020828403121561256c5761256b611774565b5b600061257a84828501612541565b91505092915050565b600061258e826118eb565b91507fffffffffffffffffffffffffffffffffffffffffffffffffffffffffffffffff82036125c0576125bf61230b565b5b600182019050919050565b7f4e487b7100000000000000000000000000000000000000000000000000000000600052601260045260246000fd5b6000612605826118eb565b9150612610836118eb565b9250826126205761261f6125cb565b5b828204905092915050565b6000612636826118eb565b9150612641836118eb565b925082612651576126506125cb565b5b828206905092915050565b7f4e487b7100000000000000000000000000000000000000000000000000000000600052603260045260246000fdfea2646970667358221220cfe9d01713a48917a46599c02ec9f2aed205375623231e4535e136eeb6c9a07664736f6c63430008110033",
  "immutableReferences": {},
  "source": "// SPDX-License-Identifier: MIT\npragma solidity >=0.4.22 <0.9.0;\n\nimport \"@openzeppelin/contracts/token/ERC721/extensions/ERC721URIStorage.sol\";\nimport \"./IERC4907.sol\";\n\ncontract ERC4907 is ERC721URIStorage, IERC4907 {\n  struct UserInfo {\n    address user; // address of user role\n    uint64 expires; // unix timestamp, user expires\n  }\n\n  mapping(uint256 => UserInfo) internal _users;\n\n  constructor(string memory name_, string memory symbol_) ERC721(name_, symbol_) {}\n\n  /// @notice set the user and expires of a NFT\n  /// @dev The zero address indicates there is no user\n  /// Throws if `tokenId` is not valid NFT\n  /// @param user  The new user of the NFT\n  /// @param expires  UNIX timestamp, The new user could use the NFT before expires\n  function setUser(\n    uint256 tokenId,\n    address user,\n    uint64 expires\n  ) public virtual override {\n    require(\n      _isApprovedOrOwner(msg.sender, tokenId),\n      \"ERC721: transfer caller is not owner nor approved\"\n    );\n    UserInfo storage info = _users[tokenId];\n    info.user = user;\n    info.expires = expires;\n    emit UpdateUser(tokenId, user, expires);\n  }\n\n  /// @notice Get the user address of an NFT\n  /// @dev The zero address indicates that there is no user or the user is expired\n  /// @param tokenId The NFT to get the user address for\n  /// @return The user address for this NFT\n  function userOf(uint256 tokenId)\n    public\n    view\n    virtual\n    override\n    returns (address)\n  {\n    if (uint256(_users[tokenId].expires) >= block.timestamp) {\n      return _users[tokenId].user;\n    } else {\n      return address(0);\n    }\n  }\n\n  /// @notice Get the user expires of an NFT\n  /// @dev The zero value indicates that there is no user\n  /// @param tokenId The NFT to get the user expires for\n  /// @return The user expires for this NFT\n  function userExpires(uint256 tokenId)\n      public\n      view\n      virtual\n      override\n      returns (uint256)\n  {\n      return _users[tokenId].expires;\n  }\n\n  /// @dev See {IERC165-supportsInterface}.\n  function supportsInterface(bytes4 interfaceId)\n    public\n    view\n    virtual\n    override\n    returns (bool)\n  {\n    return\n      interfaceId == type(IERC4907).interfaceId ||\n      super.supportsInterface(interfaceId);\n  }\n\n}",
  "sourcePath": "/home/yan/solidity/fcc/rentableNFT/contracts/ERC4907.sol",
  "compiler": {
    "name": "solc",
    "version": "0.8.17+commit.8df45f5f.Emscripten.clang"
  },
  "schemaVersion": "3.4.8",
  "updatedAt": "2022-09-10T19:19:34.388Z",
  "devdoc": {
    "kind": "dev",
    "methods": {
      "approve(address,uint256)": {
        "details": "See {IERC721-approve}."
      },
      "balanceOf(address)": {
        "details": "See {IERC721-balanceOf}."
      },
      "getApproved(uint256)": {
        "details": "See {IERC721-getApproved}."
      },
      "isApprovedForAll(address,address)": {
        "details": "See {IERC721-isApprovedForAll}."
      },
      "name()": {
        "details": "See {IERC721Metadata-name}."
      },
      "ownerOf(uint256)": {
        "details": "See {IERC721-ownerOf}."
      },
      "safeTransferFrom(address,address,uint256)": {
        "details": "See {IERC721-safeTransferFrom}."
      },
      "safeTransferFrom(address,address,uint256,bytes)": {
        "details": "See {IERC721-safeTransferFrom}."
      },
      "setApprovalForAll(address,bool)": {
        "details": "See {IERC721-setApprovalForAll}."
      },
      "setUser(uint256,address,uint64)": {
        "details": "The zero address indicates there is no user Throws if `tokenId` is not valid NFT",
        "params": {
          "expires": "UNIX timestamp, The new user could use the NFT before expires",
          "user": "The new user of the NFT"
        }
      },
      "supportsInterface(bytes4)": {
        "details": "See {IERC165-supportsInterface}."
      },
      "symbol()": {
        "details": "See {IERC721Metadata-symbol}."
      },
      "tokenURI(uint256)": {
        "details": "See {IERC721Metadata-tokenURI}."
      },
      "transferFrom(address,address,uint256)": {
        "details": "See {IERC721-transferFrom}."
      },
      "userExpires(uint256)": {
        "details": "The zero value indicates that there is no user",
        "params": {
          "tokenId": "The NFT to get the user expires for"
        },
        "returns": {
          "_0": "The user expires for this NFT"
        }
      },
      "userOf(uint256)": {
        "details": "The zero address indicates that there is no user or the user is expired",
        "params": {
          "tokenId": "The NFT to get the user address for"
        },
        "returns": {
          "_0": "The user address for this NFT"
        }
      }
    },
    "version": 1
  },
  "userdoc": {
    "events": {
      "UpdateUser(uint256,address,uint64)": {
        "notice": "Emitted when the `user` of an NFT or the `expires` of the `user` is changed The zero address for user indicates that there is no user address"
      }
    },
    "kind": "user",
    "methods": {
      "setUser(uint256,address,uint64)": {
        "notice": "set the user and expires of a NFT"
      },
      "userExpires(uint256)": {
        "notice": "Get the user expires of an NFT"
      },
      "userOf(uint256)": {
        "notice": "Get the user address of an NFT"
      }
    },
    "version": 1
  }
}