{
  "contractName": "GuestBook",
  "abi": [
    {
      "inputs": [],
      "stateMutability": "nonpayable",
      "type": "constructor"
    },
    {
      "inputs": [],
      "name": "GuestBook__NotAuthorizedToWrite",
      "type": "error"
    },
    {
      "inputs": [],
      "name": "GuestBook__NotEnoughETH",
      "type": "error"
    },
    {
      "inputs": [],
      "name": "GuestBook__WrongFinalOwner",
      "type": "error"
    },
    {
      "anonymous": false,
      "inputs": [
        {
          "indexed": true,
          "internalType": "address",
          "name": "owner",
          "type": "address"
        },
        {
          "indexed": true,
          "internalType": "address",
          "name": "approved",
          "type": "address"
        },
        {
          "indexed": true,
          "internalType": "uint256",
          "name": "tokenId",
          "type": "uint256"
        }
      ],
      "name": "Approval",
      "type": "event"
    },
    {
      "anonymous": false,
      "inputs": [
        {
          "indexed": true,
          "internalType": "address",
          "name": "owner",
          "type": "address"
        },
        {
          "indexed": true,
          "internalType": "address",
          "name": "operator",
          "type": "address"
        },
        {
          "indexed": false,
          "internalType": "bool",
          "name": "approved",
          "type": "bool"
        }
      ],
      "name": "ApprovalForAll",
      "type": "event"
    },
    {
      "anonymous": false,
      "inputs": [
        {
          "indexed": true,
          "internalType": "uint256",
          "name": "_tokenId",
          "type": "uint256"
        },
        {
          "indexed": true,
          "internalType": "address",
          "name": "_user",
          "type": "address"
        },
        {
          "indexed": true,
          "internalType": "string",
          "name": "_message",
          "type": "string"
        }
      ],
      "name": "ComplimentWritten",
      "type": "event"
    },
    {
      "anonymous": false,
      "inputs": [
        {
          "indexed": true,
          "internalType": "uint256",
          "name": "_tokenId",
          "type": "uint256"
        },
        {
          "indexed": false,
          "internalType": "string",
          "name": "_tokenURI",
          "type": "string"
        },
        {
          "indexed": true,
          "internalType": "address",
          "name": "_finalOwner",
          "type": "address"
        }
      ],
      "name": "NewGuestBook",
      "type": "event"
    },
    {
      "anonymous": false,
      "inputs": [
        {
          "indexed": true,
          "internalType": "address",
          "name": "from",
          "type": "address"
        },
        {
          "indexed": true,
          "internalType": "address",
          "name": "to",
          "type": "address"
        },
        {
          "indexed": true,
          "internalType": "uint256",
          "name": "tokenId",
          "type": "uint256"
        }
      ],
      "name": "Transfer",
      "type": "event"
    },
    {
      "anonymous": false,
      "inputs": [
        {
          "indexed": true,
          "internalType": "uint256",
          "name": "tokenId",
          "type": "uint256"
        },
        {
          "indexed": true,
          "internalType": "address",
          "name": "user",
          "type": "address"
        },
        {
          "indexed": false,
          "internalType": "uint64",
          "name": "expires",
          "type": "uint64"
        }
      ],
      "name": "UpdateUser",
      "type": "event"
    },
    {
      "inputs": [
        {
          "internalType": "address",
          "name": "to",
          "type": "address"
        },
        {
          "internalType": "uint256",
          "name": "tokenId",
          "type": "uint256"
        }
      ],
      "name": "approve",
      "outputs": [],
      "stateMutability": "nonpayable",
      "type": "function"
    },
    {
      "inputs": [
        {
          "internalType": "address",
          "name": "owner",
          "type": "address"
        }
      ],
      "name": "balanceOf",
      "outputs": [
        {
          "internalType": "uint256",
          "name": "",
          "type": "uint256"
        }
      ],
      "stateMutability": "view",
      "type": "function"
    },
    {
      "inputs": [
        {
          "internalType": "uint256",
          "name": "",
          "type": "uint256"
        }
      ],
      "name": "compliments",
      "outputs": [
        {
          "internalType": "string",
          "name": "",
          "type": "string"
        }
      ],
      "stateMutability": "view",
      "type": "function"
    },
    {
      "inputs": [
        {
          "internalType": "uint256",
          "name": "",
          "type": "uint256"
        }
      ],
      "name": "finalOwner",
      "outputs": [
        {
          "internalType": "address",
          "name": "",
          "type": "address"
        }
      ],
      "stateMutability": "view",
      "type": "function"
    },
    {
      "inputs": [
        {
          "internalType": "uint256",
          "name": "tokenId",
          "type": "uint256"
        }
      ],
      "name": "getApproved",
      "outputs": [
        {
          "internalType": "address",
          "name": "",
          "type": "address"
        }
      ],
      "stateMutability": "view",
      "type": "function"
    },
    {
      "inputs": [
        {
          "internalType": "address",
          "name": "owner",
          "type": "address"
        },
        {
          "internalType": "address",
          "name": "operator",
          "type": "address"
        }
      ],
      "name": "isApprovedForAll",
      "outputs": [
        {
          "internalType": "bool",
          "name": "",
          "type": "bool"
        }
      ],
      "stateMutability": "view",
      "type": "function"
    },
    {
      "inputs": [],
      "name": "name",
      "outputs": [
        {
          "internalType": "string",
          "name": "",
          "type": "string"
        }
      ],
      "stateMutability": "view",
      "type": "function"
    },
    {
      "inputs": [
        {
          "internalType": "uint256",
          "name": "tokenId",
          "type": "uint256"
        }
      ],
      "name": "ownerOf",
      "outputs": [
        {
          "internalType": "address",
          "name": "",
          "type": "address"
        }
      ],
      "stateMutability": "view",
      "type": "function"
    },
    {
      "inputs": [
        {
          "internalType": "address",
          "name": "operator",
          "type": "address"
        },
        {
          "internalType": "bool",
          "name": "approved",
          "type": "bool"
        }
      ],
      "name": "setApprovalForAll",
      "outputs": [],
      "stateMutability": "nonpayable",
      "type": "function"
    },
    {
      "inputs": [
        {
          "internalType": "uint256",
          "name": "tokenId",
          "type": "uint256"
        },
        {
          "internalType": "address",
          "name": "user",
          "type": "address"
        },
        {
          "internalType": "uint64",
          "name": "expires",
          "type": "uint64"
        }
      ],
      "name": "setUser",
      "outputs": [],
      "stateMutability": "nonpayable",
      "type": "function"
    },
    {
      "inputs": [],
      "name": "symbol",
      "outputs": [
        {
          "internalType": "string",
          "name": "",
          "type": "string"
        }
      ],
      "stateMutability": "view",
      "type": "function"
    },
    {
      "inputs": [
        {
          "internalType": "uint256",
          "name": "tokenId",
          "type": "uint256"
        }
      ],
      "name": "tokenURI",
      "outputs": [
        {
          "internalType": "string",
          "name": "",
          "type": "string"
        }
      ],
      "stateMutability": "view",
      "type": "function"
    },
    {
      "inputs": [
        {
          "internalType": "uint256",
          "name": "tokenId",
          "type": "uint256"
        }
      ],
      "name": "userExpires",
      "outputs": [
        {
          "internalType": "uint256",
          "name": "",
          "type": "uint256"
        }
      ],
      "stateMutability": "view",
      "type": "function"
    },
    {
      "inputs": [
        {
          "internalType": "uint256",
          "name": "tokenId",
          "type": "uint256"
        }
      ],
      "name": "userOf",
      "outputs": [
        {
          "internalType": "address",
          "name": "",
          "type": "address"
        }
      ],
      "stateMutability": "view",
      "type": "function"
    },
    {
      "inputs": [
        {
          "internalType": "string",
          "name": "_tokenURI",
          "type": "string"
        },
        {
          "internalType": "address",
          "name": "_finalOwner",
          "type": "address"
        }
      ],
      "name": "mintNft",
      "outputs": [
        {
          "internalType": "uint256",
          "name": "",
          "type": "uint256"
        }
      ],
      "stateMutability": "payable",
      "type": "function"
    },
    {
      "inputs": [
        {
          "internalType": "uint256",
          "name": "tokenId",
          "type": "uint256"
        },
        {
          "internalType": "string",
          "name": "_message",
          "type": "string"
        }
      ],
      "name": "writeCompliment",
      "outputs": [],
      "stateMutability": "nonpayable",
      "type": "function"
    },
    {
      "inputs": [
        {
          "internalType": "address",
          "name": "from",
          "type": "address"
        },
        {
          "internalType": "address",
          "name": "to",
          "type": "address"
        },
        {
          "internalType": "uint256",
          "name": "tokenId",
          "type": "uint256"
        }
      ],
      "name": "transferFrom",
      "outputs": [],
      "stateMutability": "nonpayable",
      "type": "function"
    },
    {
      "inputs": [
        {
          "internalType": "address",
          "name": "from",
          "type": "address"
        },
        {
          "internalType": "address",
          "name": "to",
          "type": "address"
        },
        {
          "internalType": "uint256",
          "name": "tokenId",
          "type": "uint256"
        }
      ],
      "name": "safeTransferFrom",
      "outputs": [],
      "stateMutability": "nonpayable",
      "type": "function"
    },
    {
      "inputs": [
        {
          "internalType": "address",
          "name": "from",
          "type": "address"
        },
        {
          "internalType": "address",
          "name": "to",
          "type": "address"
        },
        {
          "internalType": "uint256",
          "name": "tokenId",
          "type": "uint256"
        },
        {
          "internalType": "bytes",
          "name": "data",
          "type": "bytes"
        }
      ],
      "name": "safeTransferFrom",
      "outputs": [],
      "stateMutability": "nonpayable",
      "type": "function"
    },
    {
      "inputs": [
        {
          "internalType": "bytes4",
          "name": "interfaceId",
          "type": "bytes4"
        }
      ],
      "name": "supportsInterface",
      "outputs": [
        {
          "internalType": "bool",
          "name": "",
          "type": "bool"
        }
      ],
      "stateMutability": "view",
      "type": "function"
    }
  ],
  "bytecode": "0x60806040523480156200001157600080fd5b506040518060400160405280600981526020017f4775657374426f6f6b00000000000000000000000000000000000000000000008152506040518060400160405280600281526020017f47420000000000000000000000000000000000000000000000000000000000008152508181816000908162000091919062000328565b508060019081620000a3919062000328565b50505050506200040f565b600081519050919050565b7f4e487b7100000000000000000000000000000000000000000000000000000000600052604160045260246000fd5b7f4e487b7100000000000000000000000000000000000000000000000000000000600052602260045260246000fd5b600060028204905060018216806200013057607f821691505b602082108103620001465762000145620000e8565b5b50919050565b60008190508160005260206000209050919050565b60006020601f8301049050919050565b600082821b905092915050565b600060088302620001b07fffffffffffffffffffffffffffffffffffffffffffffffffffffffffffffffff8262000171565b620001bc868362000171565b95508019841693508086168417925050509392505050565b6000819050919050565b6000819050919050565b60006200020962000203620001fd84620001d4565b620001de565b620001d4565b9050919050565b6000819050919050565b6200022583620001e8565b6200023d620002348262000210565b8484546200017e565b825550505050565b600090565b6200025462000245565b620002618184846200021a565b505050565b5b8181101562000289576200027d6000826200024a565b60018101905062000267565b5050565b601f821115620002d857620002a2816200014c565b620002ad8462000161565b81016020851015620002bd578190505b620002d5620002cc8562000161565b83018262000266565b50505b505050565b600082821c905092915050565b6000620002fd60001984600802620002dd565b1980831691505092915050565b6000620003188383620002ea565b9150826002028217905092915050565b6200033382620000ae565b67ffffffffffffffff8111156200034f576200034e620000b9565b5b6200035b825462000117565b620003688282856200028d565b600060209050601f831160018114620003a057600084156200038b578287015190505b6200039785826200030a565b86555062000407565b601f198416620003b0866200014c565b60005b82811015620003da57848901518255600182019150602085019450602081019050620003b3565b86831015620003fa5784890151620003f6601f891682620002ea565b8355505b6001600288020188555050505b505050505050565b6134c3806200041f6000396000f3fe60806040526004361061011f5760003560e01c806390dbd6b1116100a0578063c2f1f14a11610064578063c2f1f14a1461040e578063c87b56dd1461044b578063e030565e14610488578063e0460d94146104b1578063e985e9c5146104ee5761011f565b806390dbd6b11461032b57806395d89b4114610354578063a22cb4651461037f578063a44f5d55146103a8578063b88d4fde146103e55761011f565b806323b872dd116100e757806323b872dd1461022257806342842e0e1461024b5780636352211e1461027457806370a08231146102b15780638fc88c48146102ee5761011f565b806301ffc9a71461012457806306fdde0314610161578063081812fc1461018c578063095ea7b3146101c95780631c8b45c3146101f2575b600080fd5b34801561013057600080fd5b5061014b60048036038101906101469190612080565b61052b565b60405161015891906120c8565b60405180910390f35b34801561016d57600080fd5b5061017661053d565b6040516101839190612173565b60405180910390f35b34801561019857600080fd5b506101b360048036038101906101ae91906121cb565b6105cf565b6040516101c09190612239565b60405180910390f35b3480156101d557600080fd5b506101f060048036038101906101eb9190612280565b610615565b005b61020c600480360381019061020791906123f5565b61072c565b6040516102199190612460565b60405180910390f35b34801561022e57600080fd5b506102496004803603810190610244919061247b565b6107f0565b005b34801561025757600080fd5b50610272600480360381019061026d919061247b565b610898565b005b34801561028057600080fd5b5061029b600480360381019061029691906121cb565b610940565b6040516102a89190612239565b60405180910390f35b3480156102bd57600080fd5b506102d860048036038101906102d391906124ce565b6109f1565b6040516102e59190612460565b60405180910390f35b3480156102fa57600080fd5b50610315600480360381019061031091906121cb565b610aa8565b6040516103229190612460565b60405180910390f35b34801561033757600080fd5b50610352600480360381019061034d91906124fb565b610ae6565b005b34801561036057600080fd5b50610369610be6565b6040516103769190612173565b60405180910390f35b34801561038b57600080fd5b506103a660048036038101906103a19190612583565b610c78565b005b3480156103b457600080fd5b506103cf60048036038101906103ca91906121cb565b610c8e565b6040516103dc9190612173565b60405180910390f35b3480156103f157600080fd5b5061040c60048036038101906104079190612664565b610d3a565b005b34801561041a57600080fd5b50610435600480360381019061043091906121cb565b610d9c565b6040516104429190612239565b60405180910390f35b34801561045757600080fd5b50610472600480360381019061046d91906121cb565b610e21565b60405161047f9190612173565b60405180910390f35b34801561049457600080fd5b506104af60048036038101906104aa9190612727565b610f33565b005b3480156104bd57600080fd5b506104d860048036038101906104d391906121cb565b611056565b6040516104e59190612239565b60405180910390f35b3480156104fa57600080fd5b506105156004803603810190610510919061277a565b611089565b60405161052291906120c8565b60405180910390f35b60006105368261111d565b9050919050565b60606000805461054c906127e9565b80601f0160208091040260200160405190810160405280929190818152602001828054610578906127e9565b80156105c55780601f1061059a576101008083540402835291602001916105c5565b820191906000526020600020905b8154815290600101906020018083116105a857829003601f168201915b5050505050905090565b60006105da82611197565b6004600083815260200190815260200160002060009054906101000a900473ffffffffffffffffffffffffffffffffffffffff169050919050565b600061062082610940565b90508073ffffffffffffffffffffffffffffffffffffffff168373ffffffffffffffffffffffffffffffffffffffff1603610690576040517f08c379a00000000000000000000000000000000000000000000000000000000081526004016106879061288c565b60405180910390fd5b8073ffffffffffffffffffffffffffffffffffffffff166106af6111e2565b73ffffffffffffffffffffffffffffffffffffffff1614806106de57506106dd816106d86111e2565b611089565b5b61071d576040517f08c379a00000000000000000000000000000000000000000000000000000000081526004016107149061291e565b60405180910390fd5b61072783836111ea565b505050565b600060b43411610768576040517f467cff4400000000000000000000000000000000000000000000000000000000815260040160405180910390fd5b61077260086112a3565b600061077e60086112b9565b905082600a600083815260200190815260200160002060006101000a81548173ffffffffffffffffffffffffffffffffffffffff021916908373ffffffffffffffffffffffffffffffffffffffff1602179055506107dc33826112c7565b6107e681856112e5565b8091505092915050565b600a600082815260200190815260200160002060009054906101000a900473ffffffffffffffffffffffffffffffffffffffff1673ffffffffffffffffffffffffffffffffffffffff168273ffffffffffffffffffffffffffffffffffffffff1614610888576040517f31162d7900000000000000000000000000000000000000000000000000000000815260040160405180910390fd5b610893838383611352565b505050565b600a600082815260200190815260200160002060009054906101000a900473ffffffffffffffffffffffffffffffffffffffff1673ffffffffffffffffffffffffffffffffffffffff168273ffffffffffffffffffffffffffffffffffffffff1614610930576040517f31162d7900000000000000000000000000000000000000000000000000000000815260040160405180910390fd5b61093b8383836113b2565b505050565b6000806002600084815260200190815260200160002060009054906101000a900473ffffffffffffffffffffffffffffffffffffffff169050600073ffffffffffffffffffffffffffffffffffffffff168173ffffffffffffffffffffffffffffffffffffffff16036109e8576040517f08c379a00000000000000000000000000000000000000000000000000000000081526004016109df9061298a565b60405180910390fd5b80915050919050565b60008073ffffffffffffffffffffffffffffffffffffffff168273ffffffffffffffffffffffffffffffffffffffff1603610a61576040517f08c379a0000000000000000000000000000000000000000000000000000000008152600401610a5890612a1c565b60405180910390fd5b600360008373ffffffffffffffffffffffffffffffffffffffff1673ffffffffffffffffffffffffffffffffffffffff168152602001908152602001600020549050919050565b60006007600083815260200190815260200160002060000160149054906101000a900467ffffffffffffffff1667ffffffffffffffff169050919050565b610aef82610d9c565b73ffffffffffffffffffffffffffffffffffffffff163373ffffffffffffffffffffffffffffffffffffffff1614610b53576040517f8c5596a900000000000000000000000000000000000000000000000000000000815260040160405180910390fd5b600981908060018154018082558091505060019003906000526020600020016000909190919091509081610b879190612be8565b5080604051610b969190612cf6565b60405180910390203373ffffffffffffffffffffffffffffffffffffffff16837ffb7d95960d4ff923b3fe16aecbbd6e598f9ef50e4a3da6cf3877993386488ad860405160405180910390a45050565b606060018054610bf5906127e9565b80601f0160208091040260200160405190810160405280929190818152602001828054610c21906127e9565b8015610c6e5780601f10610c4357610100808354040283529160200191610c6e565b820191906000526020600020905b815481529060010190602001808311610c5157829003601f168201915b5050505050905090565b610c8a610c836111e2565b83836113d2565b5050565b60098181548110610c9e57600080fd5b906000526020600020016000915090508054610cb9906127e9565b80601f0160208091040260200160405190810160405280929190818152602001828054610ce5906127e9565b8015610d325780601f10610d0757610100808354040283529160200191610d32565b820191906000526020600020905b815481529060010190602001808311610d1557829003601f168201915b505050505081565b610d4b610d456111e2565b8361153e565b610d8a576040517f08c379a0000000000000000000000000000000000000000000000000000000008152600401610d8190612d7f565b60405180910390fd5b610d96848484846115d3565b50505050565b6000426007600084815260200190815260200160002060000160149054906101000a900467ffffffffffffffff1667ffffffffffffffff1610610e17576007600083815260200190815260200160002060000160009054906101000a900473ffffffffffffffffffffffffffffffffffffffff169050610e1c565b600090505b919050565b6060610e2c82611197565b6000600660008481526020019081526020016000208054610e4c906127e9565b80601f0160208091040260200160405190810160405280929190818152602001828054610e78906127e9565b8015610ec55780601f10610e9a57610100808354040283529160200191610ec5565b820191906000526020600020905b815481529060010190602001808311610ea857829003601f168201915b505050505090506000610ed661162f565b90506000815103610eeb578192505050610f2e565b600082511115610f20578082604051602001610f08929190612d9f565b60405160208183030381529060405292505050610f2e565b610f2984611646565b925050505b919050565b610f3d338461153e565b610f7c576040517f08c379a0000000000000000000000000000000000000000000000000000000008152600401610f7390612e35565b60405180910390fd5b6000600760008581526020019081526020016000209050828160000160006101000a81548173ffffffffffffffffffffffffffffffffffffffff021916908373ffffffffffffffffffffffffffffffffffffffff160217905550818160000160146101000a81548167ffffffffffffffff021916908367ffffffffffffffff1602179055508273ffffffffffffffffffffffffffffffffffffffff16847f4e06b4e7000e659094299b3533b47b6aa8ad048e95e872d23d1f4ee55af89cfe846040516110489190612e64565b60405180910390a350505050565b600a6020528060005260406000206000915054906101000a900473ffffffffffffffffffffffffffffffffffffffff1681565b6000600560008473ffffffffffffffffffffffffffffffffffffffff1673ffffffffffffffffffffffffffffffffffffffff16815260200190815260200160002060008373ffffffffffffffffffffffffffffffffffffffff1673ffffffffffffffffffffffffffffffffffffffff16815260200190815260200160002060009054906101000a900460ff16905092915050565b60007fad092b5c000000000000000000000000000000000000000000000000000000007bffffffffffffffffffffffffffffffffffffffffffffffffffffffff1916827bffffffffffffffffffffffffffffffffffffffffffffffffffffffff19161480611190575061118f826116ae565b5b9050919050565b6111a081611790565b6111df576040517f08c379a00000000000000000000000000000000000000000000000000000000081526004016111d69061298a565b60405180910390fd5b50565b600033905090565b816004600083815260200190815260200160002060006101000a81548173ffffffffffffffffffffffffffffffffffffffff021916908373ffffffffffffffffffffffffffffffffffffffff160217905550808273ffffffffffffffffffffffffffffffffffffffff1661125d83610940565b73ffffffffffffffffffffffffffffffffffffffff167f8c5be1e5ebec7d5bd14f71427d1e84f3dd0314c0f7b2291e5b200ac8c7c3b92560405160405180910390a45050565b6001816000016000828254019250508190555050565b600081600001549050919050565b6112e18282604051806020016040528060008152506117fc565b5050565b6112ee82611790565b61132d576040517f08c379a000000000000000000000000000000000000000000000000000000000815260040161132490612ef1565b60405180910390fd5b8060066000848152602001908152602001600020908161134d9190612be8565b505050565b61136361135d6111e2565b8261153e565b6113a2576040517f08c379a000000000000000000000000000000000000000000000000000000000815260040161139990612d7f565b60405180910390fd5b6113ad838383611857565b505050565b6113cd83838360405180602001604052806000815250610d3a565b505050565b8173ffffffffffffffffffffffffffffffffffffffff168373ffffffffffffffffffffffffffffffffffffffff1603611440576040517f08c379a000000000000000000000000000000000000000000000000000000000815260040161143790612f5d565b60405180910390fd5b80600560008573ffffffffffffffffffffffffffffffffffffffff1673ffffffffffffffffffffffffffffffffffffffff16815260200190815260200160002060008473ffffffffffffffffffffffffffffffffffffffff1673ffffffffffffffffffffffffffffffffffffffff16815260200190815260200160002060006101000a81548160ff0219169083151502179055508173ffffffffffffffffffffffffffffffffffffffff168373ffffffffffffffffffffffffffffffffffffffff167f17307eab39ab6107e8899845ad3d59bd9653f200f220920489ca2b5937696c318360405161153191906120c8565b60405180910390a3505050565b60008061154a83610940565b90508073ffffffffffffffffffffffffffffffffffffffff168473ffffffffffffffffffffffffffffffffffffffff16148061158c575061158b8185611089565b5b806115ca57508373ffffffffffffffffffffffffffffffffffffffff166115b2846105cf565b73ffffffffffffffffffffffffffffffffffffffff16145b91505092915050565b6115de848484611857565b6115ea84848484611abd565b611629576040517f08c379a000000000000000000000000000000000000000000000000000000000815260040161162090612fef565b60405180910390fd5b50505050565b606060405180602001604052806000815250905090565b606061165182611197565b600061165b61162f565b9050600081511161167b57604051806020016040528060008152506116a6565b8061168584611c44565b604051602001611696929190612d9f565b6040516020818303038152906040525b915050919050565b60007f80ac58cd000000000000000000000000000000000000000000000000000000007bffffffffffffffffffffffffffffffffffffffffffffffffffffffff1916827bffffffffffffffffffffffffffffffffffffffffffffffffffffffff1916148061177957507f5b5e139f000000000000000000000000000000000000000000000000000000007bffffffffffffffffffffffffffffffffffffffffffffffffffffffff1916827bffffffffffffffffffffffffffffffffffffffffffffffffffffffff1916145b80611789575061178882611da4565b5b9050919050565b60008073ffffffffffffffffffffffffffffffffffffffff166002600084815260200190815260200160002060009054906101000a900473ffffffffffffffffffffffffffffffffffffffff1673ffffffffffffffffffffffffffffffffffffffff1614159050919050565b6118068383611e0e565b6118136000848484611abd565b611852576040517f08c379a000000000000000000000000000000000000000000000000000000000815260040161184990612fef565b60405180910390fd5b505050565b8273ffffffffffffffffffffffffffffffffffffffff1661187782610940565b73ffffffffffffffffffffffffffffffffffffffff16146118cd576040517f08c379a00000000000000000000000000000000000000000000000000000000081526004016118c490613081565b60405180910390fd5b600073ffffffffffffffffffffffffffffffffffffffff168273ffffffffffffffffffffffffffffffffffffffff160361193c576040517f08c379a000000000000000000000000000000000000000000000000000000000815260040161193390613113565b60405180910390fd5b611947838383611fe7565b6119526000826111ea565b6001600360008573ffffffffffffffffffffffffffffffffffffffff1673ffffffffffffffffffffffffffffffffffffffff16815260200190815260200160002060008282546119a29190613162565b925050819055506001600360008473ffffffffffffffffffffffffffffffffffffffff1673ffffffffffffffffffffffffffffffffffffffff16815260200190815260200160002060008282546119f99190613196565b92505081905550816002600083815260200190815260200160002060006101000a81548173ffffffffffffffffffffffffffffffffffffffff021916908373ffffffffffffffffffffffffffffffffffffffff160217905550808273ffffffffffffffffffffffffffffffffffffffff168473ffffffffffffffffffffffffffffffffffffffff167fddf252ad1be2c89b69c2b068fc378daa952ba7f163c4a11628f55a4df523b3ef60405160405180910390a4611ab8838383611fec565b505050565b6000611ade8473ffffffffffffffffffffffffffffffffffffffff16611ff1565b15611c37578373ffffffffffffffffffffffffffffffffffffffff1663150b7a02611b076111e2565b8786866040518563ffffffff1660e01b8152600401611b29949392919061321f565b6020604051808303816000875af1925050508015611b6557506040513d601f19601f82011682018060405250810190611b629190613280565b60015b611be7573d8060008114611b95576040519150601f19603f3d011682016040523d82523d6000602084013e611b9a565b606091505b506000815103611bdf576040517f08c379a0000000000000000000000000000000000000000000000000000000008152600401611bd690612fef565b60405180910390fd5b805181602001fd5b63150b7a0260e01b7bffffffffffffffffffffffffffffffffffffffffffffffffffffffff1916817bffffffffffffffffffffffffffffffffffffffffffffffffffffffff191614915050611c3c565b600190505b949350505050565b606060008203611c8b576040518060400160405280600181526020017f30000000000000000000000000000000000000000000000000000000000000008152509050611d9f565b600082905060005b60008214611cbd578080611ca6906132ad565b915050600a82611cb69190613324565b9150611c93565b60008167ffffffffffffffff811115611cd957611cd86122ca565b5b6040519080825280601f01601f191660200182016040528015611d0b5781602001600182028036833780820191505090505b5090505b60008514611d9857600182611d249190613162565b9150600a85611d339190613355565b6030611d3f9190613196565b60f81b818381518110611d5557611d54613386565b5b60200101907effffffffffffffffffffffffffffffffffffffffffffffffffffffffffffff1916908160001a905350600a85611d919190613324565b9450611d0f565b8093505050505b919050565b60007f01ffc9a7000000000000000000000000000000000000000000000000000000007bffffffffffffffffffffffffffffffffffffffffffffffffffffffff1916827bffffffffffffffffffffffffffffffffffffffffffffffffffffffff1916149050919050565b600073ffffffffffffffffffffffffffffffffffffffff168273ffffffffffffffffffffffffffffffffffffffff1603611e7d576040517f08c379a0000000000000000000000000000000000000000000000000000000008152600401611e7490613401565b60405180910390fd5b611e8681611790565b15611ec6576040517f08c379a0000000000000000000000000000000000000000000000000000000008152600401611ebd9061346d565b60405180910390fd5b611ed260008383611fe7565b6001600360008473ffffffffffffffffffffffffffffffffffffffff1673ffffffffffffffffffffffffffffffffffffffff1681526020019081526020016000206000828254611f229190613196565b92505081905550816002600083815260200190815260200160002060006101000a81548173ffffffffffffffffffffffffffffffffffffffff021916908373ffffffffffffffffffffffffffffffffffffffff160217905550808273ffffffffffffffffffffffffffffffffffffffff16600073ffffffffffffffffffffffffffffffffffffffff167fddf252ad1be2c89b69c2b068fc378daa952ba7f163c4a11628f55a4df523b3ef60405160405180910390a4611fe360008383611fec565b5050565b505050565b505050565b6000808273ffffffffffffffffffffffffffffffffffffffff163b119050919050565b6000604051905090565b600080fd5b600080fd5b60007fffffffff0000000000000000000000000000000000000000000000000000000082169050919050565b61205d81612028565b811461206857600080fd5b50565b60008135905061207a81612054565b92915050565b6000602082840312156120965761209561201e565b5b60006120a48482850161206b565b91505092915050565b60008115159050919050565b6120c2816120ad565b82525050565b60006020820190506120dd60008301846120b9565b92915050565b600081519050919050565b600082825260208201905092915050565b60005b8381101561211d578082015181840152602081019050612102565b60008484015250505050565b6000601f19601f8301169050919050565b6000612145826120e3565b61214f81856120ee565b935061215f8185602086016120ff565b61216881612129565b840191505092915050565b6000602082019050818103600083015261218d818461213a565b905092915050565b6000819050919050565b6121a881612195565b81146121b357600080fd5b50565b6000813590506121c58161219f565b92915050565b6000602082840312156121e1576121e061201e565b5b60006121ef848285016121b6565b91505092915050565b600073ffffffffffffffffffffffffffffffffffffffff82169050919050565b6000612223826121f8565b9050919050565b61223381612218565b82525050565b600060208201905061224e600083018461222a565b92915050565b61225d81612218565b811461226857600080fd5b50565b60008135905061227a81612254565b92915050565b600080604083850312156122975761229661201e565b5b60006122a58582860161226b565b92505060206122b6858286016121b6565b9150509250929050565b600080fd5b600080fd5b7f4e487b7100000000000000000000000000000000000000000000000000000000600052604160045260246000fd5b61230282612129565b810181811067ffffffffffffffff82111715612321576123206122ca565b5b80604052505050565b6000612334612014565b905061234082826122f9565b919050565b600067ffffffffffffffff8211156123605761235f6122ca565b5b61236982612129565b9050602081019050919050565b82818337600083830152505050565b600061239861239384612345565b61232a565b9050828152602081018484840111156123b4576123b36122c5565b5b6123bf848285612376565b509392505050565b600082601f8301126123dc576123db6122c0565b5b81356123ec848260208601612385565b91505092915050565b6000806040838503121561240c5761240b61201e565b5b600083013567ffffffffffffffff81111561242a57612429612023565b5b612436858286016123c7565b92505060206124478582860161226b565b9150509250929050565b61245a81612195565b82525050565b60006020820190506124756000830184612451565b92915050565b6000806000606084860312156124945761249361201e565b5b60006124a28682870161226b565b93505060206124b38682870161226b565b92505060406124c4868287016121b6565b9150509250925092565b6000602082840312156124e4576124e361201e565b5b60006124f28482850161226b565b91505092915050565b600080604083850312156125125761251161201e565b5b6000612520858286016121b6565b925050602083013567ffffffffffffffff81111561254157612540612023565b5b61254d858286016123c7565b9150509250929050565b612560816120ad565b811461256b57600080fd5b50565b60008135905061257d81612557565b92915050565b6000806040838503121561259a5761259961201e565b5b60006125a88582860161226b565b92505060206125b98582860161256e565b9150509250929050565b600067ffffffffffffffff8211156125de576125dd6122ca565b5b6125e782612129565b9050602081019050919050565b6000612607612602846125c3565b61232a565b905082815260208101848484011115612623576126226122c5565b5b61262e848285612376565b509392505050565b600082601f83011261264b5761264a6122c0565b5b813561265b8482602086016125f4565b91505092915050565b6000806000806080858703121561267e5761267d61201e565b5b600061268c8782880161226b565b945050602061269d8782880161226b565b93505060406126ae878288016121b6565b925050606085013567ffffffffffffffff8111156126cf576126ce612023565b5b6126db87828801612636565b91505092959194509250565b600067ffffffffffffffff82169050919050565b612704816126e7565b811461270f57600080fd5b50565b600081359050612721816126fb565b92915050565b6000806000606084860312156127405761273f61201e565b5b600061274e868287016121b6565b935050602061275f8682870161226b565b925050604061277086828701612712565b9150509250925092565b600080604083850312156127915761279061201e565b5b600061279f8582860161226b565b92505060206127b08582860161226b565b9150509250929050565b7f4e487b7100000000000000000000000000000000000000000000000000000000600052602260045260246000fd5b6000600282049050600182168061280157607f821691505b602082108103612814576128136127ba565b5b50919050565b7f4552433732313a20617070726f76616c20746f2063757272656e74206f776e6560008201527f7200000000000000000000000000000000000000000000000000000000000000602082015250565b60006128766021836120ee565b91506128818261281a565b604082019050919050565b600060208201905081810360008301526128a581612869565b9050919050565b7f4552433732313a20617070726f76652063616c6c6572206973206e6f7420746f60008201527f6b656e206f776e6572206e6f7220617070726f76656420666f7220616c6c0000602082015250565b6000612908603e836120ee565b9150612913826128ac565b604082019050919050565b60006020820190508181036000830152612937816128fb565b9050919050565b7f4552433732313a20696e76616c696420746f6b656e2049440000000000000000600082015250565b60006129746018836120ee565b915061297f8261293e565b602082019050919050565b600060208201905081810360008301526129a381612967565b9050919050565b7f4552433732313a2061646472657373207a65726f206973206e6f74206120766160008201527f6c6964206f776e65720000000000000000000000000000000000000000000000602082015250565b6000612a066029836120ee565b9150612a11826129aa565b604082019050919050565b60006020820190508181036000830152612a35816129f9565b9050919050565b60008190508160005260206000209050919050565b60006020601f8301049050919050565b600082821b905092915050565b600060088302612a9e7fffffffffffffffffffffffffffffffffffffffffffffffffffffffffffffffff82612a61565b612aa88683612a61565b95508019841693508086168417925050509392505050565b6000819050919050565b6000612ae5612ae0612adb84612195565b612ac0565b612195565b9050919050565b6000819050919050565b612aff83612aca565b612b13612b0b82612aec565b848454612a6e565b825550505050565b600090565b612b28612b1b565b612b33818484612af6565b505050565b5b81811015612b5757612b4c600082612b20565b600181019050612b39565b5050565b601f821115612b9c57612b6d81612a3c565b612b7684612a51565b81016020851015612b85578190505b612b99612b9185612a51565b830182612b38565b50505b505050565b600082821c905092915050565b6000612bbf60001984600802612ba1565b1980831691505092915050565b6000612bd88383612bae565b9150826002028217905092915050565b612bf1826120e3565b67ffffffffffffffff811115612c0a57612c096122ca565b5b612c1482546127e9565b612c1f828285612b5b565b600060209050601f831160018114612c525760008415612c40578287015190505b612c4a8582612bcc565b865550612cb2565b601f198416612c6086612a3c565b60005b82811015612c8857848901518255600182019150602085019450602081019050612c63565b86831015612ca55784890151612ca1601f891682612bae565b8355505b6001600288020188555050505b505050505050565b600081905092915050565b6000612cd0826120e3565b612cda8185612cba565b9350612cea8185602086016120ff565b80840191505092915050565b6000612d028284612cc5565b915081905092915050565b7f4552433732313a2063616c6c6572206973206e6f7420746f6b656e206f776e6560008201527f72206e6f7220617070726f766564000000000000000000000000000000000000602082015250565b6000612d69602e836120ee565b9150612d7482612d0d565b604082019050919050565b60006020820190508181036000830152612d9881612d5c565b9050919050565b6000612dab8285612cc5565b9150612db78284612cc5565b91508190509392505050565b7f4552433732313a207472616e736665722063616c6c6572206973206e6f74206f60008201527f776e6572206e6f7220617070726f766564000000000000000000000000000000602082015250565b6000612e1f6031836120ee565b9150612e2a82612dc3565b604082019050919050565b60006020820190508181036000830152612e4e81612e12565b9050919050565b612e5e816126e7565b82525050565b6000602082019050612e796000830184612e55565b92915050565b7f45524337323155524953746f726167653a2055524920736574206f66206e6f6e60008201527f6578697374656e7420746f6b656e000000000000000000000000000000000000602082015250565b6000612edb602e836120ee565b9150612ee682612e7f565b604082019050919050565b60006020820190508181036000830152612f0a81612ece565b9050919050565b7f4552433732313a20617070726f766520746f2063616c6c657200000000000000600082015250565b6000612f476019836120ee565b9150612f5282612f11565b602082019050919050565b60006020820190508181036000830152612f7681612f3a565b9050919050565b7f4552433732313a207472616e7366657220746f206e6f6e20455243373231526560008201527f63656976657220696d706c656d656e7465720000000000000000000000000000602082015250565b6000612fd96032836120ee565b9150612fe482612f7d565b604082019050919050565b6000602082019050818103600083015261300881612fcc565b9050919050565b7f4552433732313a207472616e736665722066726f6d20696e636f72726563742060008201527f6f776e6572000000000000000000000000000000000000000000000000000000602082015250565b600061306b6025836120ee565b91506130768261300f565b604082019050919050565b6000602082019050818103600083015261309a8161305e565b9050919050565b7f4552433732313a207472616e7366657220746f20746865207a65726f2061646460008201527f7265737300000000000000000000000000000000000000000000000000000000602082015250565b60006130fd6024836120ee565b9150613108826130a1565b604082019050919050565b6000602082019050818103600083015261312c816130f0565b9050919050565b7f4e487b7100000000000000000000000000000000000000000000000000000000600052601160045260246000fd5b600061316d82612195565b915061317883612195565b92508282039050818111156131905761318f613133565b5b92915050565b60006131a182612195565b91506131ac83612195565b92508282019050808211156131c4576131c3613133565b5b92915050565b600081519050919050565b600082825260208201905092915050565b60006131f1826131ca565b6131fb81856131d5565b935061320b8185602086016120ff565b61321481612129565b840191505092915050565b6000608082019050613234600083018761222a565b613241602083018661222a565b61324e6040830185612451565b818103606083015261326081846131e6565b905095945050505050565b60008151905061327a81612054565b92915050565b6000602082840312156132965761329561201e565b5b60006132a48482850161326b565b91505092915050565b60006132b882612195565b91507fffffffffffffffffffffffffffffffffffffffffffffffffffffffffffffffff82036132ea576132e9613133565b5b600182019050919050565b7f4e487b7100000000000000000000000000000000000000000000000000000000600052601260045260246000fd5b600061332f82612195565b915061333a83612195565b92508261334a576133496132f5565b5b828204905092915050565b600061336082612195565b915061336b83612195565b92508261337b5761337a6132f5565b5b828206905092915050565b7f4e487b7100000000000000000000000000000000000000000000000000000000600052603260045260246000fd5b7f4552433732313a206d696e7420746f20746865207a65726f2061646472657373600082015250565b60006133eb6020836120ee565b91506133f6826133b5565b602082019050919050565b6000602082019050818103600083015261341a816133de565b9050919050565b7f4552433732313a20746f6b656e20616c7265616479206d696e74656400000000600082015250565b6000613457601c836120ee565b915061346282613421565b602082019050919050565b600060208201905081810360008301526134868161344a565b905091905056fea2646970667358221220ee9b06cad60ab67e64282b4cd2f35827a60c4fbfc4b097e4e0da3f0cc27f793364736f6c63430008110033",
  "immutableReferences": {},
  "source": "// SPDX-License-Identifier: MIT\n\npragma solidity 0.8.17;\n\nimport \"@openzeppelin/contracts/token/ERC721/extensions/ERC721URIStorage.sol\";\nimport \"@openzeppelin/contracts/utils/Counters.sol\";\nimport \"./ERC4907.sol\";\n\nerror GuestBook__NotEnoughETH();\nerror GuestBook__NotAuthorizedToWrite();\nerror GuestBook__WrongFinalOwner();\n\ncontract GuestBook is ERC721URIStorage, ERC4907 {\n  using Counters for Counters.Counter;\n  Counters.Counter private _tokenIds;\n\n  event ComplimentWritten(uint256 indexed _tokenId, address indexed _user, string indexed _message);\n  event NewGuestBook(uint256 indexed _tokenId, string _tokenURI, address indexed _finalOwner);\n\n  string[] public compliments;\n  mapping(uint256 => address) public finalOwner;\n\n  constructor() ERC4907(\"GuestBook\", \"GB\") {\n  }\n\n  function mintNft(string memory _tokenURI, address _finalOwner) payable public returns (uint256) {\n    if (msg.value <= 1*10*18) {\n      revert GuestBook__NotEnoughETH();\n    }\n    _tokenIds.increment();\n    uint256 newItemId = _tokenIds.current();\n    finalOwner[newItemId] = _finalOwner;\n    _safeMint(msg.sender, newItemId);\n    _setTokenURI(newItemId, _tokenURI);\n    return newItemId;\n    emit NewGuestBook(newItemId, _tokenURI, _finalOwner);\n  }\n\n  function writeCompliment(uint256 tokenId, string memory _message) external {\n    if (msg.sender != userOf(tokenId)) {\n      revert GuestBook__NotAuthorizedToWrite();\n    }\n    compliments.push(_message);\n    emit ComplimentWritten(tokenId, msg.sender, _message);\n  }\n\n  function transferFrom(address from, address to, uint256 tokenId) public override {\n    if (to != finalOwner[tokenId]) {\n      revert GuestBook__WrongFinalOwner();\n    }\n    super.transferFrom(from, to, tokenId);\n  }\n\n function safeTransferFrom(address from, address to, uint256 tokenId) public override {\n    if (to != finalOwner[tokenId]) {\n      revert GuestBook__WrongFinalOwner();\n    }\n    super.safeTransferFrom(from, to, tokenId);\n  }\n\n  function supportsInterface(bytes4 interfaceId) public view virtual override(ERC721, ERC4907) returns (bool) {\n    return super.supportsInterface(interfaceId);\n  }\n\n}\n",
  "sourcePath": "/home/yan/solidity/fcc/rentableNFT/contracts/GuestBook.sol",
  "compiler": {
    "name": "solc",
    "version": "0.8.17+commit.8df45f5f.Emscripten.clang"
  },
  "schemaVersion": "3.4.8",
  "updatedAt": "2022-09-10T19:19:34.431Z",
  "devdoc": {
    "kind": "dev",
    "methods": {
      "approve(address,uint256)": {
        "details": "See {IERC721-approve}."
      },
      "balanceOf(address)": {
        "details": "See {IERC721-balanceOf}."
      },
      "getApproved(uint256)": {
        "details": "See {IERC721-getApproved}."
      },
      "isApprovedForAll(address,address)": {
        "details": "See {IERC721-isApprovedForAll}."
      },
      "name()": {
        "details": "See {IERC721Metadata-name}."
      },
      "ownerOf(uint256)": {
        "details": "See {IERC721-ownerOf}."
      },
      "safeTransferFrom(address,address,uint256)": {
        "details": "See {IERC721-safeTransferFrom}."
      },
      "safeTransferFrom(address,address,uint256,bytes)": {
        "details": "See {IERC721-safeTransferFrom}."
      },
      "setApprovalForAll(address,bool)": {
        "details": "See {IERC721-setApprovalForAll}."
      },
      "setUser(uint256,address,uint64)": {
        "details": "The zero address indicates there is no user Throws if `tokenId` is not valid NFT",
        "params": {
          "expires": "UNIX timestamp, The new user could use the NFT before expires",
          "user": "The new user of the NFT"
        }
      },
      "symbol()": {
        "details": "See {IERC721Metadata-symbol}."
      },
      "tokenURI(uint256)": {
        "details": "See {IERC721Metadata-tokenURI}."
      },
      "transferFrom(address,address,uint256)": {
        "details": "See {IERC721-transferFrom}."
      },
      "userExpires(uint256)": {
        "details": "The zero value indicates that there is no user",
        "params": {
          "tokenId": "The NFT to get the user expires for"
        },
        "returns": {
          "_0": "The user expires for this NFT"
        }
      },
      "userOf(uint256)": {
        "details": "The zero address indicates that there is no user or the user is expired",
        "params": {
          "tokenId": "The NFT to get the user address for"
        },
        "returns": {
          "_0": "The user address for this NFT"
        }
      }
    },
    "version": 1
  },
  "userdoc": {
    "events": {
      "UpdateUser(uint256,address,uint64)": {
        "notice": "Emitted when the `user` of an NFT or the `expires` of the `user` is changed The zero address for user indicates that there is no user address"
      }
    },
    "kind": "user",
    "methods": {
      "setUser(uint256,address,uint64)": {
        "notice": "set the user and expires of a NFT"
      },
      "userExpires(uint256)": {
        "notice": "Get the user expires of an NFT"
      },
      "userOf(uint256)": {
        "notice": "Get the user address of an NFT"
      }
    },
    "version": 1
  }
}