{
  "contractName": "GuestBook",
  "abi": [
    {
      "inputs": [],
      "stateMutability": "nonpayable",
      "type": "constructor"
    },
    {
      "inputs": [],
      "name": "GuestBook__NotAuthorizedToWrite",
      "type": "error"
    },
    {
      "inputs": [],
      "name": "GuestBook__NotEnoughETH",
      "type": "error"
    },
    {
      "inputs": [],
      "name": "GuestBook__WithdrawFailed",
      "type": "error"
    },
    {
      "inputs": [],
      "name": "GuestBook__WrongFinalOwner",
      "type": "error"
    },
    {
      "anonymous": false,
      "inputs": [
        {
          "indexed": true,
          "internalType": "address",
          "name": "owner",
          "type": "address"
        },
        {
          "indexed": true,
          "internalType": "address",
          "name": "approved",
          "type": "address"
        },
        {
          "indexed": true,
          "internalType": "uint256",
          "name": "tokenId",
          "type": "uint256"
        }
      ],
      "name": "Approval",
      "type": "event"
    },
    {
      "anonymous": false,
      "inputs": [
        {
          "indexed": true,
          "internalType": "address",
          "name": "owner",
          "type": "address"
        },
        {
          "indexed": true,
          "internalType": "address",
          "name": "operator",
          "type": "address"
        },
        {
          "indexed": false,
          "internalType": "bool",
          "name": "approved",
          "type": "bool"
        }
      ],
      "name": "ApprovalForAll",
      "type": "event"
    },
    {
      "anonymous": false,
      "inputs": [
        {
          "indexed": true,
          "internalType": "uint256",
          "name": "_tokenId",
          "type": "uint256"
        },
        {
          "indexed": true,
          "internalType": "address",
          "name": "_user",
          "type": "address"
        },
        {
          "indexed": true,
          "internalType": "string",
          "name": "_message",
          "type": "string"
        }
      ],
      "name": "ComplimentWritten",
      "type": "event"
    },
    {
      "anonymous": false,
      "inputs": [
        {
          "indexed": true,
          "internalType": "uint256",
          "name": "_tokenId",
          "type": "uint256"
        },
        {
          "indexed": false,
          "internalType": "string",
          "name": "_tokenURI",
          "type": "string"
        },
        {
          "indexed": true,
          "internalType": "address",
          "name": "_finalOwner",
          "type": "address"
        }
      ],
      "name": "NewGuestBook",
      "type": "event"
    },
    {
      "anonymous": false,
      "inputs": [
        {
          "indexed": true,
          "internalType": "address",
          "name": "previousOwner",
          "type": "address"
        },
        {
          "indexed": true,
          "internalType": "address",
          "name": "newOwner",
          "type": "address"
        }
      ],
      "name": "OwnershipTransferred",
      "type": "event"
    },
    {
      "anonymous": false,
      "inputs": [
        {
          "indexed": true,
          "internalType": "address",
          "name": "from",
          "type": "address"
        },
        {
          "indexed": true,
          "internalType": "address",
          "name": "to",
          "type": "address"
        },
        {
          "indexed": true,
          "internalType": "uint256",
          "name": "tokenId",
          "type": "uint256"
        }
      ],
      "name": "Transfer",
      "type": "event"
    },
    {
      "anonymous": false,
      "inputs": [
        {
          "indexed": true,
          "internalType": "uint256",
          "name": "tokenId",
          "type": "uint256"
        },
        {
          "indexed": true,
          "internalType": "address",
          "name": "user",
          "type": "address"
        },
        {
          "indexed": false,
          "internalType": "uint64",
          "name": "expires",
          "type": "uint64"
        }
      ],
      "name": "UpdateUser",
      "type": "event"
    },
    {
      "inputs": [
        {
          "internalType": "address",
          "name": "to",
          "type": "address"
        },
        {
          "internalType": "uint256",
          "name": "tokenId",
          "type": "uint256"
        }
      ],
      "name": "approve",
      "outputs": [],
      "stateMutability": "nonpayable",
      "type": "function"
    },
    {
      "inputs": [
        {
          "internalType": "address",
          "name": "owner",
          "type": "address"
        }
      ],
      "name": "balanceOf",
      "outputs": [
        {
          "internalType": "uint256",
          "name": "",
          "type": "uint256"
        }
      ],
      "stateMutability": "view",
      "type": "function"
    },
    {
      "inputs": [
        {
          "internalType": "uint256",
          "name": "",
          "type": "uint256"
        }
      ],
      "name": "compliments",
      "outputs": [
        {
          "internalType": "string",
          "name": "",
          "type": "string"
        }
      ],
      "stateMutability": "view",
      "type": "function"
    },
    {
      "inputs": [
        {
          "internalType": "uint256",
          "name": "",
          "type": "uint256"
        }
      ],
      "name": "finalOwner",
      "outputs": [
        {
          "internalType": "address",
          "name": "",
          "type": "address"
        }
      ],
      "stateMutability": "view",
      "type": "function"
    },
    {
      "inputs": [
        {
          "internalType": "uint256",
          "name": "tokenId",
          "type": "uint256"
        }
      ],
      "name": "getApproved",
      "outputs": [
        {
          "internalType": "address",
          "name": "",
          "type": "address"
        }
      ],
      "stateMutability": "view",
      "type": "function"
    },
    {
      "inputs": [
        {
          "internalType": "address",
          "name": "owner",
          "type": "address"
        },
        {
          "internalType": "address",
          "name": "operator",
          "type": "address"
        }
      ],
      "name": "isApprovedForAll",
      "outputs": [
        {
          "internalType": "bool",
          "name": "",
          "type": "bool"
        }
      ],
      "stateMutability": "view",
      "type": "function"
    },
    {
      "inputs": [],
      "name": "name",
      "outputs": [
        {
          "internalType": "string",
          "name": "",
          "type": "string"
        }
      ],
      "stateMutability": "view",
      "type": "function"
    },
    {
      "inputs": [],
      "name": "owner",
      "outputs": [
        {
          "internalType": "address",
          "name": "",
          "type": "address"
        }
      ],
      "stateMutability": "view",
      "type": "function"
    },
    {
      "inputs": [
        {
          "internalType": "uint256",
          "name": "tokenId",
          "type": "uint256"
        }
      ],
      "name": "ownerOf",
      "outputs": [
        {
          "internalType": "address",
          "name": "",
          "type": "address"
        }
      ],
      "stateMutability": "view",
      "type": "function"
    },
    {
      "inputs": [],
      "name": "renounceOwnership",
      "outputs": [],
      "stateMutability": "nonpayable",
      "type": "function"
    },
    {
      "inputs": [
        {
          "internalType": "address",
          "name": "operator",
          "type": "address"
        },
        {
          "internalType": "bool",
          "name": "approved",
          "type": "bool"
        }
      ],
      "name": "setApprovalForAll",
      "outputs": [],
      "stateMutability": "nonpayable",
      "type": "function"
    },
    {
      "inputs": [
        {
          "internalType": "uint256",
          "name": "tokenId",
          "type": "uint256"
        },
        {
          "internalType": "address",
          "name": "user",
          "type": "address"
        },
        {
          "internalType": "uint64",
          "name": "expires",
          "type": "uint64"
        }
      ],
      "name": "setUser",
      "outputs": [],
      "stateMutability": "nonpayable",
      "type": "function"
    },
    {
      "inputs": [],
      "name": "symbol",
      "outputs": [
        {
          "internalType": "string",
          "name": "",
          "type": "string"
        }
      ],
      "stateMutability": "view",
      "type": "function"
    },
    {
      "inputs": [
        {
          "internalType": "uint256",
          "name": "tokenId",
          "type": "uint256"
        }
      ],
      "name": "tokenURI",
      "outputs": [
        {
          "internalType": "string",
          "name": "",
          "type": "string"
        }
      ],
      "stateMutability": "view",
      "type": "function"
    },
    {
      "inputs": [
        {
          "internalType": "address",
          "name": "newOwner",
          "type": "address"
        }
      ],
      "name": "transferOwnership",
      "outputs": [],
      "stateMutability": "nonpayable",
      "type": "function"
    },
    {
      "inputs": [
        {
          "internalType": "uint256",
          "name": "tokenId",
          "type": "uint256"
        }
      ],
      "name": "userExpires",
      "outputs": [
        {
          "internalType": "uint256",
          "name": "",
          "type": "uint256"
        }
      ],
      "stateMutability": "view",
      "type": "function"
    },
    {
      "inputs": [
        {
          "internalType": "uint256",
          "name": "tokenId",
          "type": "uint256"
        }
      ],
      "name": "userOf",
      "outputs": [
        {
          "internalType": "address",
          "name": "",
          "type": "address"
        }
      ],
      "stateMutability": "view",
      "type": "function"
    },
    {
      "inputs": [
        {
          "internalType": "string",
          "name": "_tokenURI",
          "type": "string"
        },
        {
          "internalType": "address",
          "name": "_finalOwner",
          "type": "address"
        }
      ],
      "name": "mintNft",
      "outputs": [
        {
          "internalType": "uint256",
          "name": "",
          "type": "uint256"
        }
      ],
      "stateMutability": "payable",
      "type": "function"
    },
    {
      "inputs": [
        {
          "internalType": "uint256",
          "name": "tokenId",
          "type": "uint256"
        },
        {
          "internalType": "string",
          "name": "_message",
          "type": "string"
        }
      ],
      "name": "writeCompliment",
      "outputs": [],
      "stateMutability": "nonpayable",
      "type": "function"
    },
    {
      "inputs": [],
      "name": "withdraw",
      "outputs": [],
      "stateMutability": "nonpayable",
      "type": "function"
    },
    {
      "inputs": [
        {
          "internalType": "address",
          "name": "from",
          "type": "address"
        },
        {
          "internalType": "address",
          "name": "to",
          "type": "address"
        },
        {
          "internalType": "uint256",
          "name": "tokenId",
          "type": "uint256"
        }
      ],
      "name": "transferFrom",
      "outputs": [],
      "stateMutability": "nonpayable",
      "type": "function"
    },
    {
      "inputs": [
        {
          "internalType": "address",
          "name": "from",
          "type": "address"
        },
        {
          "internalType": "address",
          "name": "to",
          "type": "address"
        },
        {
          "internalType": "uint256",
          "name": "tokenId",
          "type": "uint256"
        }
      ],
      "name": "safeTransferFrom",
      "outputs": [],
      "stateMutability": "nonpayable",
      "type": "function"
    },
    {
      "inputs": [
        {
          "internalType": "address",
          "name": "from",
          "type": "address"
        },
        {
          "internalType": "address",
          "name": "to",
          "type": "address"
        },
        {
          "internalType": "uint256",
          "name": "tokenId",
          "type": "uint256"
        },
        {
          "internalType": "bytes",
          "name": "data",
          "type": "bytes"
        }
      ],
      "name": "safeTransferFrom",
      "outputs": [],
      "stateMutability": "nonpayable",
      "type": "function"
    },
    {
      "inputs": [
        {
          "internalType": "bytes4",
          "name": "interfaceId",
          "type": "bytes4"
        }
      ],
      "name": "supportsInterface",
      "outputs": [
        {
          "internalType": "bool",
          "name": "",
          "type": "bool"
        }
      ],
      "stateMutability": "view",
      "type": "function"
    }
  ],
  "bytecode": "0x60806040523480156200001157600080fd5b506040518060400160405280600981526020017f4775657374426f6f6b00000000000000000000000000000000000000000000008152506040518060400160405280600281526020017f47420000000000000000000000000000000000000000000000000000000000008152508181816000908162000091919062000416565b508060019081620000a3919062000416565b5050505050620000c8620000bc620000ce60201b60201c565b620000d660201b60201c565b620004fd565b600033905090565b6000600860009054906101000a900473ffffffffffffffffffffffffffffffffffffffff16905081600860006101000a81548173ffffffffffffffffffffffffffffffffffffffff021916908373ffffffffffffffffffffffffffffffffffffffff1602179055508173ffffffffffffffffffffffffffffffffffffffff168173ffffffffffffffffffffffffffffffffffffffff167f8be0079c531659141344cd1fd0a4f28419497f9722a3daafe3b4186f6b6457e060405160405180910390a35050565b600081519050919050565b7f4e487b7100000000000000000000000000000000000000000000000000000000600052604160045260246000fd5b7f4e487b7100000000000000000000000000000000000000000000000000000000600052602260045260246000fd5b600060028204905060018216806200021e57607f821691505b602082108103620002345762000233620001d6565b5b50919050565b60008190508160005260206000209050919050565b60006020601f8301049050919050565b600082821b905092915050565b6000600883026200029e7fffffffffffffffffffffffffffffffffffffffffffffffffffffffffffffffff826200025f565b620002aa86836200025f565b95508019841693508086168417925050509392505050565b6000819050919050565b6000819050919050565b6000620002f7620002f1620002eb84620002c2565b620002cc565b620002c2565b9050919050565b6000819050919050565b6200031383620002d6565b6200032b6200032282620002fe565b8484546200026c565b825550505050565b600090565b6200034262000333565b6200034f81848462000308565b505050565b5b8181101562000377576200036b60008262000338565b60018101905062000355565b5050565b601f821115620003c65762000390816200023a565b6200039b846200024f565b81016020851015620003ab578190505b620003c3620003ba856200024f565b83018262000354565b50505b505050565b600082821c905092915050565b6000620003eb60001984600802620003cb565b1980831691505092915050565b6000620004068383620003d8565b9150826002028217905092915050565b62000421826200019c565b67ffffffffffffffff8111156200043d576200043c620001a7565b5b62000449825462000205565b620004568282856200037b565b600060209050601f8311600181146200048e576000841562000479578287015190505b620004858582620003f8565b865550620004f5565b601f1984166200049e866200023a565b60005b82811015620004c857848901518255600182019150602085019450602081019050620004a1565b86831015620004e85784890151620004e4601f891682620003d8565b8355505b6001600288020188555050505b505050505050565b6139b7806200050d6000396000f3fe60806040526004361061014b5760003560e01c80638fc88c48116100b6578063c2f1f14a1161006f578063c2f1f14a14610493578063c87b56dd146104d0578063e030565e1461050d578063e0460d9414610536578063e985e9c514610573578063f2fde38b146105b05761014b565b80638fc88c481461037357806390dbd6b1146103b057806395d89b41146103d9578063a22cb46514610404578063a44f5d551461042d578063b88d4fde1461046a5761014b565b80633ccfd60b116101085780633ccfd60b1461027757806342842e0e1461028e5780636352211e146102b757806370a08231146102f4578063715018a6146103315780638da5cb5b146103485761014b565b806301ffc9a71461015057806306fdde031461018d578063081812fc146101b8578063095ea7b3146101f55780631c8b45c31461021e57806323b872dd1461024e575b600080fd5b34801561015c57600080fd5b5061017760048036038101906101729190612430565b6105d9565b6040516101849190612478565b60405180910390f35b34801561019957600080fd5b506101a26105eb565b6040516101af9190612523565b60405180910390f35b3480156101c457600080fd5b506101df60048036038101906101da919061257b565b61067d565b6040516101ec91906125e9565b60405180910390f35b34801561020157600080fd5b5061021c60048036038101906102179190612630565b6106c3565b005b610238600480360381019061023391906127a5565b6107da565b6040516102459190612810565b60405180910390f35b34801561025a57600080fd5b506102756004803603810190610270919061282b565b6108ed565b005b34801561028357600080fd5b5061028c610995565b005b34801561029a57600080fd5b506102b560048036038101906102b0919061282b565b610a43565b005b3480156102c357600080fd5b506102de60048036038101906102d9919061257b565b610aeb565b6040516102eb91906125e9565b60405180910390f35b34801561030057600080fd5b5061031b6004803603810190610316919061287e565b610b9c565b6040516103289190612810565b60405180910390f35b34801561033d57600080fd5b50610346610c53565b005b34801561035457600080fd5b5061035d610c67565b60405161036a91906125e9565b60405180910390f35b34801561037f57600080fd5b5061039a6004803603810190610395919061257b565b610c91565b6040516103a79190612810565b60405180910390f35b3480156103bc57600080fd5b506103d760048036038101906103d291906128ab565b610ccf565b005b3480156103e557600080fd5b506103ee610dcf565b6040516103fb9190612523565b60405180910390f35b34801561041057600080fd5b5061042b60048036038101906104269190612933565b610e61565b005b34801561043957600080fd5b50610454600480360381019061044f919061257b565b610e77565b6040516104619190612523565b60405180910390f35b34801561047657600080fd5b50610491600480360381019061048c9190612a14565b610f23565b005b34801561049f57600080fd5b506104ba60048036038101906104b5919061257b565b610f85565b6040516104c791906125e9565b60405180910390f35b3480156104dc57600080fd5b506104f760048036038101906104f2919061257b565b61100a565b6040516105049190612523565b60405180910390f35b34801561051957600080fd5b50610534600480360381019061052f9190612ad7565b61111c565b005b34801561054257600080fd5b5061055d6004803603810190610558919061257b565b61123f565b60405161056a91906125e9565b60405180910390f35b34801561057f57600080fd5b5061059a60048036038101906105959190612b2a565b611272565b6040516105a79190612478565b60405180910390f35b3480156105bc57600080fd5b506105d760048036038101906105d2919061287e565b611306565b005b60006105e482611389565b9050919050565b6060600080546105fa90612b99565b80601f016020809104026020016040519081016040528092919081815260200182805461062690612b99565b80156106735780601f1061064857610100808354040283529160200191610673565b820191906000526020600020905b81548152906001019060200180831161065657829003601f168201915b5050505050905090565b600061068882611403565b6004600083815260200190815260200160002060009054906101000a900473ffffffffffffffffffffffffffffffffffffffff169050919050565b60006106ce82610aeb565b90508073ffffffffffffffffffffffffffffffffffffffff168373ffffffffffffffffffffffffffffffffffffffff160361073e576040517f08c379a000000000000000000000000000000000000000000000000000000000815260040161073590612c3c565b60405180910390fd5b8073ffffffffffffffffffffffffffffffffffffffff1661075d61144e565b73ffffffffffffffffffffffffffffffffffffffff16148061078c575061078b8161078661144e565b611272565b5b6107cb576040517f08c379a00000000000000000000000000000000000000000000000000000000081526004016107c290612cce565b60405180910390fd5b6107d58383611456565b505050565b600060b43411610816576040517f467cff4400000000000000000000000000000000000000000000000000000000815260040160405180910390fd5b610820600961150f565b600061082c6009611525565b905082600b600083815260200190815260200160002060006101000a81548173ffffffffffffffffffffffffffffffffffffffff021916908373ffffffffffffffffffffffffffffffffffffffff16021790555061088a3382611533565b6108948185611551565b8273ffffffffffffffffffffffffffffffffffffffff16817f39b5fa7bf32913c1679447cd4b2f1794318cf1c8017841760a9d782a2dd5b933866040516108db9190612523565b60405180910390a38091505092915050565b600b600082815260200190815260200160002060009054906101000a900473ffffffffffffffffffffffffffffffffffffffff1673ffffffffffffffffffffffffffffffffffffffff168273ffffffffffffffffffffffffffffffffffffffff1614610985576040517f31162d7900000000000000000000000000000000000000000000000000000000815260040160405180910390fd5b6109908383836115be565b505050565b61099d61161e565b60003373ffffffffffffffffffffffffffffffffffffffff16476040516109c390612d1f565b60006040518083038185875af1925050503d8060008114610a00576040519150601f19603f3d011682016040523d82523d6000602084013e610a05565b606091505b5050905080610a40576040517ff8640a8800000000000000000000000000000000000000000000000000000000815260040160405180910390fd5b50565b600b600082815260200190815260200160002060009054906101000a900473ffffffffffffffffffffffffffffffffffffffff1673ffffffffffffffffffffffffffffffffffffffff168273ffffffffffffffffffffffffffffffffffffffff1614610adb576040517f31162d7900000000000000000000000000000000000000000000000000000000815260040160405180910390fd5b610ae683838361169c565b505050565b6000806002600084815260200190815260200160002060009054906101000a900473ffffffffffffffffffffffffffffffffffffffff169050600073ffffffffffffffffffffffffffffffffffffffff168173ffffffffffffffffffffffffffffffffffffffff1603610b93576040517f08c379a0000000000000000000000000000000000000000000000000000000008152600401610b8a90612d80565b60405180910390fd5b80915050919050565b60008073ffffffffffffffffffffffffffffffffffffffff168273ffffffffffffffffffffffffffffffffffffffff1603610c0c576040517f08c379a0000000000000000000000000000000000000000000000000000000008152600401610c0390612e12565b60405180910390fd5b600360008373ffffffffffffffffffffffffffffffffffffffff1673ffffffffffffffffffffffffffffffffffffffff168152602001908152602001600020549050919050565b610c5b61161e565b610c6560006116bc565b565b6000600860009054906101000a900473ffffffffffffffffffffffffffffffffffffffff16905090565b60006007600083815260200190815260200160002060000160149054906101000a900467ffffffffffffffff1667ffffffffffffffff169050919050565b610cd882610f85565b73ffffffffffffffffffffffffffffffffffffffff163373ffffffffffffffffffffffffffffffffffffffff1614610d3c576040517f8c5596a900000000000000000000000000000000000000000000000000000000815260040160405180910390fd5b600a81908060018154018082558091505060019003906000526020600020016000909190919091509081610d709190612fde565b5080604051610d7f91906130ec565b60405180910390203373ffffffffffffffffffffffffffffffffffffffff16837ffb7d95960d4ff923b3fe16aecbbd6e598f9ef50e4a3da6cf3877993386488ad860405160405180910390a45050565b606060018054610dde90612b99565b80601f0160208091040260200160405190810160405280929190818152602001828054610e0a90612b99565b8015610e575780601f10610e2c57610100808354040283529160200191610e57565b820191906000526020600020905b815481529060010190602001808311610e3a57829003601f168201915b5050505050905090565b610e73610e6c61144e565b8383611782565b5050565b600a8181548110610e8757600080fd5b906000526020600020016000915090508054610ea290612b99565b80601f0160208091040260200160405190810160405280929190818152602001828054610ece90612b99565b8015610f1b5780601f10610ef057610100808354040283529160200191610f1b565b820191906000526020600020905b815481529060010190602001808311610efe57829003601f168201915b505050505081565b610f34610f2e61144e565b836118ee565b610f73576040517f08c379a0000000000000000000000000000000000000000000000000000000008152600401610f6a90613175565b60405180910390fd5b610f7f84848484611983565b50505050565b6000426007600084815260200190815260200160002060000160149054906101000a900467ffffffffffffffff1667ffffffffffffffff1610611000576007600083815260200190815260200160002060000160009054906101000a900473ffffffffffffffffffffffffffffffffffffffff169050611005565b600090505b919050565b606061101582611403565b600060066000848152602001908152602001600020805461103590612b99565b80601f016020809104026020016040519081016040528092919081815260200182805461106190612b99565b80156110ae5780601f10611083576101008083540402835291602001916110ae565b820191906000526020600020905b81548152906001019060200180831161109157829003601f168201915b5050505050905060006110bf6119df565b905060008151036110d4578192505050611117565b6000825111156111095780826040516020016110f1929190613195565b60405160208183030381529060405292505050611117565b611112846119f6565b925050505b919050565b61112633846118ee565b611165576040517f08c379a000000000000000000000000000000000000000000000000000000000815260040161115c9061322b565b60405180910390fd5b6000600760008581526020019081526020016000209050828160000160006101000a81548173ffffffffffffffffffffffffffffffffffffffff021916908373ffffffffffffffffffffffffffffffffffffffff160217905550818160000160146101000a81548167ffffffffffffffff021916908367ffffffffffffffff1602179055508273ffffffffffffffffffffffffffffffffffffffff16847f4e06b4e7000e659094299b3533b47b6aa8ad048e95e872d23d1f4ee55af89cfe84604051611231919061325a565b60405180910390a350505050565b600b6020528060005260406000206000915054906101000a900473ffffffffffffffffffffffffffffffffffffffff1681565b6000600560008473ffffffffffffffffffffffffffffffffffffffff1673ffffffffffffffffffffffffffffffffffffffff16815260200190815260200160002060008373ffffffffffffffffffffffffffffffffffffffff1673ffffffffffffffffffffffffffffffffffffffff16815260200190815260200160002060009054906101000a900460ff16905092915050565b61130e61161e565b600073ffffffffffffffffffffffffffffffffffffffff168173ffffffffffffffffffffffffffffffffffffffff160361137d576040517f08c379a0000000000000000000000000000000000000000000000000000000008152600401611374906132e7565b60405180910390fd5b611386816116bc565b50565b60007fad092b5c000000000000000000000000000000000000000000000000000000007bffffffffffffffffffffffffffffffffffffffffffffffffffffffff1916827bffffffffffffffffffffffffffffffffffffffffffffffffffffffff191614806113fc57506113fb82611a5e565b5b9050919050565b61140c81611b40565b61144b576040517f08c379a000000000000000000000000000000000000000000000000000000000815260040161144290612d80565b60405180910390fd5b50565b600033905090565b816004600083815260200190815260200160002060006101000a81548173ffffffffffffffffffffffffffffffffffffffff021916908373ffffffffffffffffffffffffffffffffffffffff160217905550808273ffffffffffffffffffffffffffffffffffffffff166114c983610aeb565b73ffffffffffffffffffffffffffffffffffffffff167f8c5be1e5ebec7d5bd14f71427d1e84f3dd0314c0f7b2291e5b200ac8c7c3b92560405160405180910390a45050565b6001816000016000828254019250508190555050565b600081600001549050919050565b61154d828260405180602001604052806000815250611bac565b5050565b61155a82611b40565b611599576040517f08c379a000000000000000000000000000000000000000000000000000000000815260040161159090613379565b60405180910390fd5b806006600084815260200190815260200160002090816115b99190612fde565b505050565b6115cf6115c961144e565b826118ee565b61160e576040517f08c379a000000000000000000000000000000000000000000000000000000000815260040161160590613175565b60405180910390fd5b611619838383611c07565b505050565b61162661144e565b73ffffffffffffffffffffffffffffffffffffffff16611644610c67565b73ffffffffffffffffffffffffffffffffffffffff161461169a576040517f08c379a0000000000000000000000000000000000000000000000000000000008152600401611691906133e5565b60405180910390fd5b565b6116b783838360405180602001604052806000815250610f23565b505050565b6000600860009054906101000a900473ffffffffffffffffffffffffffffffffffffffff16905081600860006101000a81548173ffffffffffffffffffffffffffffffffffffffff021916908373ffffffffffffffffffffffffffffffffffffffff1602179055508173ffffffffffffffffffffffffffffffffffffffff168173ffffffffffffffffffffffffffffffffffffffff167f8be0079c531659141344cd1fd0a4f28419497f9722a3daafe3b4186f6b6457e060405160405180910390a35050565b8173ffffffffffffffffffffffffffffffffffffffff168373ffffffffffffffffffffffffffffffffffffffff16036117f0576040517f08c379a00000000000000000000000000000000000000000000000000000000081526004016117e790613451565b60405180910390fd5b80600560008573ffffffffffffffffffffffffffffffffffffffff1673ffffffffffffffffffffffffffffffffffffffff16815260200190815260200160002060008473ffffffffffffffffffffffffffffffffffffffff1673ffffffffffffffffffffffffffffffffffffffff16815260200190815260200160002060006101000a81548160ff0219169083151502179055508173ffffffffffffffffffffffffffffffffffffffff168373ffffffffffffffffffffffffffffffffffffffff167f17307eab39ab6107e8899845ad3d59bd9653f200f220920489ca2b5937696c31836040516118e19190612478565b60405180910390a3505050565b6000806118fa83610aeb565b90508073ffffffffffffffffffffffffffffffffffffffff168473ffffffffffffffffffffffffffffffffffffffff16148061193c575061193b8185611272565b5b8061197a57508373ffffffffffffffffffffffffffffffffffffffff166119628461067d565b73ffffffffffffffffffffffffffffffffffffffff16145b91505092915050565b61198e848484611c07565b61199a84848484611e6d565b6119d9576040517f08c379a00000000000000000000000000000000000000000000000000000000081526004016119d0906134e3565b60405180910390fd5b50505050565b606060405180602001604052806000815250905090565b6060611a0182611403565b6000611a0b6119df565b90506000815111611a2b5760405180602001604052806000815250611a56565b80611a3584611ff4565b604051602001611a46929190613195565b6040516020818303038152906040525b915050919050565b60007f80ac58cd000000000000000000000000000000000000000000000000000000007bffffffffffffffffffffffffffffffffffffffffffffffffffffffff1916827bffffffffffffffffffffffffffffffffffffffffffffffffffffffff19161480611b2957507f5b5e139f000000000000000000000000000000000000000000000000000000007bffffffffffffffffffffffffffffffffffffffffffffffffffffffff1916827bffffffffffffffffffffffffffffffffffffffffffffffffffffffff1916145b80611b395750611b3882612154565b5b9050919050565b60008073ffffffffffffffffffffffffffffffffffffffff166002600084815260200190815260200160002060009054906101000a900473ffffffffffffffffffffffffffffffffffffffff1673ffffffffffffffffffffffffffffffffffffffff1614159050919050565b611bb683836121be565b611bc36000848484611e6d565b611c02576040517f08c379a0000000000000000000000000000000000000000000000000000000008152600401611bf9906134e3565b60405180910390fd5b505050565b8273ffffffffffffffffffffffffffffffffffffffff16611c2782610aeb565b73ffffffffffffffffffffffffffffffffffffffff1614611c7d576040517f08c379a0000000000000000000000000000000000000000000000000000000008152600401611c7490613575565b60405180910390fd5b600073ffffffffffffffffffffffffffffffffffffffff168273ffffffffffffffffffffffffffffffffffffffff1603611cec576040517f08c379a0000000000000000000000000000000000000000000000000000000008152600401611ce390613607565b60405180910390fd5b611cf7838383612397565b611d02600082611456565b6001600360008573ffffffffffffffffffffffffffffffffffffffff1673ffffffffffffffffffffffffffffffffffffffff1681526020019081526020016000206000828254611d529190613656565b925050819055506001600360008473ffffffffffffffffffffffffffffffffffffffff1673ffffffffffffffffffffffffffffffffffffffff1681526020019081526020016000206000828254611da9919061368a565b92505081905550816002600083815260200190815260200160002060006101000a81548173ffffffffffffffffffffffffffffffffffffffff021916908373ffffffffffffffffffffffffffffffffffffffff160217905550808273ffffffffffffffffffffffffffffffffffffffff168473ffffffffffffffffffffffffffffffffffffffff167fddf252ad1be2c89b69c2b068fc378daa952ba7f163c4a11628f55a4df523b3ef60405160405180910390a4611e6883838361239c565b505050565b6000611e8e8473ffffffffffffffffffffffffffffffffffffffff166123a1565b15611fe7578373ffffffffffffffffffffffffffffffffffffffff1663150b7a02611eb761144e565b8786866040518563ffffffff1660e01b8152600401611ed99493929190613713565b6020604051808303816000875af1925050508015611f1557506040513d601f19601f82011682018060405250810190611f129190613774565b60015b611f97573d8060008114611f45576040519150601f19603f3d011682016040523d82523d6000602084013e611f4a565b606091505b506000815103611f8f576040517f08c379a0000000000000000000000000000000000000000000000000000000008152600401611f86906134e3565b60405180910390fd5b805181602001fd5b63150b7a0260e01b7bffffffffffffffffffffffffffffffffffffffffffffffffffffffff1916817bffffffffffffffffffffffffffffffffffffffffffffffffffffffff191614915050611fec565b600190505b949350505050565b60606000820361203b576040518060400160405280600181526020017f3000000000000000000000000000000000000000000000000000000000000000815250905061214f565b600082905060005b6000821461206d578080612056906137a1565b915050600a826120669190613818565b9150612043565b60008167ffffffffffffffff8111156120895761208861267a565b5b6040519080825280601f01601f1916602001820160405280156120bb5781602001600182028036833780820191505090505b5090505b60008514612148576001826120d49190613656565b9150600a856120e39190613849565b60306120ef919061368a565b60f81b8183815181106121055761210461387a565b5b60200101907effffffffffffffffffffffffffffffffffffffffffffffffffffffffffffff1916908160001a905350600a856121419190613818565b94506120bf565b8093505050505b919050565b60007f01ffc9a7000000000000000000000000000000000000000000000000000000007bffffffffffffffffffffffffffffffffffffffffffffffffffffffff1916827bffffffffffffffffffffffffffffffffffffffffffffffffffffffff1916149050919050565b600073ffffffffffffffffffffffffffffffffffffffff168273ffffffffffffffffffffffffffffffffffffffff160361222d576040517f08c379a0000000000000000000000000000000000000000000000000000000008152600401612224906138f5565b60405180910390fd5b61223681611b40565b15612276576040517f08c379a000000000000000000000000000000000000000000000000000000000815260040161226d90613961565b60405180910390fd5b61228260008383612397565b6001600360008473ffffffffffffffffffffffffffffffffffffffff1673ffffffffffffffffffffffffffffffffffffffff16815260200190815260200160002060008282546122d2919061368a565b92505081905550816002600083815260200190815260200160002060006101000a81548173ffffffffffffffffffffffffffffffffffffffff021916908373ffffffffffffffffffffffffffffffffffffffff160217905550808273ffffffffffffffffffffffffffffffffffffffff16600073ffffffffffffffffffffffffffffffffffffffff167fddf252ad1be2c89b69c2b068fc378daa952ba7f163c4a11628f55a4df523b3ef60405160405180910390a46123936000838361239c565b5050565b505050565b505050565b6000808273ffffffffffffffffffffffffffffffffffffffff163b119050919050565b6000604051905090565b600080fd5b600080fd5b60007fffffffff0000000000000000000000000000000000000000000000000000000082169050919050565b61240d816123d8565b811461241857600080fd5b50565b60008135905061242a81612404565b92915050565b600060208284031215612446576124456123ce565b5b60006124548482850161241b565b91505092915050565b60008115159050919050565b6124728161245d565b82525050565b600060208201905061248d6000830184612469565b92915050565b600081519050919050565b600082825260208201905092915050565b60005b838110156124cd5780820151818401526020810190506124b2565b60008484015250505050565b6000601f19601f8301169050919050565b60006124f582612493565b6124ff818561249e565b935061250f8185602086016124af565b612518816124d9565b840191505092915050565b6000602082019050818103600083015261253d81846124ea565b905092915050565b6000819050919050565b61255881612545565b811461256357600080fd5b50565b6000813590506125758161254f565b92915050565b600060208284031215612591576125906123ce565b5b600061259f84828501612566565b91505092915050565b600073ffffffffffffffffffffffffffffffffffffffff82169050919050565b60006125d3826125a8565b9050919050565b6125e3816125c8565b82525050565b60006020820190506125fe60008301846125da565b92915050565b61260d816125c8565b811461261857600080fd5b50565b60008135905061262a81612604565b92915050565b60008060408385031215612647576126466123ce565b5b60006126558582860161261b565b925050602061266685828601612566565b9150509250929050565b600080fd5b600080fd5b7f4e487b7100000000000000000000000000000000000000000000000000000000600052604160045260246000fd5b6126b2826124d9565b810181811067ffffffffffffffff821117156126d1576126d061267a565b5b80604052505050565b60006126e46123c4565b90506126f082826126a9565b919050565b600067ffffffffffffffff8211156127105761270f61267a565b5b612719826124d9565b9050602081019050919050565b82818337600083830152505050565b6000612748612743846126f5565b6126da565b90508281526020810184848401111561276457612763612675565b5b61276f848285612726565b509392505050565b600082601f83011261278c5761278b612670565b5b813561279c848260208601612735565b91505092915050565b600080604083850312156127bc576127bb6123ce565b5b600083013567ffffffffffffffff8111156127da576127d96123d3565b5b6127e685828601612777565b92505060206127f78582860161261b565b9150509250929050565b61280a81612545565b82525050565b60006020820190506128256000830184612801565b92915050565b600080600060608486031215612844576128436123ce565b5b60006128528682870161261b565b93505060206128638682870161261b565b925050604061287486828701612566565b9150509250925092565b600060208284031215612894576128936123ce565b5b60006128a28482850161261b565b91505092915050565b600080604083850312156128c2576128c16123ce565b5b60006128d085828601612566565b925050602083013567ffffffffffffffff8111156128f1576128f06123d3565b5b6128fd85828601612777565b9150509250929050565b6129108161245d565b811461291b57600080fd5b50565b60008135905061292d81612907565b92915050565b6000806040838503121561294a576129496123ce565b5b60006129588582860161261b565b92505060206129698582860161291e565b9150509250929050565b600067ffffffffffffffff82111561298e5761298d61267a565b5b612997826124d9565b9050602081019050919050565b60006129b76129b284612973565b6126da565b9050828152602081018484840111156129d3576129d2612675565b5b6129de848285612726565b509392505050565b600082601f8301126129fb576129fa612670565b5b8135612a0b8482602086016129a4565b91505092915050565b60008060008060808587031215612a2e57612a2d6123ce565b5b6000612a3c8782880161261b565b9450506020612a4d8782880161261b565b9350506040612a5e87828801612566565b925050606085013567ffffffffffffffff811115612a7f57612a7e6123d3565b5b612a8b878288016129e6565b91505092959194509250565b600067ffffffffffffffff82169050919050565b612ab481612a97565b8114612abf57600080fd5b50565b600081359050612ad181612aab565b92915050565b600080600060608486031215612af057612aef6123ce565b5b6000612afe86828701612566565b9350506020612b0f8682870161261b565b9250506040612b2086828701612ac2565b9150509250925092565b60008060408385031215612b4157612b406123ce565b5b6000612b4f8582860161261b565b9250506020612b608582860161261b565b9150509250929050565b7f4e487b7100000000000000000000000000000000000000000000000000000000600052602260045260246000fd5b60006002820490506001821680612bb157607f821691505b602082108103612bc457612bc3612b6a565b5b50919050565b7f4552433732313a20617070726f76616c20746f2063757272656e74206f776e6560008201527f7200000000000000000000000000000000000000000000000000000000000000602082015250565b6000612c2660218361249e565b9150612c3182612bca565b604082019050919050565b60006020820190508181036000830152612c5581612c19565b9050919050565b7f4552433732313a20617070726f76652063616c6c6572206973206e6f7420746f60008201527f6b656e206f776e6572206e6f7220617070726f76656420666f7220616c6c0000602082015250565b6000612cb8603e8361249e565b9150612cc382612c5c565b604082019050919050565b60006020820190508181036000830152612ce781612cab565b9050919050565b600081905092915050565b50565b6000612d09600083612cee565b9150612d1482612cf9565b600082019050919050565b6000612d2a82612cfc565b9150819050919050565b7f4552433732313a20696e76616c696420746f6b656e2049440000000000000000600082015250565b6000612d6a60188361249e565b9150612d7582612d34565b602082019050919050565b60006020820190508181036000830152612d9981612d5d565b9050919050565b7f4552433732313a2061646472657373207a65726f206973206e6f74206120766160008201527f6c6964206f776e65720000000000000000000000000000000000000000000000602082015250565b6000612dfc60298361249e565b9150612e0782612da0565b604082019050919050565b60006020820190508181036000830152612e2b81612def565b9050919050565b60008190508160005260206000209050919050565b60006020601f8301049050919050565b600082821b905092915050565b600060088302612e947fffffffffffffffffffffffffffffffffffffffffffffffffffffffffffffffff82612e57565b612e9e8683612e57565b95508019841693508086168417925050509392505050565b6000819050919050565b6000612edb612ed6612ed184612545565b612eb6565b612545565b9050919050565b6000819050919050565b612ef583612ec0565b612f09612f0182612ee2565b848454612e64565b825550505050565b600090565b612f1e612f11565b612f29818484612eec565b505050565b5b81811015612f4d57612f42600082612f16565b600181019050612f2f565b5050565b601f821115612f9257612f6381612e32565b612f6c84612e47565b81016020851015612f7b578190505b612f8f612f8785612e47565b830182612f2e565b50505b505050565b600082821c905092915050565b6000612fb560001984600802612f97565b1980831691505092915050565b6000612fce8383612fa4565b9150826002028217905092915050565b612fe782612493565b67ffffffffffffffff81111561300057612fff61267a565b5b61300a8254612b99565b613015828285612f51565b600060209050601f8311600181146130485760008415613036578287015190505b6130408582612fc2565b8655506130a8565b601f19841661305686612e32565b60005b8281101561307e57848901518255600182019150602085019450602081019050613059565b8683101561309b5784890151613097601f891682612fa4565b8355505b6001600288020188555050505b505050505050565b600081905092915050565b60006130c682612493565b6130d081856130b0565b93506130e08185602086016124af565b80840191505092915050565b60006130f882846130bb565b915081905092915050565b7f4552433732313a2063616c6c6572206973206e6f7420746f6b656e206f776e6560008201527f72206e6f7220617070726f766564000000000000000000000000000000000000602082015250565b600061315f602e8361249e565b915061316a82613103565b604082019050919050565b6000602082019050818103600083015261318e81613152565b9050919050565b60006131a182856130bb565b91506131ad82846130bb565b91508190509392505050565b7f4552433732313a207472616e736665722063616c6c6572206973206e6f74206f60008201527f776e6572206e6f7220617070726f766564000000000000000000000000000000602082015250565b600061321560318361249e565b9150613220826131b9565b604082019050919050565b6000602082019050818103600083015261324481613208565b9050919050565b61325481612a97565b82525050565b600060208201905061326f600083018461324b565b92915050565b7f4f776e61626c653a206e6577206f776e657220697320746865207a65726f206160008201527f6464726573730000000000000000000000000000000000000000000000000000602082015250565b60006132d160268361249e565b91506132dc82613275565b604082019050919050565b60006020820190508181036000830152613300816132c4565b9050919050565b7f45524337323155524953746f726167653a2055524920736574206f66206e6f6e60008201527f6578697374656e7420746f6b656e000000000000000000000000000000000000602082015250565b6000613363602e8361249e565b915061336e82613307565b604082019050919050565b6000602082019050818103600083015261339281613356565b9050919050565b7f4f776e61626c653a2063616c6c6572206973206e6f7420746865206f776e6572600082015250565b60006133cf60208361249e565b91506133da82613399565b602082019050919050565b600060208201905081810360008301526133fe816133c2565b9050919050565b7f4552433732313a20617070726f766520746f2063616c6c657200000000000000600082015250565b600061343b60198361249e565b915061344682613405565b602082019050919050565b6000602082019050818103600083015261346a8161342e565b9050919050565b7f4552433732313a207472616e7366657220746f206e6f6e20455243373231526560008201527f63656976657220696d706c656d656e7465720000000000000000000000000000602082015250565b60006134cd60328361249e565b91506134d882613471565b604082019050919050565b600060208201905081810360008301526134fc816134c0565b9050919050565b7f4552433732313a207472616e736665722066726f6d20696e636f72726563742060008201527f6f776e6572000000000000000000000000000000000000000000000000000000602082015250565b600061355f60258361249e565b915061356a82613503565b604082019050919050565b6000602082019050818103600083015261358e81613552565b9050919050565b7f4552433732313a207472616e7366657220746f20746865207a65726f2061646460008201527f7265737300000000000000000000000000000000000000000000000000000000602082015250565b60006135f160248361249e565b91506135fc82613595565b604082019050919050565b60006020820190508181036000830152613620816135e4565b9050919050565b7f4e487b7100000000000000000000000000000000000000000000000000000000600052601160045260246000fd5b600061366182612545565b915061366c83612545565b925082820390508181111561368457613683613627565b5b92915050565b600061369582612545565b91506136a083612545565b92508282019050808211156136b8576136b7613627565b5b92915050565b600081519050919050565b600082825260208201905092915050565b60006136e5826136be565b6136ef81856136c9565b93506136ff8185602086016124af565b613708816124d9565b840191505092915050565b600060808201905061372860008301876125da565b61373560208301866125da565b6137426040830185612801565b818103606083015261375481846136da565b905095945050505050565b60008151905061376e81612404565b92915050565b60006020828403121561378a576137896123ce565b5b60006137988482850161375f565b91505092915050565b60006137ac82612545565b91507fffffffffffffffffffffffffffffffffffffffffffffffffffffffffffffffff82036137de576137dd613627565b5b600182019050919050565b7f4e487b7100000000000000000000000000000000000000000000000000000000600052601260045260246000fd5b600061382382612545565b915061382e83612545565b92508261383e5761383d6137e9565b5b828204905092915050565b600061385482612545565b915061385f83612545565b92508261386f5761386e6137e9565b5b828206905092915050565b7f4e487b7100000000000000000000000000000000000000000000000000000000600052603260045260246000fd5b7f4552433732313a206d696e7420746f20746865207a65726f2061646472657373600082015250565b60006138df60208361249e565b91506138ea826138a9565b602082019050919050565b6000602082019050818103600083015261390e816138d2565b9050919050565b7f4552433732313a20746f6b656e20616c7265616479206d696e74656400000000600082015250565b600061394b601c8361249e565b915061395682613915565b602082019050919050565b6000602082019050818103600083015261397a8161393e565b905091905056fea26469706673582212203b4d20b70e438160c8015bc11fbb8a0f0b36079d10a9439526791c4a3b5cfce264736f6c63430008110033",
  "immutableReferences": {},
  "source": "// SPDX-License-Identifier: MIT\n\npragma solidity 0.8.17;\n\nimport \"@openzeppelin/contracts/token/ERC721/extensions/ERC721URIStorage.sol\";\nimport \"@openzeppelin/contracts/utils/Counters.sol\";\nimport \"@openzeppelin/contracts/access/Ownable.sol\";\nimport \"./ERC4907.sol\";\n\nerror GuestBook__NotEnoughETH();\nerror GuestBook__NotAuthorizedToWrite();\nerror GuestBook__WrongFinalOwner();\nerror GuestBook__WithdrawFailed();\n\n///@title A guestbook minter\n///@author Yannick J.\n///@notice People can rent your guestbook to have the right to leave message. The guestbook can only be transfered to the recipient you define at mint\n///@dev The classic transferFrom and safeTransferFrom functions are overriden to meet the project requirement\ncontract GuestBook is ERC721URIStorage, ERC4907, Ownable {\n  using Counters for Counters.Counter;\n  Counters.Counter private _tokenIds;\n\n///@dev Event that is emitted when an user write on the guestbook\n///@param _tokenId identifies the guestbook\n///@param _user the address of the user that wrote a message on the guestbook\n///@param _message the message wrote\n  event ComplimentWritten(uint256 indexed _tokenId, address indexed _user, string indexed _message);\n\n///@dev Event that is emitted when a new guestbook is minted\n///@param _tokenId is the id of the guestbook minted\n///@param _finalOwner is the unique address to which the guestbook can be transfered\n  event NewGuestBook(uint256 indexed _tokenId, string _tokenURI, address indexed _finalOwner);\n\n  string[] public compliments;\n  mapping(uint256 => address) public finalOwner;\n\n  constructor() ERC4907(\"GuestBook\", \"GB\") {\n  }\n\n///@notice You can personalize the image of the NFT by uploading one on IPFS and providing the URI at mint\n///@notice You have to define a recipient at mint. This guest book can only be transfered to him\n///@notice The cost of one guestbook is 1 ETH  \n///@dev The contract have a balance that only the owner is able to withdraw\n///@param _tokenURI is the URI of the cover of th guestbook uploaded on IPFS\n///@param _finalOwner is the unique recipient of the guestbook\n  function mintNft(string memory _tokenURI, address _finalOwner) payable public returns (uint256) {\n    if (msg.value <= 1*10*18) {\n      revert GuestBook__NotEnoughETH();\n    }\n    _tokenIds.increment();\n    uint256 newItemId = _tokenIds.current();\n    finalOwner[newItemId] = _finalOwner;\n    _safeMint(msg.sender, newItemId);\n    _setTokenURI(newItemId, _tokenURI); \n    emit NewGuestBook(newItemId, _tokenURI, _finalOwner);\n    return newItemId;\n  }\n\n///@notice People who want to leave message on the guestbook have to rent it\n///@dev All the compliments are stored in an array\n///@param _message Is the message that an user want to write on the guestbook\n  function writeCompliment(uint256 tokenId, string memory _message) external {\n    if (msg.sender != userOf(tokenId)) {\n      revert GuestBook__NotAuthorizedToWrite();\n    }\n    compliments.push(_message);\n    emit ComplimentWritten(tokenId, msg.sender, _message);\n  }\n\n///@dev Only the owner of the contract can withdraw the balance \n  function withdraw() external onlyOwner {\n    (bool succeed, ) = payable(msg.sender).call{value: address(this).balance}(\"\");\n    if(!succeed) {\n      revert GuestBook__WithdrawFailed();\n    }\n  }\n\n///@notice The guestbook can only be transfered to the address defined at mint\n///@dev This function override the standard transferFrom function\n  function transferFrom(address from, address to, uint256 tokenId) public override {\n    if (to != finalOwner[tokenId]) {\n      revert GuestBook__WrongFinalOwner();\n    }\n    super.transferFrom(from, to, tokenId);\n  }\n\n///@notice The guestbook can only be transfered to the address defined at mint\n///@dev This function override the standard transferFrom function\n function safeTransferFrom(address from, address to, uint256 tokenId) public override {\n    if (to != finalOwner[tokenId]) {\n      revert GuestBook__WrongFinalOwner();\n    }\n    super.safeTransferFrom(from, to, tokenId);\n  }\n\n  function supportsInterface(bytes4 interfaceId) public view virtual override(ERC721, ERC4907) returns (bool) {\n    return super.supportsInterface(interfaceId);\n  }\n\n}\n",
  "sourcePath": "/home/yan/solidity/fcc/rentableNFT/contracts/GuestBook.sol",
  "compiler": {
    "name": "solc",
    "version": "0.8.17+commit.8df45f5f.Emscripten.clang"
  },
  "schemaVersion": "3.4.8",
  "updatedAt": "2022-09-14T18:04:30.464Z",
  "devdoc": {
    "author": "Yannick J.",
    "details": "The classic transferFrom and safeTransferFrom functions are overriden to meet the project requirement",
    "events": {
      "ComplimentWritten(uint256,address,string)": {
        "details": "Event that is emitted when an user write on the guestbook",
        "params": {
          "_message": "the message wrote",
          "_tokenId": "identifies the guestbook",
          "_user": "the address of the user that wrote a message on the guestbook"
        }
      },
      "NewGuestBook(uint256,string,address)": {
        "details": "Event that is emitted when a new guestbook is minted",
        "params": {
          "_finalOwner": "is the unique address to which the guestbook can be transfered",
          "_tokenId": "is the id of the guestbook minted"
        }
      }
    },
    "kind": "dev",
    "methods": {
      "approve(address,uint256)": {
        "details": "See {IERC721-approve}."
      },
      "balanceOf(address)": {
        "details": "See {IERC721-balanceOf}."
      },
      "getApproved(uint256)": {
        "details": "See {IERC721-getApproved}."
      },
      "isApprovedForAll(address,address)": {
        "details": "See {IERC721-isApprovedForAll}."
      },
      "mintNft(string,address)": {
        "details": "The contract have a balance that only the owner is able to withdraw",
        "params": {
          "_finalOwner": "is the unique recipient of the guestbook",
          "_tokenURI": "is the URI of the cover of th guestbook uploaded on IPFS"
        }
      },
      "name()": {
        "details": "See {IERC721Metadata-name}."
      },
      "owner()": {
        "details": "Returns the address of the current owner."
      },
      "ownerOf(uint256)": {
        "details": "See {IERC721-ownerOf}."
      },
      "renounceOwnership()": {
        "details": "Leaves the contract without owner. It will not be possible to call `onlyOwner` functions anymore. Can only be called by the current owner. NOTE: Renouncing ownership will leave the contract without an owner, thereby removing any functionality that is only available to the owner."
      },
      "safeTransferFrom(address,address,uint256)": {
        "details": "This function override the standard transferFrom function"
      },
      "safeTransferFrom(address,address,uint256,bytes)": {
        "details": "See {IERC721-safeTransferFrom}."
      },
      "setApprovalForAll(address,bool)": {
        "details": "See {IERC721-setApprovalForAll}."
      },
      "setUser(uint256,address,uint64)": {
        "details": "The zero address indicates there is no user Throws if `tokenId` is not valid NFT",
        "params": {
          "expires": "UNIX timestamp, The new user could use the NFT before expires",
          "user": "The new user of the NFT"
        }
      },
      "symbol()": {
        "details": "See {IERC721Metadata-symbol}."
      },
      "tokenURI(uint256)": {
        "details": "See {IERC721Metadata-tokenURI}."
      },
      "transferFrom(address,address,uint256)": {
        "details": "This function override the standard transferFrom function"
      },
      "transferOwnership(address)": {
        "details": "Transfers ownership of the contract to a new account (`newOwner`). Can only be called by the current owner."
      },
      "userExpires(uint256)": {
        "details": "The zero value indicates that there is no user",
        "params": {
          "tokenId": "The NFT to get the user expires for"
        },
        "returns": {
          "_0": "The user expires for this NFT"
        }
      },
      "userOf(uint256)": {
        "details": "The zero address indicates that there is no user or the user is expired",
        "params": {
          "tokenId": "The NFT to get the user address for"
        },
        "returns": {
          "_0": "The user address for this NFT"
        }
      },
      "withdraw()": {
        "details": "Only the owner of the contract can withdraw the balance "
      },
      "writeCompliment(uint256,string)": {
        "details": "All the compliments are stored in an array",
        "params": {
          "_message": "Is the message that an user want to write on the guestbook"
        }
      }
    },
    "title": "A guestbook minter",
    "version": 1
  },
  "userdoc": {
    "events": {
      "UpdateUser(uint256,address,uint64)": {
        "notice": "Emitted when the `user` of an NFT or the `expires` of the `user` is changed The zero address for user indicates that there is no user address"
      }
    },
    "kind": "user",
    "methods": {
      "mintNft(string,address)": {
        "notice": "You can personalize the image of the NFT by uploading one on IPFS and providing the URI at mintYou have to define a recipient at mint. This guest book can only be transfered to himThe cost of one guestbook is 1 ETH  "
      },
      "safeTransferFrom(address,address,uint256)": {
        "notice": "The guestbook can only be transfered to the address defined at mint"
      },
      "setUser(uint256,address,uint64)": {
        "notice": "set the user and expires of a NFT"
      },
      "transferFrom(address,address,uint256)": {
        "notice": "The guestbook can only be transfered to the address defined at mint"
      },
      "userExpires(uint256)": {
        "notice": "Get the user expires of an NFT"
      },
      "userOf(uint256)": {
        "notice": "Get the user address of an NFT"
      },
      "writeCompliment(uint256,string)": {
        "notice": "People who want to leave message on the guestbook have to rent it"
      }
    },
    "notice": "People can rent your guestbook to have the right to leave message. The guestbook can only be transfered to the recipient you define at mint",
    "version": 1
  }
}