{
  "contractName": "Leasing",
  "abi": [
    {
      "inputs": [],
      "stateMutability": "nonpayable",
      "type": "constructor"
    },
    {
      "inputs": [],
      "name": "Leasing__PaymentTooLateOrLeaseAllPaid",
      "type": "error"
    },
    {
      "inputs": [],
      "name": "Leasing__WrongLessee",
      "type": "error"
    },
    {
      "anonymous": false,
      "inputs": [
        {
          "indexed": true,
          "internalType": "address",
          "name": "owner",
          "type": "address"
        },
        {
          "indexed": true,
          "internalType": "address",
          "name": "approved",
          "type": "address"
        },
        {
          "indexed": true,
          "internalType": "uint256",
          "name": "tokenId",
          "type": "uint256"
        }
      ],
      "name": "Approval",
      "type": "event"
    },
    {
      "anonymous": false,
      "inputs": [
        {
          "indexed": true,
          "internalType": "address",
          "name": "owner",
          "type": "address"
        },
        {
          "indexed": true,
          "internalType": "address",
          "name": "operator",
          "type": "address"
        },
        {
          "indexed": false,
          "internalType": "bool",
          "name": "approved",
          "type": "bool"
        }
      ],
      "name": "ApprovalForAll",
      "type": "event"
    },
    {
      "anonymous": false,
      "inputs": [
        {
          "indexed": true,
          "internalType": "uint256",
          "name": "tokenId",
          "type": "uint256"
        },
        {
          "indexed": true,
          "internalType": "string",
          "name": "tokenURI",
          "type": "string"
        },
        {
          "indexed": true,
          "internalType": "string",
          "name": "carModel",
          "type": "string"
        },
        {
          "indexed": false,
          "internalType": "uint256",
          "name": "leasingDurationInMonth",
          "type": "uint256"
        },
        {
          "indexed": false,
          "internalType": "uint256",
          "name": "upfrontPayment",
          "type": "uint256"
        },
        {
          "indexed": false,
          "internalType": "uint256",
          "name": "monthlyPayment",
          "type": "uint256"
        },
        {
          "indexed": false,
          "internalType": "uint256",
          "name": "purchaseOptionPrice",
          "type": "uint256"
        }
      ],
      "name": "LeasingMinted",
      "type": "event"
    },
    {
      "anonymous": false,
      "inputs": [
        {
          "indexed": true,
          "internalType": "uint256",
          "name": "tokenId",
          "type": "uint256"
        },
        {
          "indexed": true,
          "internalType": "address",
          "name": "lesseeAddress",
          "type": "address"
        },
        {
          "indexed": true,
          "internalType": "string",
          "name": "lesseeName",
          "type": "string"
        }
      ],
      "name": "LesseeSetted",
      "type": "event"
    },
    {
      "anonymous": false,
      "inputs": [
        {
          "indexed": true,
          "internalType": "uint256",
          "name": "tokenId",
          "type": "uint256"
        },
        {
          "indexed": true,
          "internalType": "address",
          "name": "lessee",
          "type": "address"
        },
        {
          "indexed": true,
          "internalType": "uint256",
          "name": "rent",
          "type": "uint256"
        }
      ],
      "name": "MonthlyLeasingPaid",
      "type": "event"
    },
    {
      "anonymous": false,
      "inputs": [
        {
          "indexed": true,
          "internalType": "address",
          "name": "previousOwner",
          "type": "address"
        },
        {
          "indexed": true,
          "internalType": "address",
          "name": "newOwner",
          "type": "address"
        }
      ],
      "name": "OwnershipTransferred",
      "type": "event"
    },
    {
      "anonymous": false,
      "inputs": [
        {
          "indexed": true,
          "internalType": "address",
          "name": "from",
          "type": "address"
        },
        {
          "indexed": true,
          "internalType": "address",
          "name": "to",
          "type": "address"
        },
        {
          "indexed": true,
          "internalType": "uint256",
          "name": "tokenId",
          "type": "uint256"
        }
      ],
      "name": "Transfer",
      "type": "event"
    },
    {
      "anonymous": false,
      "inputs": [
        {
          "indexed": true,
          "internalType": "uint256",
          "name": "tokenId",
          "type": "uint256"
        },
        {
          "indexed": true,
          "internalType": "address",
          "name": "user",
          "type": "address"
        },
        {
          "indexed": false,
          "internalType": "uint64",
          "name": "expires",
          "type": "uint64"
        }
      ],
      "name": "UpdateUser",
      "type": "event"
    },
    {
      "inputs": [
        {
          "internalType": "address",
          "name": "to",
          "type": "address"
        },
        {
          "internalType": "uint256",
          "name": "tokenId",
          "type": "uint256"
        }
      ],
      "name": "approve",
      "outputs": [],
      "stateMutability": "nonpayable",
      "type": "function"
    },
    {
      "inputs": [
        {
          "internalType": "address",
          "name": "owner",
          "type": "address"
        }
      ],
      "name": "balanceOf",
      "outputs": [
        {
          "internalType": "uint256",
          "name": "",
          "type": "uint256"
        }
      ],
      "stateMutability": "view",
      "type": "function"
    },
    {
      "inputs": [
        {
          "internalType": "uint256",
          "name": "tokenId",
          "type": "uint256"
        }
      ],
      "name": "getApproved",
      "outputs": [
        {
          "internalType": "address",
          "name": "",
          "type": "address"
        }
      ],
      "stateMutability": "view",
      "type": "function"
    },
    {
      "inputs": [
        {
          "internalType": "address",
          "name": "owner",
          "type": "address"
        },
        {
          "internalType": "address",
          "name": "operator",
          "type": "address"
        }
      ],
      "name": "isApprovedForAll",
      "outputs": [
        {
          "internalType": "bool",
          "name": "",
          "type": "bool"
        }
      ],
      "stateMutability": "view",
      "type": "function"
    },
    {
      "inputs": [
        {
          "internalType": "uint256",
          "name": "",
          "type": "uint256"
        }
      ],
      "name": "leases",
      "outputs": [
        {
          "internalType": "string",
          "name": "carModel",
          "type": "string"
        },
        {
          "internalType": "string",
          "name": "lesseeName",
          "type": "string"
        },
        {
          "internalType": "address",
          "name": "lesseeAddress",
          "type": "address"
        },
        {
          "internalType": "uint256",
          "name": "leaseStartingDate",
          "type": "uint256"
        },
        {
          "internalType": "uint256",
          "name": "leasingDurationInMonth",
          "type": "uint256"
        },
        {
          "internalType": "uint256",
          "name": "upfrontPayment",
          "type": "uint256"
        },
        {
          "internalType": "uint256",
          "name": "monthlyPayment",
          "type": "uint256"
        },
        {
          "internalType": "uint256",
          "name": "purchaseOptionPrice",
          "type": "uint256"
        },
        {
          "internalType": "uint256",
          "name": "numberOfPaymentMade",
          "type": "uint256"
        }
      ],
      "stateMutability": "view",
      "type": "function"
    },
    {
      "inputs": [],
      "name": "name",
      "outputs": [
        {
          "internalType": "string",
          "name": "",
          "type": "string"
        }
      ],
      "stateMutability": "view",
      "type": "function"
    },
    {
      "inputs": [],
      "name": "owner",
      "outputs": [
        {
          "internalType": "address",
          "name": "",
          "type": "address"
        }
      ],
      "stateMutability": "view",
      "type": "function"
    },
    {
      "inputs": [
        {
          "internalType": "uint256",
          "name": "tokenId",
          "type": "uint256"
        }
      ],
      "name": "ownerOf",
      "outputs": [
        {
          "internalType": "address",
          "name": "",
          "type": "address"
        }
      ],
      "stateMutability": "view",
      "type": "function"
    },
    {
      "inputs": [],
      "name": "renounceOwnership",
      "outputs": [],
      "stateMutability": "nonpayable",
      "type": "function"
    },
    {
      "inputs": [
        {
          "internalType": "address",
          "name": "operator",
          "type": "address"
        },
        {
          "internalType": "bool",
          "name": "approved",
          "type": "bool"
        }
      ],
      "name": "setApprovalForAll",
      "outputs": [],
      "stateMutability": "nonpayable",
      "type": "function"
    },
    {
      "inputs": [
        {
          "internalType": "uint256",
          "name": "tokenId",
          "type": "uint256"
        },
        {
          "internalType": "address",
          "name": "user",
          "type": "address"
        },
        {
          "internalType": "uint64",
          "name": "expires",
          "type": "uint64"
        }
      ],
      "name": "setUser",
      "outputs": [],
      "stateMutability": "nonpayable",
      "type": "function"
    },
    {
      "inputs": [],
      "name": "symbol",
      "outputs": [
        {
          "internalType": "string",
          "name": "",
          "type": "string"
        }
      ],
      "stateMutability": "view",
      "type": "function"
    },
    {
      "inputs": [
        {
          "internalType": "uint256",
          "name": "tokenId",
          "type": "uint256"
        }
      ],
      "name": "tokenURI",
      "outputs": [
        {
          "internalType": "string",
          "name": "",
          "type": "string"
        }
      ],
      "stateMutability": "view",
      "type": "function"
    },
    {
      "inputs": [
        {
          "internalType": "address",
          "name": "newOwner",
          "type": "address"
        }
      ],
      "name": "transferOwnership",
      "outputs": [],
      "stateMutability": "nonpayable",
      "type": "function"
    },
    {
      "inputs": [
        {
          "internalType": "uint256",
          "name": "tokenId",
          "type": "uint256"
        }
      ],
      "name": "userExpires",
      "outputs": [
        {
          "internalType": "uint256",
          "name": "",
          "type": "uint256"
        }
      ],
      "stateMutability": "view",
      "type": "function"
    },
    {
      "inputs": [
        {
          "internalType": "uint256",
          "name": "tokenId",
          "type": "uint256"
        }
      ],
      "name": "userOf",
      "outputs": [
        {
          "internalType": "address",
          "name": "",
          "type": "address"
        }
      ],
      "stateMutability": "view",
      "type": "function"
    },
    {
      "inputs": [
        {
          "internalType": "string",
          "name": "_tokenURI",
          "type": "string"
        },
        {
          "internalType": "string",
          "name": "_carModel",
          "type": "string"
        },
        {
          "internalType": "uint256",
          "name": "_leasingDurationInMonth",
          "type": "uint256"
        },
        {
          "internalType": "uint256",
          "name": "_upfrontPayment",
          "type": "uint256"
        },
        {
          "internalType": "uint256",
          "name": "_monthlyPayment",
          "type": "uint256"
        },
        {
          "internalType": "uint256",
          "name": "_purchaseOptionPrice",
          "type": "uint256"
        }
      ],
      "name": "mintLeasingNft",
      "outputs": [
        {
          "internalType": "uint256",
          "name": "",
          "type": "uint256"
        }
      ],
      "stateMutability": "payable",
      "type": "function"
    },
    {
      "inputs": [
        {
          "internalType": "uint256",
          "name": "_tokenId",
          "type": "uint256"
        },
        {
          "internalType": "address",
          "name": "_lesseeAddress",
          "type": "address"
        },
        {
          "internalType": "string",
          "name": "_lesseeName",
          "type": "string"
        }
      ],
      "name": "setLessee",
      "outputs": [],
      "stateMutability": "nonpayable",
      "type": "function"
    },
    {
      "inputs": [
        {
          "internalType": "uint256",
          "name": "_tokenId",
          "type": "uint256"
        }
      ],
      "name": "renewMonthlyLeasing",
      "outputs": [],
      "stateMutability": "payable",
      "type": "function"
    },
    {
      "inputs": [],
      "name": "optionToBuy",
      "outputs": [],
      "stateMutability": "nonpayable",
      "type": "function"
    },
    {
      "inputs": [
        {
          "internalType": "address",
          "name": "from",
          "type": "address"
        },
        {
          "internalType": "address",
          "name": "to",
          "type": "address"
        },
        {
          "internalType": "uint256",
          "name": "tokenId",
          "type": "uint256"
        }
      ],
      "name": "transferFrom",
      "outputs": [],
      "stateMutability": "nonpayable",
      "type": "function"
    },
    {
      "inputs": [
        {
          "internalType": "address",
          "name": "from",
          "type": "address"
        },
        {
          "internalType": "address",
          "name": "to",
          "type": "address"
        },
        {
          "internalType": "uint256",
          "name": "tokenId",
          "type": "uint256"
        }
      ],
      "name": "safeTransferFrom",
      "outputs": [],
      "stateMutability": "nonpayable",
      "type": "function"
    },
    {
      "inputs": [
        {
          "internalType": "address",
          "name": "from",
          "type": "address"
        },
        {
          "internalType": "address",
          "name": "to",
          "type": "address"
        },
        {
          "internalType": "uint256",
          "name": "tokenId",
          "type": "uint256"
        },
        {
          "internalType": "bytes",
          "name": "data",
          "type": "bytes"
        }
      ],
      "name": "safeTransferFrom",
      "outputs": [],
      "stateMutability": "nonpayable",
      "type": "function"
    },
    {
      "inputs": [
        {
          "internalType": "bytes4",
          "name": "interfaceId",
          "type": "bytes4"
        }
      ],
      "name": "supportsInterface",
      "outputs": [
        {
          "internalType": "bool",
          "name": "",
          "type": "bool"
        }
      ],
      "stateMutability": "view",
      "type": "function"
    }
  ],
  "bytecode": "0x60806040523480156200001157600080fd5b506040518060400160405280600b81526020017f436172204c656173696e670000000000000000000000000000000000000000008152506040518060400160405280600281526020017f434c0000000000000000000000000000000000000000000000000000000000008152508181816000908162000091919062000416565b508060019081620000a3919062000416565b5050505050620000c8620000bc620000ce60201b60201c565b620000d660201b60201c565b620004fd565b600033905090565b6000600860009054906101000a900473ffffffffffffffffffffffffffffffffffffffff16905081600860006101000a81548173ffffffffffffffffffffffffffffffffffffffff021916908373ffffffffffffffffffffffffffffffffffffffff1602179055508173ffffffffffffffffffffffffffffffffffffffff168173ffffffffffffffffffffffffffffffffffffffff167f8be0079c531659141344cd1fd0a4f28419497f9722a3daafe3b4186f6b6457e060405160405180910390a35050565b600081519050919050565b7f4e487b7100000000000000000000000000000000000000000000000000000000600052604160045260246000fd5b7f4e487b7100000000000000000000000000000000000000000000000000000000600052602260045260246000fd5b600060028204905060018216806200021e57607f821691505b602082108103620002345762000233620001d6565b5b50919050565b60008190508160005260206000209050919050565b60006020601f8301049050919050565b600082821b905092915050565b6000600883026200029e7fffffffffffffffffffffffffffffffffffffffffffffffffffffffffffffffff826200025f565b620002aa86836200025f565b95508019841693508086168417925050509392505050565b6000819050919050565b6000819050919050565b6000620002f7620002f1620002eb84620002c2565b620002cc565b620002c2565b9050919050565b6000819050919050565b6200031383620002d6565b6200032b6200032282620002fe565b8484546200026c565b825550505050565b600090565b6200034262000333565b6200034f81848462000308565b505050565b5b8181101562000377576200036b60008262000338565b60018101905062000355565b5050565b601f821115620003c65762000390816200023a565b6200039b846200024f565b81016020851015620003ab578190505b620003c3620003ba856200024f565b83018262000354565b50505b505050565b600082821c905092915050565b6000620003eb60001984600802620003cb565b1980831691505092915050565b6000620004068383620003d8565b9150826002028217905092915050565b62000421826200019c565b67ffffffffffffffff8111156200043d576200043c620001a7565b5b62000449825462000205565b620004568282856200037b565b600060209050601f8311600181146200048e576000841562000479578287015190505b620004858582620003f8565b865550620004f5565b601f1984166200049e866200023a565b60005b82811015620004c857848901518255600182019150602085019450602081019050620004a1565b86831015620004e85784890151620004e4601f891682620003d8565b8355505b6001600288020188555050505b505050505050565b613e52806200050d6000396000f3fe60806040526004361061014b5760003560e01c80638927a106116100b6578063c2f1f14a1161006f578063c2f1f14a1461048e578063c87b56dd146104cb578063d2a2764b14610508578063e030565e14610531578063e985e9c51461055a578063f2fde38b146105975761014b565b80638927a106146103645780638da5cb5b146103a95780638fc88c48146103d457806395d89b4114610411578063a22cb4651461043c578063b88d4fde146104655761014b565b80634ff762e9116101085780634ff762e914610270578063526bd4f9146102a0578063574a740c146102bc5780636352211e146102d357806370a0823114610310578063715018a61461034d5761014b565b806301ffc9a71461015057806306fdde031461018d578063081812fc146101b8578063095ea7b3146101f557806323b872dd1461021e57806342842e0e14610247575b600080fd5b34801561015c57600080fd5b5061017760048036038101906101729190612779565b6105c0565b60405161018491906127c1565b60405180910390f35b34801561019957600080fd5b506101a26105d2565b6040516101af919061286c565b60405180910390f35b3480156101c457600080fd5b506101df60048036038101906101da91906128c4565b610664565b6040516101ec9190612932565b60405180910390f35b34801561020157600080fd5b5061021c60048036038101906102179190612979565b6106aa565b005b34801561022a57600080fd5b50610245600480360381019061024091906129b9565b6107c1565b005b34801561025357600080fd5b5061026e600480360381019061026991906129b9565b6108f1565b005b61028a60048036038101906102859190612b41565b610a21565b6040516102979190612c15565b60405180910390f35b6102ba60048036038101906102b591906128c4565b610b5f565b005b3480156102c857600080fd5b506102d1610d05565b005b3480156102df57600080fd5b506102fa60048036038101906102f591906128c4565b610d22565b6040516103079190612932565b60405180910390f35b34801561031c57600080fd5b5061033760048036038101906103329190612c30565b610dd3565b6040516103449190612c15565b60405180910390f35b34801561035957600080fd5b50610362610e8a565b005b34801561037057600080fd5b5061038b600480360381019061038691906128c4565b610e9e565b6040516103a099989796959493929190612c5d565b60405180910390f35b3480156103b557600080fd5b506103be61101c565b6040516103cb9190612932565b60405180910390f35b3480156103e057600080fd5b506103fb60048036038101906103f691906128c4565b611046565b6040516104089190612c15565b60405180910390f35b34801561041d57600080fd5b50610426611084565b604051610433919061286c565b60405180910390f35b34801561044857600080fd5b50610463600480360381019061045e9190612d24565b611116565b005b34801561047157600080fd5b5061048c60048036038101906104879190612e05565b61112c565b005b34801561049a57600080fd5b506104b560048036038101906104b091906128c4565b61118e565b6040516104c29190612932565b60405180910390f35b3480156104d757600080fd5b506104f260048036038101906104ed91906128c4565b611213565b6040516104ff919061286c565b60405180910390f35b34801561051457600080fd5b5061052f600480360381019061052a9190612e88565b611325565b005b34801561053d57600080fd5b5061055860048036038101906105539190612f37565b611498565b005b34801561056657600080fd5b50610581600480360381019061057c9190612f8a565b6115bb565b60405161058e91906127c1565b60405180910390f35b3480156105a357600080fd5b506105be60048036038101906105b99190612c30565b61164f565b005b60006105cb826116d2565b9050919050565b6060600080546105e190612ff9565b80601f016020809104026020016040519081016040528092919081815260200182805461060d90612ff9565b801561065a5780601f1061062f5761010080835404028352916020019161065a565b820191906000526020600020905b81548152906001019060200180831161063d57829003601f168201915b5050505050905090565b600061066f8261174c565b6004600083815260200190815260200160002060009054906101000a900473ffffffffffffffffffffffffffffffffffffffff169050919050565b60006106b582610d22565b90508073ffffffffffffffffffffffffffffffffffffffff168373ffffffffffffffffffffffffffffffffffffffff1603610725576040517f08c379a000000000000000000000000000000000000000000000000000000000815260040161071c9061309c565b60405180910390fd5b8073ffffffffffffffffffffffffffffffffffffffff16610744611797565b73ffffffffffffffffffffffffffffffffffffffff16148061077357506107728161076d611797565b6115bb565b5b6107b2576040517f08c379a00000000000000000000000000000000000000000000000000000000081526004016107a99061312e565b60405180910390fd5b6107bc838361179f565b505050565b600073ffffffffffffffffffffffffffffffffffffffff166007600083815260200190815260200160002060000160009054906101000a900473ffffffffffffffffffffffffffffffffffffffff1673ffffffffffffffffffffffffffffffffffffffff16146108e157600a60009054906101000a900460ff1615806108a95750600b600082815260200190815260200160002060020160009054906101000a900473ffffffffffffffffffffffffffffffffffffffff1673ffffffffffffffffffffffffffffffffffffffff168273ffffffffffffffffffffffffffffffffffffffff1614155b156108e0576040517f4ac30b0300000000000000000000000000000000000000000000000000000000815260040160405180910390fd5b5b6108ec838383611858565b505050565b600073ffffffffffffffffffffffffffffffffffffffff166007600083815260200190815260200160002060000160009054906101000a900473ffffffffffffffffffffffffffffffffffffffff1673ffffffffffffffffffffffffffffffffffffffff1614610a1157600a60009054906101000a900460ff1615806109d95750600b600082815260200190815260200160002060020160009054906101000a900473ffffffffffffffffffffffffffffffffffffffff1673ffffffffffffffffffffffffffffffffffffffff168273ffffffffffffffffffffffffffffffffffffffff1614155b15610a10576040517f4ac30b0300000000000000000000000000000000000000000000000000000000815260040160405180910390fd5b5b610a1c8383836118b8565b505050565b6000610a2b6118d8565b610a356009611956565b6000610a41600961196c565b905085600b60008381526020019081526020016000206004018190555086600b60008381526020019081526020016000206000019081610a8191906132fa565b5084600b60008381526020019081526020016000206005018190555083600b60008381526020019081526020016000206006018190555082600b600083815260200190815260200160002060070181905550610add338261197a565b610ae78189611998565b86604051610af59190613408565b604051809103902088604051610b0b9190613408565b6040518091039020827fa7fa27cb6b810c03c4553b3b55d861f6c762ed240d01b2d2d410b3af5fb491f189898989604051610b49949392919061341f565b60405180910390a4809150509695505050505050565b6007600082815260200190815260200160002060000160149054906101000a900467ffffffffffffffff1667ffffffffffffffff16421180610bd957506001600b600083815260200190815260200160002060040154610bbf9190613493565b600b60008381526020019081526020016000206008015410155b15610c10576040517ffd1760e100000000000000000000000000000000000000000000000000000000815260040160405180910390fd5b600062278d006007600084815260200190815260200160002060000160149054906101000a900467ffffffffffffffff16610c4b91906134c7565b90506001600b60008481526020019081526020016000206008016000828254610c749190613503565b92505081905550610cbc82600b600085815260200190815260200160002060020160009054906101000a900473ffffffffffffffffffffffffffffffffffffffff1683611498565b343373ffffffffffffffffffffffffffffffffffffffff16837f388ebc2561668d2944fdef65c9cce5f0b24959e826185b9eb20ae2ac40a7585f60405160405180910390a45050565b6001600a60006101000a81548160ff021916908315150217905550565b6000806002600084815260200190815260200160002060009054906101000a900473ffffffffffffffffffffffffffffffffffffffff169050600073ffffffffffffffffffffffffffffffffffffffff168173ffffffffffffffffffffffffffffffffffffffff1603610dca576040517f08c379a0000000000000000000000000000000000000000000000000000000008152600401610dc190613583565b60405180910390fd5b80915050919050565b60008073ffffffffffffffffffffffffffffffffffffffff168273ffffffffffffffffffffffffffffffffffffffff1603610e43576040517f08c379a0000000000000000000000000000000000000000000000000000000008152600401610e3a90613615565b60405180910390fd5b600360008373ffffffffffffffffffffffffffffffffffffffff1673ffffffffffffffffffffffffffffffffffffffff168152602001908152602001600020549050919050565b610e926118d8565b610e9c6000611a05565b565b600b602052806000526040600020600091509050806000018054610ec190612ff9565b80601f0160208091040260200160405190810160405280929190818152602001828054610eed90612ff9565b8015610f3a5780601f10610f0f57610100808354040283529160200191610f3a565b820191906000526020600020905b815481529060010190602001808311610f1d57829003601f168201915b505050505090806001018054610f4f90612ff9565b80601f0160208091040260200160405190810160405280929190818152602001828054610f7b90612ff9565b8015610fc85780601f10610f9d57610100808354040283529160200191610fc8565b820191906000526020600020905b815481529060010190602001808311610fab57829003601f168201915b5050505050908060020160009054906101000a900473ffffffffffffffffffffffffffffffffffffffff16908060030154908060040154908060050154908060060154908060070154908060080154905089565b6000600860009054906101000a900473ffffffffffffffffffffffffffffffffffffffff16905090565b60006007600083815260200190815260200160002060000160149054906101000a900467ffffffffffffffff1667ffffffffffffffff169050919050565b60606001805461109390612ff9565b80601f01602080910402602001604051908101604052809291908181526020018280546110bf90612ff9565b801561110c5780601f106110e15761010080835404028352916020019161110c565b820191906000526020600020905b8154815290600101906020018083116110ef57829003601f168201915b5050505050905090565b611128611121611797565b8383611acb565b5050565b61113d611137611797565b83611c37565b61117c576040517f08c379a0000000000000000000000000000000000000000000000000000000008152600401611173906136a7565b60405180910390fd5b61118884848484611ccc565b50505050565b6000426007600084815260200190815260200160002060000160149054906101000a900467ffffffffffffffff1667ffffffffffffffff1610611209576007600083815260200190815260200160002060000160009054906101000a900473ffffffffffffffffffffffffffffffffffffffff16905061120e565b600090505b919050565b606061121e8261174c565b600060066000848152602001908152602001600020805461123e90612ff9565b80601f016020809104026020016040519081016040528092919081815260200182805461126a90612ff9565b80156112b75780601f1061128c576101008083540402835291602001916112b7565b820191906000526020600020905b81548152906001019060200180831161129a57829003601f168201915b5050505050905060006112c8611d28565b905060008151036112dd578192505050611320565b6000825111156113125780826040516020016112fa9291906136c7565b60405160208183030381529060405292505050611320565b61131b84611d3f565b925050505b919050565b42600b60008581526020019081526020016000206003018190555081600b600085815260200190815260200160002060020160006101000a81548173ffffffffffffffffffffffffffffffffffffffff021916908373ffffffffffffffffffffffffffffffffffffffff16021790555080600b600085815260200190815260200160002060010190816113b891906132fa565b5062278d00426113c89190613503565b6007600085815260200190815260200160002060000160146101000a81548167ffffffffffffffff021916908367ffffffffffffffff16021790555061143983836007600087815260200190815260200160002060000160149054906101000a900467ffffffffffffffff16611498565b806040516114479190613408565b60405180910390208273ffffffffffffffffffffffffffffffffffffffff16847fead60a07807953cf2f40e90c23d5d49462e20fd85954e3eef31b082818df423560405160405180910390a4505050565b6114a23384611c37565b6114e1576040517f08c379a00000000000000000000000000000000000000000000000000000000081526004016114d89061375d565b60405180910390fd5b6000600760008581526020019081526020016000209050828160000160006101000a81548173ffffffffffffffffffffffffffffffffffffffff021916908373ffffffffffffffffffffffffffffffffffffffff160217905550818160000160146101000a81548167ffffffffffffffff021916908367ffffffffffffffff1602179055508273ffffffffffffffffffffffffffffffffffffffff16847f4e06b4e7000e659094299b3533b47b6aa8ad048e95e872d23d1f4ee55af89cfe846040516115ad919061378c565b60405180910390a350505050565b6000600560008473ffffffffffffffffffffffffffffffffffffffff1673ffffffffffffffffffffffffffffffffffffffff16815260200190815260200160002060008373ffffffffffffffffffffffffffffffffffffffff1673ffffffffffffffffffffffffffffffffffffffff16815260200190815260200160002060009054906101000a900460ff16905092915050565b6116576118d8565b600073ffffffffffffffffffffffffffffffffffffffff168173ffffffffffffffffffffffffffffffffffffffff16036116c6576040517f08c379a00000000000000000000000000000000000000000000000000000000081526004016116bd90613819565b60405180910390fd5b6116cf81611a05565b50565b60007fad092b5c000000000000000000000000000000000000000000000000000000007bffffffffffffffffffffffffffffffffffffffffffffffffffffffff1916827bffffffffffffffffffffffffffffffffffffffffffffffffffffffff19161480611745575061174482611da7565b5b9050919050565b61175581611e89565b611794576040517f08c379a000000000000000000000000000000000000000000000000000000000815260040161178b90613583565b60405180910390fd5b50565b600033905090565b816004600083815260200190815260200160002060006101000a81548173ffffffffffffffffffffffffffffffffffffffff021916908373ffffffffffffffffffffffffffffffffffffffff160217905550808273ffffffffffffffffffffffffffffffffffffffff1661181283610d22565b73ffffffffffffffffffffffffffffffffffffffff167f8c5be1e5ebec7d5bd14f71427d1e84f3dd0314c0f7b2291e5b200ac8c7c3b92560405160405180910390a45050565b611869611863611797565b82611c37565b6118a8576040517f08c379a000000000000000000000000000000000000000000000000000000000815260040161189f906136a7565b60405180910390fd5b6118b3838383611ef5565b505050565b6118d38383836040518060200160405280600081525061112c565b505050565b6118e0611797565b73ffffffffffffffffffffffffffffffffffffffff166118fe61101c565b73ffffffffffffffffffffffffffffffffffffffff1614611954576040517f08c379a000000000000000000000000000000000000000000000000000000000815260040161194b90613885565b60405180910390fd5b565b6001816000016000828254019250508190555050565b600081600001549050919050565b61199482826040518060200160405280600081525061215b565b5050565b6119a182611e89565b6119e0576040517f08c379a00000000000000000000000000000000000000000000000000000000081526004016119d790613917565b60405180910390fd5b80600660008481526020019081526020016000209081611a0091906132fa565b505050565b6000600860009054906101000a900473ffffffffffffffffffffffffffffffffffffffff16905081600860006101000a81548173ffffffffffffffffffffffffffffffffffffffff021916908373ffffffffffffffffffffffffffffffffffffffff1602179055508173ffffffffffffffffffffffffffffffffffffffff168173ffffffffffffffffffffffffffffffffffffffff167f8be0079c531659141344cd1fd0a4f28419497f9722a3daafe3b4186f6b6457e060405160405180910390a35050565b8173ffffffffffffffffffffffffffffffffffffffff168373ffffffffffffffffffffffffffffffffffffffff1603611b39576040517f08c379a0000000000000000000000000000000000000000000000000000000008152600401611b3090613983565b60405180910390fd5b80600560008573ffffffffffffffffffffffffffffffffffffffff1673ffffffffffffffffffffffffffffffffffffffff16815260200190815260200160002060008473ffffffffffffffffffffffffffffffffffffffff1673ffffffffffffffffffffffffffffffffffffffff16815260200190815260200160002060006101000a81548160ff0219169083151502179055508173ffffffffffffffffffffffffffffffffffffffff168373ffffffffffffffffffffffffffffffffffffffff167f17307eab39ab6107e8899845ad3d59bd9653f200f220920489ca2b5937696c3183604051611c2a91906127c1565b60405180910390a3505050565b600080611c4383610d22565b90508073ffffffffffffffffffffffffffffffffffffffff168473ffffffffffffffffffffffffffffffffffffffff161480611c855750611c8481856115bb565b5b80611cc357508373ffffffffffffffffffffffffffffffffffffffff16611cab84610664565b73ffffffffffffffffffffffffffffffffffffffff16145b91505092915050565b611cd7848484611ef5565b611ce3848484846121b6565b611d22576040517f08c379a0000000000000000000000000000000000000000000000000000000008152600401611d1990613a15565b60405180910390fd5b50505050565b606060405180602001604052806000815250905090565b6060611d4a8261174c565b6000611d54611d28565b90506000815111611d745760405180602001604052806000815250611d9f565b80611d7e8461233d565b604051602001611d8f9291906136c7565b6040516020818303038152906040525b915050919050565b60007f80ac58cd000000000000000000000000000000000000000000000000000000007bffffffffffffffffffffffffffffffffffffffffffffffffffffffff1916827bffffffffffffffffffffffffffffffffffffffffffffffffffffffff19161480611e7257507f5b5e139f000000000000000000000000000000000000000000000000000000007bffffffffffffffffffffffffffffffffffffffffffffffffffffffff1916827bffffffffffffffffffffffffffffffffffffffffffffffffffffffff1916145b80611e825750611e818261249d565b5b9050919050565b60008073ffffffffffffffffffffffffffffffffffffffff166002600084815260200190815260200160002060009054906101000a900473ffffffffffffffffffffffffffffffffffffffff1673ffffffffffffffffffffffffffffffffffffffff1614159050919050565b8273ffffffffffffffffffffffffffffffffffffffff16611f1582610d22565b73ffffffffffffffffffffffffffffffffffffffff1614611f6b576040517f08c379a0000000000000000000000000000000000000000000000000000000008152600401611f6290613aa7565b60405180910390fd5b600073ffffffffffffffffffffffffffffffffffffffff168273ffffffffffffffffffffffffffffffffffffffff1603611fda576040517f08c379a0000000000000000000000000000000000000000000000000000000008152600401611fd190613b39565b60405180910390fd5b611fe5838383612507565b611ff060008261179f565b6001600360008573ffffffffffffffffffffffffffffffffffffffff1673ffffffffffffffffffffffffffffffffffffffff16815260200190815260200160002060008282546120409190613493565b925050819055506001600360008473ffffffffffffffffffffffffffffffffffffffff1673ffffffffffffffffffffffffffffffffffffffff16815260200190815260200160002060008282546120979190613503565b92505081905550816002600083815260200190815260200160002060006101000a81548173ffffffffffffffffffffffffffffffffffffffff021916908373ffffffffffffffffffffffffffffffffffffffff160217905550808273ffffffffffffffffffffffffffffffffffffffff168473ffffffffffffffffffffffffffffffffffffffff167fddf252ad1be2c89b69c2b068fc378daa952ba7f163c4a11628f55a4df523b3ef60405160405180910390a461215683838361250c565b505050565b6121658383612511565b61217260008484846121b6565b6121b1576040517f08c379a00000000000000000000000000000000000000000000000000000000081526004016121a890613a15565b60405180910390fd5b505050565b60006121d78473ffffffffffffffffffffffffffffffffffffffff166126ea565b15612330578373ffffffffffffffffffffffffffffffffffffffff1663150b7a02612200611797565b8786866040518563ffffffff1660e01b81526004016122229493929190613bae565b6020604051808303816000875af192505050801561225e57506040513d601f19601f8201168201806040525081019061225b9190613c0f565b60015b6122e0573d806000811461228e576040519150601f19603f3d011682016040523d82523d6000602084013e612293565b606091505b5060008151036122d8576040517f08c379a00000000000000000000000000000000000000000000000000000000081526004016122cf90613a15565b60405180910390fd5b805181602001fd5b63150b7a0260e01b7bffffffffffffffffffffffffffffffffffffffffffffffffffffffff1916817bffffffffffffffffffffffffffffffffffffffffffffffffffffffff191614915050612335565b600190505b949350505050565b606060008203612384576040518060400160405280600181526020017f30000000000000000000000000000000000000000000000000000000000000008152509050612498565b600082905060005b600082146123b657808061239f90613c3c565b915050600a826123af9190613cb3565b915061238c565b60008167ffffffffffffffff8111156123d2576123d1612a16565b5b6040519080825280601f01601f1916602001820160405280156124045781602001600182028036833780820191505090505b5090505b600085146124915760018261241d9190613493565b9150600a8561242c9190613ce4565b60306124389190613503565b60f81b81838151811061244e5761244d613d15565b5b60200101907effffffffffffffffffffffffffffffffffffffffffffffffffffffffffffff1916908160001a905350600a8561248a9190613cb3565b9450612408565b8093505050505b919050565b60007f01ffc9a7000000000000000000000000000000000000000000000000000000007bffffffffffffffffffffffffffffffffffffffffffffffffffffffff1916827bffffffffffffffffffffffffffffffffffffffffffffffffffffffff1916149050919050565b505050565b505050565b600073ffffffffffffffffffffffffffffffffffffffff168273ffffffffffffffffffffffffffffffffffffffff1603612580576040517f08c379a000000000000000000000000000000000000000000000000000000000815260040161257790613d90565b60405180910390fd5b61258981611e89565b156125c9576040517f08c379a00000000000000000000000000000000000000000000000000000000081526004016125c090613dfc565b60405180910390fd5b6125d560008383612507565b6001600360008473ffffffffffffffffffffffffffffffffffffffff1673ffffffffffffffffffffffffffffffffffffffff16815260200190815260200160002060008282546126259190613503565b92505081905550816002600083815260200190815260200160002060006101000a81548173ffffffffffffffffffffffffffffffffffffffff021916908373ffffffffffffffffffffffffffffffffffffffff160217905550808273ffffffffffffffffffffffffffffffffffffffff16600073ffffffffffffffffffffffffffffffffffffffff167fddf252ad1be2c89b69c2b068fc378daa952ba7f163c4a11628f55a4df523b3ef60405160405180910390a46126e66000838361250c565b5050565b6000808273ffffffffffffffffffffffffffffffffffffffff163b119050919050565b6000604051905090565b600080fd5b600080fd5b60007fffffffff0000000000000000000000000000000000000000000000000000000082169050919050565b61275681612721565b811461276157600080fd5b50565b6000813590506127738161274d565b92915050565b60006020828403121561278f5761278e612717565b5b600061279d84828501612764565b91505092915050565b60008115159050919050565b6127bb816127a6565b82525050565b60006020820190506127d660008301846127b2565b92915050565b600081519050919050565b600082825260208201905092915050565b60005b838110156128165780820151818401526020810190506127fb565b60008484015250505050565b6000601f19601f8301169050919050565b600061283e826127dc565b61284881856127e7565b93506128588185602086016127f8565b61286181612822565b840191505092915050565b600060208201905081810360008301526128868184612833565b905092915050565b6000819050919050565b6128a18161288e565b81146128ac57600080fd5b50565b6000813590506128be81612898565b92915050565b6000602082840312156128da576128d9612717565b5b60006128e8848285016128af565b91505092915050565b600073ffffffffffffffffffffffffffffffffffffffff82169050919050565b600061291c826128f1565b9050919050565b61292c81612911565b82525050565b60006020820190506129476000830184612923565b92915050565b61295681612911565b811461296157600080fd5b50565b6000813590506129738161294d565b92915050565b600080604083850312156129905761298f612717565b5b600061299e85828601612964565b92505060206129af858286016128af565b9150509250929050565b6000806000606084860312156129d2576129d1612717565b5b60006129e086828701612964565b93505060206129f186828701612964565b9250506040612a02868287016128af565b9150509250925092565b600080fd5b600080fd5b7f4e487b7100000000000000000000000000000000000000000000000000000000600052604160045260246000fd5b612a4e82612822565b810181811067ffffffffffffffff82111715612a6d57612a6c612a16565b5b80604052505050565b6000612a8061270d565b9050612a8c8282612a45565b919050565b600067ffffffffffffffff821115612aac57612aab612a16565b5b612ab582612822565b9050602081019050919050565b82818337600083830152505050565b6000612ae4612adf84612a91565b612a76565b905082815260208101848484011115612b0057612aff612a11565b5b612b0b848285612ac2565b509392505050565b600082601f830112612b2857612b27612a0c565b5b8135612b38848260208601612ad1565b91505092915050565b60008060008060008060c08789031215612b5e57612b5d612717565b5b600087013567ffffffffffffffff811115612b7c57612b7b61271c565b5b612b8889828a01612b13565b965050602087013567ffffffffffffffff811115612ba957612ba861271c565b5b612bb589828a01612b13565b9550506040612bc689828a016128af565b9450506060612bd789828a016128af565b9350506080612be889828a016128af565b92505060a0612bf989828a016128af565b9150509295509295509295565b612c0f8161288e565b82525050565b6000602082019050612c2a6000830184612c06565b92915050565b600060208284031215612c4657612c45612717565b5b6000612c5484828501612964565b91505092915050565b6000610120820190508181036000830152612c78818c612833565b90508181036020830152612c8c818b612833565b9050612c9b604083018a612923565b612ca86060830189612c06565b612cb56080830188612c06565b612cc260a0830187612c06565b612ccf60c0830186612c06565b612cdc60e0830185612c06565b612cea610100830184612c06565b9a9950505050505050505050565b612d01816127a6565b8114612d0c57600080fd5b50565b600081359050612d1e81612cf8565b92915050565b60008060408385031215612d3b57612d3a612717565b5b6000612d4985828601612964565b9250506020612d5a85828601612d0f565b9150509250929050565b600067ffffffffffffffff821115612d7f57612d7e612a16565b5b612d8882612822565b9050602081019050919050565b6000612da8612da384612d64565b612a76565b905082815260208101848484011115612dc457612dc3612a11565b5b612dcf848285612ac2565b509392505050565b600082601f830112612dec57612deb612a0c565b5b8135612dfc848260208601612d95565b91505092915050565b60008060008060808587031215612e1f57612e1e612717565b5b6000612e2d87828801612964565b9450506020612e3e87828801612964565b9350506040612e4f878288016128af565b925050606085013567ffffffffffffffff811115612e7057612e6f61271c565b5b612e7c87828801612dd7565b91505092959194509250565b600080600060608486031215612ea157612ea0612717565b5b6000612eaf868287016128af565b9350506020612ec086828701612964565b925050604084013567ffffffffffffffff811115612ee157612ee061271c565b5b612eed86828701612b13565b9150509250925092565b600067ffffffffffffffff82169050919050565b612f1481612ef7565b8114612f1f57600080fd5b50565b600081359050612f3181612f0b565b92915050565b600080600060608486031215612f5057612f4f612717565b5b6000612f5e868287016128af565b9350506020612f6f86828701612964565b9250506040612f8086828701612f22565b9150509250925092565b60008060408385031215612fa157612fa0612717565b5b6000612faf85828601612964565b9250506020612fc085828601612964565b9150509250929050565b7f4e487b7100000000000000000000000000000000000000000000000000000000600052602260045260246000fd5b6000600282049050600182168061301157607f821691505b60208210810361302457613023612fca565b5b50919050565b7f4552433732313a20617070726f76616c20746f2063757272656e74206f776e6560008201527f7200000000000000000000000000000000000000000000000000000000000000602082015250565b60006130866021836127e7565b91506130918261302a565b604082019050919050565b600060208201905081810360008301526130b581613079565b9050919050565b7f4552433732313a20617070726f76652063616c6c6572206973206e6f7420746f60008201527f6b656e206f776e6572206e6f7220617070726f76656420666f7220616c6c0000602082015250565b6000613118603e836127e7565b9150613123826130bc565b604082019050919050565b600060208201905081810360008301526131478161310b565b9050919050565b60008190508160005260206000209050919050565b60006020601f8301049050919050565b600082821b905092915050565b6000600883026131b07fffffffffffffffffffffffffffffffffffffffffffffffffffffffffffffffff82613173565b6131ba8683613173565b95508019841693508086168417925050509392505050565b6000819050919050565b60006131f76131f26131ed8461288e565b6131d2565b61288e565b9050919050565b6000819050919050565b613211836131dc565b61322561321d826131fe565b848454613180565b825550505050565b600090565b61323a61322d565b613245818484613208565b505050565b5b818110156132695761325e600082613232565b60018101905061324b565b5050565b601f8211156132ae5761327f8161314e565b61328884613163565b81016020851015613297578190505b6132ab6132a385613163565b83018261324a565b50505b505050565b600082821c905092915050565b60006132d1600019846008026132b3565b1980831691505092915050565b60006132ea83836132c0565b9150826002028217905092915050565b613303826127dc565b67ffffffffffffffff81111561331c5761331b612a16565b5b6133268254612ff9565b61333182828561326d565b600060209050601f8311600181146133645760008415613352578287015190505b61335c85826132de565b8655506133c4565b601f1984166133728661314e565b60005b8281101561339a57848901518255600182019150602085019450602081019050613375565b868310156133b757848901516133b3601f8916826132c0565b8355505b6001600288020188555050505b505050505050565b600081905092915050565b60006133e2826127dc565b6133ec81856133cc565b93506133fc8185602086016127f8565b80840191505092915050565b600061341482846133d7565b915081905092915050565b60006080820190506134346000830187612c06565b6134416020830186612c06565b61344e6040830185612c06565b61345b6060830184612c06565b95945050505050565b7f4e487b7100000000000000000000000000000000000000000000000000000000600052601160045260246000fd5b600061349e8261288e565b91506134a98361288e565b92508282039050818111156134c1576134c0613464565b5b92915050565b60006134d282612ef7565b91506134dd83612ef7565b9250828201905067ffffffffffffffff8111156134fd576134fc613464565b5b92915050565b600061350e8261288e565b91506135198361288e565b925082820190508082111561353157613530613464565b5b92915050565b7f4552433732313a20696e76616c696420746f6b656e2049440000000000000000600082015250565b600061356d6018836127e7565b915061357882613537565b602082019050919050565b6000602082019050818103600083015261359c81613560565b9050919050565b7f4552433732313a2061646472657373207a65726f206973206e6f74206120766160008201527f6c6964206f776e65720000000000000000000000000000000000000000000000602082015250565b60006135ff6029836127e7565b915061360a826135a3565b604082019050919050565b6000602082019050818103600083015261362e816135f2565b9050919050565b7f4552433732313a2063616c6c6572206973206e6f7420746f6b656e206f776e6560008201527f72206e6f7220617070726f766564000000000000000000000000000000000000602082015250565b6000613691602e836127e7565b915061369c82613635565b604082019050919050565b600060208201905081810360008301526136c081613684565b9050919050565b60006136d382856133d7565b91506136df82846133d7565b91508190509392505050565b7f4552433732313a207472616e736665722063616c6c6572206973206e6f74206f60008201527f776e6572206e6f7220617070726f766564000000000000000000000000000000602082015250565b60006137476031836127e7565b9150613752826136eb565b604082019050919050565b600060208201905081810360008301526137768161373a565b9050919050565b61378681612ef7565b82525050565b60006020820190506137a1600083018461377d565b92915050565b7f4f776e61626c653a206e6577206f776e657220697320746865207a65726f206160008201527f6464726573730000000000000000000000000000000000000000000000000000602082015250565b60006138036026836127e7565b915061380e826137a7565b604082019050919050565b60006020820190508181036000830152613832816137f6565b9050919050565b7f4f776e61626c653a2063616c6c6572206973206e6f7420746865206f776e6572600082015250565b600061386f6020836127e7565b915061387a82613839565b602082019050919050565b6000602082019050818103600083015261389e81613862565b9050919050565b7f45524337323155524953746f726167653a2055524920736574206f66206e6f6e60008201527f6578697374656e7420746f6b656e000000000000000000000000000000000000602082015250565b6000613901602e836127e7565b915061390c826138a5565b604082019050919050565b60006020820190508181036000830152613930816138f4565b9050919050565b7f4552433732313a20617070726f766520746f2063616c6c657200000000000000600082015250565b600061396d6019836127e7565b915061397882613937565b602082019050919050565b6000602082019050818103600083015261399c81613960565b9050919050565b7f4552433732313a207472616e7366657220746f206e6f6e20455243373231526560008201527f63656976657220696d706c656d656e7465720000000000000000000000000000602082015250565b60006139ff6032836127e7565b9150613a0a826139a3565b604082019050919050565b60006020820190508181036000830152613a2e816139f2565b9050919050565b7f4552433732313a207472616e736665722066726f6d20696e636f72726563742060008201527f6f776e6572000000000000000000000000000000000000000000000000000000602082015250565b6000613a916025836127e7565b9150613a9c82613a35565b604082019050919050565b60006020820190508181036000830152613ac081613a84565b9050919050565b7f4552433732313a207472616e7366657220746f20746865207a65726f2061646460008201527f7265737300000000000000000000000000000000000000000000000000000000602082015250565b6000613b236024836127e7565b9150613b2e82613ac7565b604082019050919050565b60006020820190508181036000830152613b5281613b16565b9050919050565b600081519050919050565b600082825260208201905092915050565b6000613b8082613b59565b613b8a8185613b64565b9350613b9a8185602086016127f8565b613ba381612822565b840191505092915050565b6000608082019050613bc36000830187612923565b613bd06020830186612923565b613bdd6040830185612c06565b8181036060830152613bef8184613b75565b905095945050505050565b600081519050613c098161274d565b92915050565b600060208284031215613c2557613c24612717565b5b6000613c3384828501613bfa565b91505092915050565b6000613c478261288e565b91507fffffffffffffffffffffffffffffffffffffffffffffffffffffffffffffffff8203613c7957613c78613464565b5b600182019050919050565b7f4e487b7100000000000000000000000000000000000000000000000000000000600052601260045260246000fd5b6000613cbe8261288e565b9150613cc98361288e565b925082613cd957613cd8613c84565b5b828204905092915050565b6000613cef8261288e565b9150613cfa8361288e565b925082613d0a57613d09613c84565b5b828206905092915050565b7f4e487b7100000000000000000000000000000000000000000000000000000000600052603260045260246000fd5b7f4552433732313a206d696e7420746f20746865207a65726f2061646472657373600082015250565b6000613d7a6020836127e7565b9150613d8582613d44565b602082019050919050565b60006020820190508181036000830152613da981613d6d565b9050919050565b7f4552433732313a20746f6b656e20616c7265616479206d696e74656400000000600082015250565b6000613de6601c836127e7565b9150613df182613db0565b602082019050919050565b60006020820190508181036000830152613e1581613dd9565b905091905056fea26469706673582212209c7e5ee41a5de06faee0ebe193e7caef53b519b3e46f967a6d77ae933142bf2d64736f6c63430008110033",
  "immutableReferences": {},
  "source": "// SPDX-License-Identifier: MIT\n\npragma solidity 0.8.17;\n\nimport \"@openzeppelin/contracts/token/ERC721/extensions/ERC721URIStorage.sol\";\nimport \"@openzeppelin/contracts/utils/Counters.sol\";\nimport \"@openzeppelin/contracts/access/Ownable.sol\";\nimport './ERC4907.sol';\n\nerror Leasing__PaymentTooLateOrLeaseAllPaid();\nerror Leasing__OnlyCurrentLeaserCanRenew();\nerror Leasing__WrongLessee();\n\n///@title A lease creator \n///@author Yannick J.\n///@notice You can use this contract to manage all your lease contract\n///@notice You cannot sell/transfer the car while there is a lessee\n///@dev The classic transferFrom and safeTransferFrom functions are overriden to allow the lessee to exercise his buy option \n///@dev Once the lessee bought got the ownership of the lease, he is free to sell/transfer it\ncontract Leasing is ERC721URIStorage, ERC4907, Ownable {\n    \n    using Counters for Counters.Counter;\n    Counters.Counter private _tokenIds;\n\n    struct LeasingInfo {\n        string carModel;\n        string lesseeName;\n        address lesseeAddress;\n        uint256 leaseStartingDate;\n        uint256 leasingDurationInMonth;\n        uint256 upfrontPayment;\n        uint256 monthlyPayment;\n        uint256 purchaseOptionPrice;\n        uint256 numberOfPaymentMade;\n    }\n\n///@dev Event emitted when a new lease is created\n    event LeasingMinted(\n        uint256 indexed tokenId,\n        string  indexed tokenURI, \n        string  indexed carModel,\n        uint256 leasingDurationInMonth,\n        uint256 upfrontPayment,\n        uint256 monthlyPayment,\n        uint256 purchaseOptionPrice\n    );\n\n///@dev Event emitted when there is a lessee for a lease\n///@param tokenId is the car leased\n///@param lesseeAddress is the address of the lessee\n///@param lesseeName is the name of the lessee\n    event LesseeSetted(uint256 indexed tokenId, address indexed lesseeAddress, string indexed lesseeName);\n\n///@dev Event emitted when the monthly payment of the lease is paid\n///@param lessee is the address of the lessee\n///@param rent is the amount paid\n    event MonthlyLeasingPaid(uint256 indexed tokenId, address indexed lessee, uint256 indexed rent);\n\n    bool internal _purchased;\n    mapping(uint256 => LeasingInfo) public leases;\n\n    constructor() ERC4907(\"Car Leasing\", \"CL\") {}\n\n///@notice Provide all the parameter of the lease at mint\n///@dev While listing on a marketplace, these parameters have to be used in order to meet the condition of the lease\n///@param _leasingDurationInMonth the duration of the lease\n///@param _upfrontPayment the payment that have to be paid when entering the lease\n///@param _monthlyPayment the amount that the lessee have to pay to honor his lease contract\n///@param _purchaseOptionPrice the amount that have to be paid at the end of the lease if the lessee want to own the car\n    function mintLeasingNft(\n        string memory _tokenURI, \n        string memory _carModel,\n        uint256 _leasingDurationInMonth,\n        uint256 _upfrontPayment,\n        uint256 _monthlyPayment,\n        uint256 _purchaseOptionPrice\n        ) payable public onlyOwner returns (uint256) {\n        _tokenIds.increment();\n        uint256 newItemId = _tokenIds.current();\n        leases[newItemId].leasingDurationInMonth = _leasingDurationInMonth;\n        leases[newItemId].carModel = _carModel;\n        leases[newItemId].upfrontPayment = _upfrontPayment;\n        leases[newItemId].monthlyPayment = _monthlyPayment;\n        leases[newItemId].purchaseOptionPrice = _purchaseOptionPrice;\n        _safeMint(msg.sender, newItemId);\n        _setTokenURI(newItemId, _tokenURI);\n        emit LeasingMinted(newItemId, _tokenURI, _carModel, _leasingDurationInMonth, _upfrontPayment, _monthlyPayment, _purchaseOptionPrice);\n        return newItemId;       \n    }\n\n///@notice All the lessee informations is set \n///@dev The expires parameters is defined to match the requirement of a lease contract\n///@param _lesseeAddress is the address of the lessee\n///@param _lesseeName is the name of the lessee\n    function setLessee(uint256 _tokenId, address _lesseeAddress, string memory _lesseeName) external {\n        leases[_tokenId].leaseStartingDate = block.timestamp;\n        leases[_tokenId].lesseeAddress = _lesseeAddress;\n        leases[_tokenId].lesseeName = _lesseeName;\n        _users[_tokenId].expires = uint64(block.timestamp + 30 days);\n        setUser(_tokenId, _lesseeAddress, _users[_tokenId].expires);\n        emit LesseeSetted(_tokenId, _lesseeAddress, _lesseeName);\n    }\n\n///@notice The monthly lease have to be paid before the expiration date\n///@dev This function track the number of payment that have to be made during the lifetime of a lease\n    function renewMonthlyLeasing(uint256 _tokenId) external payable {\n        if(block.timestamp > _users[_tokenId].expires || leases[_tokenId].numberOfPaymentMade >= leases[_tokenId].leasingDurationInMonth - 1) {\n            revert Leasing__PaymentTooLateOrLeaseAllPaid();\n        }\n        uint64 nextPaymentDate = _users[_tokenId].expires + 30 days;\n        leases[_tokenId].numberOfPaymentMade += 1; \n        setUser(_tokenId, leases[_tokenId].lesseeAddress, nextPaymentDate);\n        emit MonthlyLeasingPaid(_tokenId, msg.sender, msg.value);\n    }\n\n///@notice The ownership of the car can only be transfered to the lessee if the option to buy is exercised\n///@dev You can use this function to trigger the transfer of the car if the condition defined are met\n    function optionToBuy() external {\n        _purchased = true;\n    }\n\n///@notice While there is a lessee, the car can only be transfered to the lessee when he decide to exercise the option to buy\n///@dev This function override the standard transferFrom function\n    function transferFrom(address from, address to, uint256 tokenId) public override {\n        if (_users[tokenId].user != address(0)) {\n            if (!_purchased || to != leases[tokenId].lesseeAddress) {\n                revert Leasing__WrongLessee();\n            }\n        }\n        super.transferFrom(from, to, tokenId);\n    }\n\n///@notice While there is a lessee, the car can only be transfered to the lessee when he decide to exercise the option to buy\n///@dev This function override the standard transferFrom function\n    function safeTransferFrom(address from, address to, uint256 tokenId) public override {\n        if (_users[tokenId].user != address(0)) {\n            if (!_purchased || to != leases[tokenId].lesseeAddress) {\n                revert Leasing__WrongLessee();\n            }\n        }\n        super.safeTransferFrom(from, to, tokenId);\n    }\n\n    function supportsInterface(bytes4 interfaceId) public view virtual override(ERC721, ERC4907) returns (bool) {\n        return super.supportsInterface(interfaceId);\n    }\n\n}",
  "sourcePath": "/home/yan/solidity/fcc/rentableNFT/contracts/Leasing.sol",
  "compiler": {
    "name": "solc",
    "version": "0.8.17+commit.8df45f5f.Emscripten.clang"
  },
  "schemaVersion": "3.4.8",
  "updatedAt": "2022-09-14T18:04:30.554Z",
  "devdoc": {
    "author": "Yannick J.",
    "details": "The classic transferFrom and safeTransferFrom functions are overriden to allow the lessee to exercise his buy option Once the lessee bought got the ownership of the lease, he is free to sell/transfer it",
    "events": {
      "LeasingMinted(uint256,string,string,uint256,uint256,uint256,uint256)": {
        "details": "Event emitted when a new lease is created"
      },
      "LesseeSetted(uint256,address,string)": {
        "details": "Event emitted when there is a lessee for a lease",
        "params": {
          "lesseeAddress": "is the address of the lessee",
          "lesseeName": "is the name of the lessee",
          "tokenId": "is the car leased"
        }
      },
      "MonthlyLeasingPaid(uint256,address,uint256)": {
        "details": "Event emitted when the monthly payment of the lease is paid",
        "params": {
          "lessee": "is the address of the lessee",
          "rent": "is the amount paid"
        }
      }
    },
    "kind": "dev",
    "methods": {
      "approve(address,uint256)": {
        "details": "See {IERC721-approve}."
      },
      "balanceOf(address)": {
        "details": "See {IERC721-balanceOf}."
      },
      "getApproved(uint256)": {
        "details": "See {IERC721-getApproved}."
      },
      "isApprovedForAll(address,address)": {
        "details": "See {IERC721-isApprovedForAll}."
      },
      "mintLeasingNft(string,string,uint256,uint256,uint256,uint256)": {
        "details": "While listing on a marketplace, these parameters have to be used in order to meet the condition of the lease",
        "params": {
          "_leasingDurationInMonth": "the duration of the lease",
          "_monthlyPayment": "the amount that the lessee have to pay to honor his lease contract",
          "_purchaseOptionPrice": "the amount that have to be paid at the end of the lease if the lessee want to own the car",
          "_upfrontPayment": "the payment that have to be paid when entering the lease"
        }
      },
      "name()": {
        "details": "See {IERC721Metadata-name}."
      },
      "optionToBuy()": {
        "details": "You can use this function to trigger the transfer of the car if the condition defined are met"
      },
      "owner()": {
        "details": "Returns the address of the current owner."
      },
      "ownerOf(uint256)": {
        "details": "See {IERC721-ownerOf}."
      },
      "renewMonthlyLeasing(uint256)": {
        "details": "This function track the number of payment that have to be made during the lifetime of a lease"
      },
      "renounceOwnership()": {
        "details": "Leaves the contract without owner. It will not be possible to call `onlyOwner` functions anymore. Can only be called by the current owner. NOTE: Renouncing ownership will leave the contract without an owner, thereby removing any functionality that is only available to the owner."
      },
      "safeTransferFrom(address,address,uint256)": {
        "details": "This function override the standard transferFrom function"
      },
      "safeTransferFrom(address,address,uint256,bytes)": {
        "details": "See {IERC721-safeTransferFrom}."
      },
      "setApprovalForAll(address,bool)": {
        "details": "See {IERC721-setApprovalForAll}."
      },
      "setLessee(uint256,address,string)": {
        "details": "The expires parameters is defined to match the requirement of a lease contract",
        "params": {
          "_lesseeAddress": "is the address of the lessee",
          "_lesseeName": "is the name of the lessee"
        }
      },
      "setUser(uint256,address,uint64)": {
        "details": "The zero address indicates there is no user Throws if `tokenId` is not valid NFT",
        "params": {
          "expires": "UNIX timestamp, The new user could use the NFT before expires",
          "user": "The new user of the NFT"
        }
      },
      "symbol()": {
        "details": "See {IERC721Metadata-symbol}."
      },
      "tokenURI(uint256)": {
        "details": "See {IERC721Metadata-tokenURI}."
      },
      "transferFrom(address,address,uint256)": {
        "details": "This function override the standard transferFrom function"
      },
      "transferOwnership(address)": {
        "details": "Transfers ownership of the contract to a new account (`newOwner`). Can only be called by the current owner."
      },
      "userExpires(uint256)": {
        "details": "The zero value indicates that there is no user",
        "params": {
          "tokenId": "The NFT to get the user expires for"
        },
        "returns": {
          "_0": "The user expires for this NFT"
        }
      },
      "userOf(uint256)": {
        "details": "The zero address indicates that there is no user or the user is expired",
        "params": {
          "tokenId": "The NFT to get the user address for"
        },
        "returns": {
          "_0": "The user address for this NFT"
        }
      }
    },
    "title": "A lease creator ",
    "version": 1
  },
  "userdoc": {
    "events": {
      "UpdateUser(uint256,address,uint64)": {
        "notice": "Emitted when the `user` of an NFT or the `expires` of the `user` is changed The zero address for user indicates that there is no user address"
      }
    },
    "kind": "user",
    "methods": {
      "mintLeasingNft(string,string,uint256,uint256,uint256,uint256)": {
        "notice": "Provide all the parameter of the lease at mint"
      },
      "optionToBuy()": {
        "notice": "The ownership of the car can only be transfered to the lessee if the option to buy is exercised"
      },
      "renewMonthlyLeasing(uint256)": {
        "notice": "The monthly lease have to be paid before the expiration date"
      },
      "safeTransferFrom(address,address,uint256)": {
        "notice": "While there is a lessee, the car can only be transfered to the lessee when he decide to exercise the option to buy"
      },
      "setLessee(uint256,address,string)": {
        "notice": "All the lessee informations is set "
      },
      "setUser(uint256,address,uint64)": {
        "notice": "set the user and expires of a NFT"
      },
      "transferFrom(address,address,uint256)": {
        "notice": "While there is a lessee, the car can only be transfered to the lessee when he decide to exercise the option to buy"
      },
      "userExpires(uint256)": {
        "notice": "Get the user expires of an NFT"
      },
      "userOf(uint256)": {
        "notice": "Get the user address of an NFT"
      }
    },
    "notice": "You can use this contract to manage all your lease contractYou cannot sell/transfer the car while there is a lessee",
    "version": 1
  }
}