{
  "contractName": "Marketplace",
  "abi": [
    {
      "inputs": [],
      "name": "Marketplace__AmountSentTooLow",
      "type": "error"
    },
    {
      "inputs": [],
      "name": "Marketplace__NftAlreadyRented",
      "type": "error"
    },
    {
      "inputs": [],
      "name": "Marketplace__PaymentAmountDoesNotMatch",
      "type": "error"
    },
    {
      "inputs": [],
      "name": "Marketplace__WithdrawFailed",
      "type": "error"
    },
    {
      "inputs": [],
      "name": "Marketplace__YouCannotPurchaseYet",
      "type": "error"
    },
    {
      "inputs": [],
      "name": "Marketplace__YouHaveNoBalanceToWithdraw",
      "type": "error"
    },
    {
      "inputs": [],
      "name": "Marketplace__lastRentingPeriodNotOver",
      "type": "error"
    },
    {
      "inputs": [],
      "name": "Marketplace__notTheOwnerOfTheNft",
      "type": "error"
    },
    {
      "anonymous": false,
      "inputs": [
        {
          "indexed": true,
          "internalType": "address",
          "name": "lessee",
          "type": "address"
        },
        {
          "indexed": true,
          "internalType": "address",
          "name": "nftAddress",
          "type": "address"
        },
        {
          "indexed": true,
          "internalType": "uint256",
          "name": "tokenId",
          "type": "uint256"
        },
        {
          "indexed": false,
          "internalType": "string",
          "name": "lesseeName",
          "type": "string"
        }
      ],
      "name": "CarLeased",
      "type": "event"
    },
    {
      "anonymous": false,
      "inputs": [
        {
          "indexed": true,
          "internalType": "address",
          "name": "lessee",
          "type": "address"
        },
        {
          "indexed": true,
          "internalType": "address",
          "name": "nftAddress",
          "type": "address"
        },
        {
          "indexed": true,
          "internalType": "uint256",
          "name": "tokenId",
          "type": "uint256"
        }
      ],
      "name": "LeasePaid",
      "type": "event"
    },
    {
      "anonymous": false,
      "inputs": [
        {
          "indexed": false,
          "internalType": "address",
          "name": "owner",
          "type": "address"
        },
        {
          "indexed": false,
          "internalType": "address",
          "name": "tenant",
          "type": "address"
        },
        {
          "indexed": true,
          "internalType": "address",
          "name": "nftAddress",
          "type": "address"
        },
        {
          "indexed": true,
          "internalType": "uint256",
          "name": "tokenId",
          "type": "uint256"
        },
        {
          "indexed": true,
          "internalType": "uint256",
          "name": "rentPrice",
          "type": "uint256"
        },
        {
          "indexed": false,
          "internalType": "uint256",
          "name": "upfrontPayment",
          "type": "uint256"
        },
        {
          "indexed": false,
          "internalType": "uint256",
          "name": "purchaseOptionPrice",
          "type": "uint256"
        },
        {
          "indexed": false,
          "internalType": "uint256",
          "name": "leasingDurationInMonth",
          "type": "uint256"
        },
        {
          "indexed": false,
          "internalType": "uint256",
          "name": "numberOfPaymentMade",
          "type": "uint256"
        },
        {
          "indexed": false,
          "internalType": "uint64",
          "name": "rentDuration",
          "type": "uint64"
        },
        {
          "indexed": false,
          "internalType": "uint64",
          "name": "expires",
          "type": "uint64"
        }
      ],
      "name": "NftListed",
      "type": "event"
    },
    {
      "anonymous": false,
      "inputs": [
        {
          "indexed": true,
          "internalType": "address",
          "name": "tenant",
          "type": "address"
        },
        {
          "indexed": true,
          "internalType": "address",
          "name": "nftAddress",
          "type": "address"
        },
        {
          "indexed": true,
          "internalType": "uint256",
          "name": "tokenId",
          "type": "uint256"
        },
        {
          "indexed": false,
          "internalType": "uint256",
          "name": "rent",
          "type": "uint256"
        },
        {
          "indexed": false,
          "internalType": "uint256",
          "name": "expires",
          "type": "uint256"
        }
      ],
      "name": "NftRented",
      "type": "event"
    },
    {
      "anonymous": false,
      "inputs": [
        {
          "indexed": true,
          "internalType": "address",
          "name": "buyer",
          "type": "address"
        },
        {
          "indexed": true,
          "internalType": "address",
          "name": "_nftAddress",
          "type": "address"
        },
        {
          "indexed": true,
          "internalType": "uint256",
          "name": "tokenId",
          "type": "uint256"
        }
      ],
      "name": "OptionExercised",
      "type": "event"
    },
    {
      "inputs": [
        {
          "internalType": "address",
          "name": "",
          "type": "address"
        },
        {
          "internalType": "uint256",
          "name": "",
          "type": "uint256"
        }
      ],
      "name": "listings",
      "outputs": [
        {
          "internalType": "address",
          "name": "owner",
          "type": "address"
        },
        {
          "internalType": "address",
          "name": "tenant",
          "type": "address"
        },
        {
          "internalType": "address",
          "name": "nftAddress",
          "type": "address"
        },
        {
          "internalType": "uint256",
          "name": "tokenId",
          "type": "uint256"
        },
        {
          "internalType": "uint256",
          "name": "rentPrice",
          "type": "uint256"
        },
        {
          "internalType": "uint256",
          "name": "upfrontPayment",
          "type": "uint256"
        },
        {
          "internalType": "uint256",
          "name": "purchaseOptionPrice",
          "type": "uint256"
        },
        {
          "internalType": "uint256",
          "name": "leasingDurationInMonth",
          "type": "uint256"
        },
        {
          "internalType": "uint256",
          "name": "numberOfPaymentMade",
          "type": "uint256"
        },
        {
          "internalType": "uint64",
          "name": "rentDuration",
          "type": "uint64"
        },
        {
          "internalType": "uint64",
          "name": "expires",
          "type": "uint64"
        }
      ],
      "stateMutability": "view",
      "type": "function"
    },
    {
      "inputs": [
        {
          "internalType": "address",
          "name": "",
          "type": "address"
        }
      ],
      "name": "rentBalance",
      "outputs": [
        {
          "internalType": "uint256",
          "name": "",
          "type": "uint256"
        }
      ],
      "stateMutability": "view",
      "type": "function"
    },
    {
      "inputs": [
        {
          "internalType": "address",
          "name": "_nftAddress",
          "type": "address"
        },
        {
          "internalType": "uint256",
          "name": "_tokenId",
          "type": "uint256"
        },
        {
          "internalType": "uint256",
          "name": "_rentPrice",
          "type": "uint256"
        },
        {
          "internalType": "uint256",
          "name": "_upFrontPayment",
          "type": "uint256"
        },
        {
          "internalType": "uint256",
          "name": "_purchasOptionPrice",
          "type": "uint256"
        },
        {
          "internalType": "uint256",
          "name": "_leasingDurationInMonth",
          "type": "uint256"
        },
        {
          "internalType": "uint256",
          "name": "_numberOfPaymentMade",
          "type": "uint256"
        },
        {
          "internalType": "uint64",
          "name": "_rentDuration",
          "type": "uint64"
        }
      ],
      "name": "listNft",
      "outputs": [],
      "stateMutability": "payable",
      "type": "function"
    },
    {
      "inputs": [
        {
          "internalType": "address",
          "name": "_nftAddress",
          "type": "address"
        },
        {
          "internalType": "uint256",
          "name": "_tokenId",
          "type": "uint256"
        }
      ],
      "name": "rentNft",
      "outputs": [],
      "stateMutability": "payable",
      "type": "function"
    },
    {
      "inputs": [
        {
          "internalType": "address",
          "name": "_nftAddress",
          "type": "address"
        },
        {
          "internalType": "uint256",
          "name": "_tokenId",
          "type": "uint256"
        },
        {
          "internalType": "string",
          "name": "_lesseeName",
          "type": "string"
        }
      ],
      "name": "lease",
      "outputs": [],
      "stateMutability": "payable",
      "type": "function"
    },
    {
      "inputs": [
        {
          "internalType": "address",
          "name": "_nftAddress",
          "type": "address"
        },
        {
          "internalType": "uint256",
          "name": "_tokenId",
          "type": "uint256"
        }
      ],
      "name": "payLease",
      "outputs": [],
      "stateMutability": "payable",
      "type": "function"
    },
    {
      "inputs": [
        {
          "internalType": "address",
          "name": "_nftAddress",
          "type": "address"
        },
        {
          "internalType": "uint256",
          "name": "_tokenId",
          "type": "uint256"
        }
      ],
      "name": "buyLease",
      "outputs": [],
      "stateMutability": "payable",
      "type": "function"
    },
    {
      "inputs": [],
      "name": "withdrawRent",
      "outputs": [],
      "stateMutability": "nonpayable",
      "type": "function"
    }
  ],
  "bytecode": "0x608060405234801561001057600080fd5b506001600081905550611fcb806100286000396000f3fe60806040526004361061007a5760003560e01c8063a06530441161004e578063a065304414610115578063aba865f114610131578063f0c5452f1461014d578063ff18512e146101695761007a565b806207df301461007f5780630643ad10146100c65780632b8bf5a6146100e25780636322182e146100fe575b600080fd5b34801561008b57600080fd5b506100a660048036038101906100a19190611795565b6101a6565b6040516100bd9b9a99989796959493929190611816565b60405180910390f35b6100e060048036038101906100db9190611795565b610295565b005b6100fc60048036038101906100f79190611a07565b61051e565b005b34801561010a57600080fd5b506101136107ac565b005b61012f600480360381019061012a9190611aa2565b6109aa565b005b61014b60048036038101906101469190611795565b610e06565b005b61016760048036038101906101629190611795565b6112f3565b005b34801561017557600080fd5b50610190600480360381019061018b9190611b58565b6116d5565b60405161019d9190611b85565b60405180910390f35b6001602052816000526040600020602052806000526040600020600091509150508060000160009054906101000a900473ffffffffffffffffffffffffffffffffffffffff16908060010160009054906101000a900473ffffffffffffffffffffffffffffffffffffffff16908060020160009054906101000a900473ffffffffffffffffffffffffffffffffffffffff16908060030154908060040154908060050154908060060154908060070154908060080154908060090160009054906101000a900467ffffffffffffffff16908060090160089054906101000a900467ffffffffffffffff1690508b565b600160008373ffffffffffffffffffffffffffffffffffffffff1673ffffffffffffffffffffffffffffffffffffffff1681526020019081526020016000206000828152602001908152602001600020600401543414610321576040517fc5104e0100000000000000000000000000000000000000000000000000000000815260040160405180910390fd5b3460026000600160008673ffffffffffffffffffffffffffffffffffffffff1673ffffffffffffffffffffffffffffffffffffffff168152602001908152602001600020600085815260200190815260200160002060000160009054906101000a900473ffffffffffffffffffffffffffffffffffffffff1673ffffffffffffffffffffffffffffffffffffffff1673ffffffffffffffffffffffffffffffffffffffff16815260200190815260200160002060008282546103e39190611bcf565b9250508190555060018060008473ffffffffffffffffffffffffffffffffffffffff1673ffffffffffffffffffffffffffffffffffffffff1681526020019081526020016000206000838152602001908152602001600020600801600082825461044d9190611bcf565b925050819055508173ffffffffffffffffffffffffffffffffffffffff1663526bd4f9826040518263ffffffff1660e01b815260040161048d9190611b85565b600060405180830381600087803b1580156104a757600080fd5b505af11580156104bb573d6000803e3d6000fd5b50505050808273ffffffffffffffffffffffffffffffffffffffff163373ffffffffffffffffffffffffffffffffffffffff167f54a5059170d46faa8f81a3cf0264bc10e8f2a20239803630b23c36323d01218060405160405180910390a45050565b600160008473ffffffffffffffffffffffffffffffffffffffff1673ffffffffffffffffffffffffffffffffffffffff168152602001908152602001600020600083815260200190815260200160002060040154600160008573ffffffffffffffffffffffffffffffffffffffff1673ffffffffffffffffffffffffffffffffffffffff1681526020019081526020016000206000848152602001908152602001600020600501546105d09190611bcf565b341015610609576040517f2462411200000000000000000000000000000000000000000000000000000000815260040160405180910390fd5b3460026000600160008773ffffffffffffffffffffffffffffffffffffffff1673ffffffffffffffffffffffffffffffffffffffff168152602001908152602001600020600086815260200190815260200160002060000160009054906101000a900473ffffffffffffffffffffffffffffffffffffffff1673ffffffffffffffffffffffffffffffffffffffff1673ffffffffffffffffffffffffffffffffffffffff16815260200190815260200160002060008282546106cb9190611bcf565b925050819055508273ffffffffffffffffffffffffffffffffffffffff1663d2a2764b8333846040518463ffffffff1660e01b815260040161070f93929190611c82565b600060405180830381600087803b15801561072957600080fd5b505af115801561073d573d6000803e3d6000fd5b50505050818373ffffffffffffffffffffffffffffffffffffffff163373ffffffffffffffffffffffffffffffffffffffff167fe15acf17de1a4f9a490259ef990cfde0840880b6bd87a52ee3ca9f2ebc7aadcd8460405161079f9190611cc0565b60405180910390a4505050565b6002600054036107f1576040517f08c379a00000000000000000000000000000000000000000000000000000000081526004016107e890611d2e565b60405180910390fd5b60026000819055506000600260003373ffffffffffffffffffffffffffffffffffffffff1673ffffffffffffffffffffffffffffffffffffffff1681526020019081526020016000205411610872576040517fd43850d400000000000000000000000000000000000000000000000000000000815260040160405180910390fd5b6000600260003373ffffffffffffffffffffffffffffffffffffffff1673ffffffffffffffffffffffffffffffffffffffff1681526020019081526020016000205490506000600260003373ffffffffffffffffffffffffffffffffffffffff1673ffffffffffffffffffffffffffffffffffffffff1681526020019081526020016000208190555060003373ffffffffffffffffffffffffffffffffffffffff168260405161092190611d7f565b60006040518083038185875af1925050503d806000811461095e576040519150601f19603f3d011682016040523d82523d6000602084013e610963565b606091505b505090508061099e576040517fda5ba7c700000000000000000000000000000000000000000000000000000000815260040160405180910390fd5b50506001600081905550565b8773ffffffffffffffffffffffffffffffffffffffff16636352211e886040518263ffffffff1660e01b81526004016109e39190611b85565b602060405180830381865afa158015610a00573d6000803e3d6000fd5b505050506040513d601f19601f82011682018060405250810190610a249190611da9565b73ffffffffffffffffffffffffffffffffffffffff163373ffffffffffffffffffffffffffffffffffffffff1614610a88576040517f941d8dbe00000000000000000000000000000000000000000000000000000000815260040160405180910390fd5b600160008973ffffffffffffffffffffffffffffffffffffffff1673ffffffffffffffffffffffffffffffffffffffff168152602001908152602001600020600088815260200190815260200160002060090160089054906101000a900467ffffffffffffffff1667ffffffffffffffff16421015610b33576040517f780a181300000000000000000000000000000000000000000000000000000000815260040160405180910390fd5b6040518061016001604052803373ffffffffffffffffffffffffffffffffffffffff168152602001600073ffffffffffffffffffffffffffffffffffffffff1681526020018973ffffffffffffffffffffffffffffffffffffffff1681526020018881526020018781526020018681526020018581526020018481526020018381526020018267ffffffffffffffff168152602001600067ffffffffffffffff16815250600160008a73ffffffffffffffffffffffffffffffffffffffff1673ffffffffffffffffffffffffffffffffffffffff168152602001908152602001600020600089815260200190815260200160002060008201518160000160006101000a81548173ffffffffffffffffffffffffffffffffffffffff021916908373ffffffffffffffffffffffffffffffffffffffff16021790555060208201518160010160006101000a81548173ffffffffffffffffffffffffffffffffffffffff021916908373ffffffffffffffffffffffffffffffffffffffff16021790555060408201518160020160006101000a81548173ffffffffffffffffffffffffffffffffffffffff021916908373ffffffffffffffffffffffffffffffffffffffff160217905550606082015181600301556080820151816004015560a0820151816005015560c0820151816006015560e0820151816007015561010082015181600801556101208201518160090160006101000a81548167ffffffffffffffff021916908367ffffffffffffffff1602179055506101408201518160090160086101000a81548167ffffffffffffffff021916908367ffffffffffffffff16021790555090505085878973ffffffffffffffffffffffffffffffffffffffff167f85fdb67e96b8e929c2562fb6226d38d053c27f80691c825b545972f3407581d53360008a8a8a8a8a6000604051610df4989796959493929190611e1b565b60405180910390a45050505050505050565b600260005403610e4b576040517f08c379a0000000000000000000000000000000000000000000000000000000008152600401610e4290611d2e565b60405180910390fd5b6002600081905550600160008373ffffffffffffffffffffffffffffffffffffffff1673ffffffffffffffffffffffffffffffffffffffff168152602001908152602001600020600082815260200190815260200160002060040154341015610ee0576040517f2462411200000000000000000000000000000000000000000000000000000000815260040160405180910390fd5b600073ffffffffffffffffffffffffffffffffffffffff16600160008473ffffffffffffffffffffffffffffffffffffffff1673ffffffffffffffffffffffffffffffffffffffff168152602001908152602001600020600083815260200190815260200160002060010160009054906101000a900473ffffffffffffffffffffffffffffffffffffffff1673ffffffffffffffffffffffffffffffffffffffff1614610fb9576040517f24cf59a400000000000000000000000000000000000000000000000000000000815260040160405180910390fd5b3460026000600160008673ffffffffffffffffffffffffffffffffffffffff1673ffffffffffffffffffffffffffffffffffffffff168152602001908152602001600020600085815260200190815260200160002060000160009054906101000a900473ffffffffffffffffffffffffffffffffffffffff1673ffffffffffffffffffffffffffffffffffffffff1673ffffffffffffffffffffffffffffffffffffffff168152602001908152602001600020600082825461107b9190611bcf565b925050819055506000600160008473ffffffffffffffffffffffffffffffffffffffff1673ffffffffffffffffffffffffffffffffffffffff168152602001908152602001600020600083815260200190815260200160002060090160009054906101000a900467ffffffffffffffff1667ffffffffffffffff16426111019190611bcf565b90508273ffffffffffffffffffffffffffffffffffffffff1663e030565e8333846040518463ffffffff1660e01b815260040161114093929190611e99565b600060405180830381600087803b15801561115a57600080fd5b505af115801561116e573d6000803e3d6000fd5b5050505033600160008573ffffffffffffffffffffffffffffffffffffffff1673ffffffffffffffffffffffffffffffffffffffff168152602001908152602001600020600084815260200190815260200160002060010160006101000a81548173ffffffffffffffffffffffffffffffffffffffff021916908373ffffffffffffffffffffffffffffffffffffffff16021790555080600160008573ffffffffffffffffffffffffffffffffffffffff1673ffffffffffffffffffffffffffffffffffffffff168152602001908152602001600020600084815260200190815260200160002060090160086101000a81548167ffffffffffffffff021916908367ffffffffffffffff160217905550818373ffffffffffffffffffffffffffffffffffffffff163373ffffffffffffffffffffffffffffffffffffffff167f7e428290fbfd9f3d8f4893f77c114259db78a798bd8a94189cb15b7899cdd53434856040516112de929190611f01565b60405180910390a45060016000819055505050565b600160008373ffffffffffffffffffffffffffffffffffffffff1673ffffffffffffffffffffffffffffffffffffffff168152602001908152602001600020600082815260200190815260200160002060060154341015611380576040517f2462411200000000000000000000000000000000000000000000000000000000815260040160405180910390fd5b60018060008473ffffffffffffffffffffffffffffffffffffffff1673ffffffffffffffffffffffffffffffffffffffff1681526020019081526020016000206000838152602001908152602001600020600701546113df9190611f2a565b600160008473ffffffffffffffffffffffffffffffffffffffff1673ffffffffffffffffffffffffffffffffffffffff168152602001908152602001600020600083815260200190815260200160002060080154101561146b576040517f2e6754cf00000000000000000000000000000000000000000000000000000000815260040160405180910390fd5b3460026000600160008673ffffffffffffffffffffffffffffffffffffffff1673ffffffffffffffffffffffffffffffffffffffff168152602001908152602001600020600085815260200190815260200160002060000160009054906101000a900473ffffffffffffffffffffffffffffffffffffffff1673ffffffffffffffffffffffffffffffffffffffff1673ffffffffffffffffffffffffffffffffffffffff168152602001908152602001600020600082825461152d9190611bcf565b925050819055508173ffffffffffffffffffffffffffffffffffffffff1663574a740c6040518163ffffffff1660e01b8152600401600060405180830381600087803b15801561157c57600080fd5b505af1158015611590573d6000803e3d6000fd5b505050508173ffffffffffffffffffffffffffffffffffffffff166342842e0e600160008573ffffffffffffffffffffffffffffffffffffffff1673ffffffffffffffffffffffffffffffffffffffff168152602001908152602001600020600084815260200190815260200160002060000160009054906101000a900473ffffffffffffffffffffffffffffffffffffffff1633846040518463ffffffff1660e01b815260040161164493929190611f5e565b600060405180830381600087803b15801561165e57600080fd5b505af1158015611672573d6000803e3d6000fd5b50505050808273ffffffffffffffffffffffffffffffffffffffff163373ffffffffffffffffffffffffffffffffffffffff167f52ff7e64f208cfde8aee30c94c263920816ec81166a452ec84af280596381daf60405160405180910390a45050565b60026020528060005260406000206000915090505481565b6000604051905090565b600080fd5b600080fd5b600073ffffffffffffffffffffffffffffffffffffffff82169050919050565b600061172c82611701565b9050919050565b61173c81611721565b811461174757600080fd5b50565b60008135905061175981611733565b92915050565b6000819050919050565b6117728161175f565b811461177d57600080fd5b50565b60008135905061178f81611769565b92915050565b600080604083850312156117ac576117ab6116f7565b5b60006117ba8582860161174a565b92505060206117cb85828601611780565b9150509250929050565b6117de81611721565b82525050565b6117ed8161175f565b82525050565b600067ffffffffffffffff82169050919050565b611810816117f3565b82525050565b60006101608201905061182c600083018e6117d5565b611839602083018d6117d5565b611846604083018c6117d5565b611853606083018b6117e4565b611860608083018a6117e4565b61186d60a08301896117e4565b61187a60c08301886117e4565b61188760e08301876117e4565b6118956101008301866117e4565b6118a3610120830185611807565b6118b1610140830184611807565b9c9b505050505050505050505050565b600080fd5b600080fd5b6000601f19601f8301169050919050565b7f4e487b7100000000000000000000000000000000000000000000000000000000600052604160045260246000fd5b611914826118cb565b810181811067ffffffffffffffff82111715611933576119326118dc565b5b80604052505050565b60006119466116ed565b9050611952828261190b565b919050565b600067ffffffffffffffff821115611972576119716118dc565b5b61197b826118cb565b9050602081019050919050565b82818337600083830152505050565b60006119aa6119a584611957565b61193c565b9050828152602081018484840111156119c6576119c56118c6565b5b6119d1848285611988565b509392505050565b600082601f8301126119ee576119ed6118c1565b5b81356119fe848260208601611997565b91505092915050565b600080600060608486031215611a2057611a1f6116f7565b5b6000611a2e8682870161174a565b9350506020611a3f86828701611780565b925050604084013567ffffffffffffffff811115611a6057611a5f6116fc565b5b611a6c868287016119d9565b9150509250925092565b611a7f816117f3565b8114611a8a57600080fd5b50565b600081359050611a9c81611a76565b92915050565b600080600080600080600080610100898b031215611ac357611ac26116f7565b5b6000611ad18b828c0161174a565b9850506020611ae28b828c01611780565b9750506040611af38b828c01611780565b9650506060611b048b828c01611780565b9550506080611b158b828c01611780565b94505060a0611b268b828c01611780565b93505060c0611b378b828c01611780565b92505060e0611b488b828c01611a8d565b9150509295985092959890939650565b600060208284031215611b6e57611b6d6116f7565b5b6000611b7c8482850161174a565b91505092915050565b6000602082019050611b9a60008301846117e4565b92915050565b7f4e487b7100000000000000000000000000000000000000000000000000000000600052601160045260246000fd5b6000611bda8261175f565b9150611be58361175f565b9250828201905080821115611bfd57611bfc611ba0565b5b92915050565b600081519050919050565b600082825260208201905092915050565b60005b83811015611c3d578082015181840152602081019050611c22565b60008484015250505050565b6000611c5482611c03565b611c5e8185611c0e565b9350611c6e818560208601611c1f565b611c77816118cb565b840191505092915050565b6000606082019050611c9760008301866117e4565b611ca460208301856117d5565b8181036040830152611cb68184611c49565b9050949350505050565b60006020820190508181036000830152611cda8184611c49565b905092915050565b7f5265656e7472616e637947756172643a207265656e7472616e742063616c6c00600082015250565b6000611d18601f83611c0e565b9150611d2382611ce2565b602082019050919050565b60006020820190508181036000830152611d4781611d0b565b9050919050565b600081905092915050565b50565b6000611d69600083611d4e565b9150611d7482611d59565b600082019050919050565b6000611d8a82611d5c565b9150819050919050565b600081519050611da381611733565b92915050565b600060208284031215611dbf57611dbe6116f7565b5b6000611dcd84828501611d94565b91505092915050565b6000819050919050565b6000819050919050565b6000611e05611e00611dfb84611dd6565b611de0565b6117f3565b9050919050565b611e1581611dea565b82525050565b600061010082019050611e31600083018b6117d5565b611e3e602083018a6117d5565b611e4b60408301896117e4565b611e5860608301886117e4565b611e6560808301876117e4565b611e7260a08301866117e4565b611e7f60c0830185611807565b611e8c60e0830184611e0c565b9998505050505050505050565b6000606082019050611eae60008301866117e4565b611ebb60208301856117d5565b611ec86040830184611807565b949350505050565b6000611eeb611ee6611ee1846117f3565b611de0565b61175f565b9050919050565b611efb81611ed0565b82525050565b6000604082019050611f1660008301856117e4565b611f236020830184611ef2565b9392505050565b6000611f358261175f565b9150611f408361175f565b9250828203905081811115611f5857611f57611ba0565b5b92915050565b6000606082019050611f7360008301866117d5565b611f8060208301856117d5565b611f8d60408301846117e4565b94935050505056fea26469706673582212208f5eb625c912d29b6087af0da13a726cccb747d0df98d623411c3a878ebe1cfc64736f6c63430008110033",
  "immutableReferences": {},
  "source": "// SPDX-License-Identifier: MIT\n\npragma solidity 0.8.17;\n\nimport \"@openzeppelin/contracts/security/ReentrancyGuard.sol\";\nimport \"@openzeppelin/contracts/token/ERC721/IERC721.sol\";\nimport \"./IERC4907.sol\";\nimport \"./Leasing.sol\";\n\ninterface ILeasing {\n    function setLessee(uint256 _tokenId, address _lesseeAddress, string memory _lesseeName) external;\n    function renewMonthlyLeasing(uint256 _tokenId) external payable;\n    function safeTransferFrom(address from, address to, uint256 tokenId) external;\n    function optionToBuy() external;\n}\n\nerror Marketplace__notTheOwnerOfTheNft();\nerror Marketplace__AmountSentTooLow();\nerror Marketplace__NftAlreadyRented();\nerror Marketplace__lastRentingPeriodNotOver();\nerror Marketplace__PaymentAmountDoesNotMatch();\nerror Marketplace__YouCannotPurchaseYet();\nerror Marketplace__YouHaveNoBalanceToWithdraw();\nerror Marketplace__WithdrawFailed();\n\n///@title A marketplace for renting NFT\n///@author Yannick J.\n///@notice You can use this marketplace to list and manage all kind of renting NFT\n///@dev The marketplace is lease contract compatible to respond to his particularity\ncontract Marketplace is ReentrancyGuard {\n\n    struct Listing {\n        address owner;\n        address tenant;\n        address nftAddress;\n        uint tokenId;\n        uint256 rentPrice;\n        uint256 upfrontPayment;\n        uint256 purchaseOptionPrice;\n        uint256 leasingDurationInMonth;\n        uint256 numberOfPaymentMade;\n        uint64 rentDuration;\n        uint64 expires;\n    }\n\n///@dev Event emitted when a new NFT is listed to be rented\n    event NftListed(\n        address owner,\n        address tenant,\n        address indexed nftAddress,\n        uint indexed tokenId,\n        uint256 indexed rentPrice,\n        uint256 upfrontPayment,\n        uint256 purchaseOptionPrice,\n        uint256 leasingDurationInMonth,\n        uint256 numberOfPaymentMade,\n        uint64 rentDuration,\n        uint64 expires\n    );\n\n///@dev Event emitted when a NFT is rented\n///@param rent is the amount of the rent paid\n///@param expires is the date when the rent is over\n    event NftRented(address indexed tenant, address indexed nftAddress, uint256 indexed tokenId, uint256 rent, uint256 expires);\n\n///@dev Event emitted when a car is leased\n///@param lessee is the address of the lessee\n///@param lesseeName is the name of the lessee\n    event CarLeased(address indexed lessee, address indexed nftAddress, uint256 indexed tokenId, string lesseeName);\n\n///@dev Event emitted when the monthly mease payment is made\n    event LeasePaid(address indexed lessee, address indexed nftAddress, uint256 indexed tokenId);\n\n///@dev Event emitted when the lessee decide to buy the car at the end of the leasing contract\n    event OptionExercised(address indexed buyer, address indexed _nftAddress, uint256 indexed tokenId);\n\n    mapping(address => mapping(uint256 => Listing)) public listings;\n    mapping(address => uint256) public rentBalance;\n\n///@notice List the NFT with the condition of the rent or lease\n///@dev The address of the user and the expiration date is zero \n    function listNft(address _nftAddress, uint256 _tokenId, uint256 _rentPrice, uint256 _upFrontPayment, uint256 _purchasOptionPrice, uint256 _leasingDurationInMonth, uint256 _numberOfPaymentMade, uint64 _rentDuration) external payable {\n        if(msg.sender != IERC721(_nftAddress).ownerOf(_tokenId)) {\n            revert Marketplace__notTheOwnerOfTheNft();\n        }\n        if(block.timestamp < listings[_nftAddress][_tokenId].expires) {\n            revert Marketplace__lastRentingPeriodNotOver();\n        }\n        listings[_nftAddress][_tokenId] = Listing(\n            msg.sender,\n            address(0),\n            _nftAddress,\n            _tokenId,\n            _rentPrice,\n            _upFrontPayment,\n            _purchasOptionPrice,\n            _leasingDurationInMonth,\n            _numberOfPaymentMade,\n            _rentDuration,\n            0\n        );\n        emit NftListed(    \n            msg.sender,\n            address(0),\n            _nftAddress,\n            _tokenId,\n            _rentPrice,\n            _upFrontPayment,\n            _purchasOptionPrice,\n            _leasingDurationInMonth,\n            _numberOfPaymentMade,\n            _rentDuration,\n            0\n        );\n    }\n\n///@notice You can rent a NFT and use it as defined by the NFT project\n///@dev The owner of the NFT have to withdraw his balance on the contract to receive his rent\n    function rentNft(address _nftAddress, uint256 _tokenId) external payable nonReentrant {\n        if(msg.value < listings[_nftAddress][_tokenId].rentPrice) {\n            revert Marketplace__AmountSentTooLow();\n        }\n        if(listings[_nftAddress][_tokenId].tenant != address(0)) {\n            revert Marketplace__NftAlreadyRented();\n        }\n        rentBalance[listings[_nftAddress][_tokenId].owner] += msg.value;\n        uint64 expires = uint64(block.timestamp + listings[_nftAddress][_tokenId].rentDuration);\n        IERC4907(_nftAddress).setUser(_tokenId, msg.sender, expires);\n        listings[_nftAddress][_tokenId].tenant = msg.sender;\n        listings[_nftAddress][_tokenId].expires = expires;\n        emit NftRented(msg.sender, _nftAddress, _tokenId, msg.value, expires);\n    }\n\n///@notice Lease a car and have the option to buy it at the end\n///@dev The leasear have to withdraw his balance to receive his lease payment\n    function lease(address _nftAddress, uint256 _tokenId, string memory _lesseeName) external payable {\n        if(msg.value < listings[_nftAddress][_tokenId].upfrontPayment + listings[_nftAddress][_tokenId].rentPrice) {\n            revert Marketplace__AmountSentTooLow();\n        }\n        rentBalance[listings[_nftAddress][_tokenId].owner] += msg.value;\n        ILeasing(_nftAddress).setLessee(_tokenId, msg.sender, _lesseeName);\n        emit CarLeased(msg.sender, _nftAddress, _tokenId, _lesseeName);\n    }\n\n///@notice The monthly lease payment have to be made in order to continu using the car\n///@dev The leasear have to withdraw his balance to receive his lease payment\n    function payLease(address _nftAddress, uint256 _tokenId) external payable {\n        if(msg.value != listings[_nftAddress][_tokenId].rentPrice) {\n            revert Marketplace__PaymentAmountDoesNotMatch();\n        }\n        rentBalance[listings[_nftAddress][_tokenId].owner] += msg.value;\n        listings[_nftAddress][_tokenId].numberOfPaymentMade += 1;\n        ILeasing(_nftAddress).renewMonthlyLeasing(_tokenId);\n        emit LeasePaid(msg.sender, _nftAddress, _tokenId);\n    }\n\n///@notice The lesse have the option to buy the car at the end of the lease\n///@dev The ownership of the car can only be transfered to the current lessee\n    function buyLease(address _nftAddress, uint256 _tokenId) external payable {\n        if(msg.value < listings[_nftAddress][_tokenId].purchaseOptionPrice) {\n            revert Marketplace__AmountSentTooLow();\n        }\n        if(listings[_nftAddress][_tokenId].numberOfPaymentMade < listings[_nftAddress][_tokenId].leasingDurationInMonth - 1) {\n            revert Marketplace__YouCannotPurchaseYet();\n        }\n        rentBalance[listings[_nftAddress][_tokenId].owner] += msg.value;\n        ILeasing(_nftAddress).optionToBuy();\n        ILeasing(_nftAddress).safeTransferFrom(listings[_nftAddress][_tokenId].owner, msg.sender, _tokenId);\n        emit OptionExercised(msg.sender, _nftAddress, _tokenId);\n    }\n\n///@notice Use this function to withdraw your balance on the marketplace\n    function withdrawRent() external nonReentrant {\n        if(rentBalance[msg.sender] <= 0) {\n            revert Marketplace__YouHaveNoBalanceToWithdraw();\n        }\n        uint256 amount = rentBalance[msg.sender];\n        rentBalance[msg.sender] = 0;\n        (bool success, ) = payable(msg.sender).call{value: amount}(\"\");\n        if(!success) {\n            revert Marketplace__WithdrawFailed();\n        }\n    }\n}",
  "sourcePath": "/home/yan/solidity/fcc/rentableNFT/contracts/Marketplace.sol",
  "compiler": {
    "name": "solc",
    "version": "0.8.17+commit.8df45f5f.Emscripten.clang"
  },
  "schemaVersion": "3.4.8",
  "updatedAt": "2022-09-14T18:04:30.677Z",
  "devdoc": {
    "author": "Yannick J.",
    "details": "The marketplace is lease contract compatible to respond to his particularity",
    "events": {
      "CarLeased(address,address,uint256,string)": {
        "details": "Event emitted when a car is leased",
        "params": {
          "lessee": "is the address of the lessee",
          "lesseeName": "is the name of the lessee"
        }
      },
      "LeasePaid(address,address,uint256)": {
        "details": "Event emitted when the monthly mease payment is made"
      },
      "NftListed(address,address,address,uint256,uint256,uint256,uint256,uint256,uint256,uint64,uint64)": {
        "details": "Event emitted when a new NFT is listed to be rented"
      },
      "NftRented(address,address,uint256,uint256,uint256)": {
        "details": "Event emitted when a NFT is rented",
        "params": {
          "expires": "is the date when the rent is over",
          "rent": "is the amount of the rent paid"
        }
      },
      "OptionExercised(address,address,uint256)": {
        "details": "Event emitted when the lessee decide to buy the car at the end of the leasing contract"
      }
    },
    "kind": "dev",
    "methods": {
      "buyLease(address,uint256)": {
        "details": "The ownership of the car can only be transfered to the current lessee"
      },
      "lease(address,uint256,string)": {
        "details": "The leasear have to withdraw his balance to receive his lease payment"
      },
      "listNft(address,uint256,uint256,uint256,uint256,uint256,uint256,uint64)": {
        "details": "The address of the user and the expiration date is zero "
      },
      "payLease(address,uint256)": {
        "details": "The leasear have to withdraw his balance to receive his lease payment"
      },
      "rentNft(address,uint256)": {
        "details": "The owner of the NFT have to withdraw his balance on the contract to receive his rent"
      }
    },
    "title": "A marketplace for renting NFT",
    "version": 1
  },
  "userdoc": {
    "kind": "user",
    "methods": {
      "buyLease(address,uint256)": {
        "notice": "The lesse have the option to buy the car at the end of the lease"
      },
      "lease(address,uint256,string)": {
        "notice": "Lease a car and have the option to buy it at the end"
      },
      "listNft(address,uint256,uint256,uint256,uint256,uint256,uint256,uint64)": {
        "notice": "List the NFT with the condition of the rent or lease"
      },
      "payLease(address,uint256)": {
        "notice": "The monthly lease payment have to be made in order to continu using the car"
      },
      "rentNft(address,uint256)": {
        "notice": "You can rent a NFT and use it as defined by the NFT project"
      },
      "withdrawRent()": {
        "notice": "Use this function to withdraw your balance on the marketplace"
      }
    },
    "notice": "You can use this marketplace to list and manage all kind of renting NFT",
    "version": 1
  }
}